:040000050001F45FA3
:020000040000FA
:100000000037002049F4010059F401005BF40100BD
:100010005DF401005DF401005DF4010000000000EA
:100020000000000000000000000000005DF401007E
:100030005DF40100000000005DF401005DF40100CA
:100040005DF401005DF401005DF401005DF4010068
:100050005DF401005DF401005DF401005DF4010058
:100060005DF401005DF401005DF401005DF4010048
:100070005DF401005DF401005DF401005DF4010038
:100080005DF401005DF401005DF401005DF4010028
:100090005DF401005DF401005DF401005DF4010018
:1000A0005DF401005DF401005DF401005DF4010008
:1000B0005DF401005DF401005DF401005DF40100F8
:1000C0005DF401005DF4010038B514460D1800F030
:1000D000CFFA401E8041C00FDFF8E4140A68002AFE
:1000E000FCD02C6001220A6000281CBFBDE8314012
:1000F00000F0C2BA31BD38B5DFF8C804DFF8C85423
:10010000046814F1010F08BF002400F015FBDFF8AC
:10011000BC14002008600120DFF8B4140860DFF888
:10012000B414086028680028FCD1DFF8AC04DFF8BC
:10013000AC24416812688908890041F0005141F0FF
:100140000401520748BF41F001010BD4026812F0CC
:10015000030F07D041F003024260026802F003027D
:10016000032AFAD14160DFF87804006828B1DFF88B
:1001700074040068204600F031F8DFF86C14DFF8F2
:100180006C2400200860DFF8680401686FF31B41ED
:1001900011430160DFF85C040168C1F301310129FA
:1001A00007D10168DFF85024114041F400320260A9
:1001B000016028680028FCD131BDDFF8401482B20C
:1001C0000A60C0F30740486001208860DFF830040F
:1001D00000680028FAD00020886070472DE9F84FA9
:1001E0000446DFF8200401210160DFF81C140968CF
:1001F0000029FAD0C021DFF81484DFF81464DFF896
:100200001494C8F80010B168890705D47168090C06
:1002100041F0F00189F8001000210163F768DFF870
:10022000F85307F04070B0F1807F10D1DFF8EC0395
:10023000802101744FF6D801A9F8101080210170B7
:10024000384600F08DF9A86BC0F3042004E0DFF815
:10025000D0030068C0F3046000F07EF93917491C30
:1002600008181628A8BF152004DA6FF00901884283
:10027000B8BF084600F01F0040F4F850A9F8180075
:10028000C7F3C061DFF89C0381F001010160BA038C
:10029000C7F3806181F0010181602868C0F3836148
:1002A000C0F38F2020D43A0412164FF6FF7307E0F4
:1002B000400804D11846490804BF01210120521CFE
:1002C000002AF5D4012A0FDB400040F00100B0F510
:1002D000803F21BF0120490041F00101102924BFC6
:1002E0000F211846521EEDE7DFF83CA3DFF83C93E0
:1002F00040EA0142182100F02DF928682968C0F36E
:10030000870001F0030140EA012000900023D9F8A2
:1003100004C0DCF804C040F2FF322C215046E04714
:10032000E86A8204920C1C2100F014F9686A20F03B
:100330000332142100F00EF9286ABD4901EA0002D7
:10034000102100F007F9A86AB368DB07C0F3035176
:10035000C0F303420BD473684FEA035C01EB2C71CA
:100360001B0481F3040102EB237282F304021204E2
:1003700042EA015182B20A43222C24BF00F080409D
:1003800002430C2100F0E6F80120222C03D3E86B95
:10039000000F00F00100DFF89CB2400040F02000A8
:1003A0008BF808000120222C03D3E86B400F00F0EB
:1003B0000100002240F01000202C8BF8080007D329
:1003C000A86CC10C01F44071C0F3845040EA0102F2
:1003D000282100F0BFF80020202C03D3A86C000DCA
:1003E00000F00300400040F060008BF80B0000209C
:1003F000222C03D3E86BC00E00F00100C00040F0D7
:1004000080008BF800000020222C03D3E86B400D05
:1004100000F03F008000884940F47C40202C088098
:10042000864A0AD3A86C0203810A02F47C1242EACB
:10043000815100F00F0041EA0032082100F08AF8F3
:100440007F4C4FF480002060B80C00F003000128BE
:1004500002D0022828D024E0E86B810321D44FF495
:1004600080412160430A7749D1F8022022F08F02AF
:1004700003F080031A43C0F303331A43C1F8022088
:10048000C0F30323D1F80120120943EA0212C1F894
:10049000012000F0E7000A6822F0E702104308603C
:1004A00002E04FF0004020604FF400702064664985
:1004B000E86BC00C00F0030040F030000870B80D8D
:1004C00010F0030003D0022826D008D326E0012133
:1004D000042000F03DF95D48FFF76FFE22E00120A7
:1004E00000F061F907463946042000F031F9042094
:1004F00000F059F9B842FAD136683002000AFFF725
:100500005CFED9F814301B684FF060220721300ED2
:1005100098474FF480602060032100E0022104200E
:1005200000F016F9E8694A4900F03F00087047F604
:1005300018004849088048480068D9F80010C96880
:10054000022088474020C8F8000001204349086085
:10055000BDE8F18F5046B7E51628A8BF2038704790
:1005600070B53F480068C0F30460FFF7F5FF04462C
:100570003C48007800F01F00FFF7EEFFA0421ED0BD
:1005800039493A4E00220A606FF00103324A251AB7
:10059000032DA8BF022502DA9D42B8BF1D462818C8
:1005A000156800F01F0545F4F85535800125A04277
:1005B0001560ECD11068156010680D60106870BD92
:1005C00000800C401C1300500C0068428404604200
:1005D0005C600C400822044300400340B03F0050E0
:1005E00080012843000120438C210840000039018C
:1005F0004820034004000940FFFFFCFC3C600C4025
:1006000084088C43101009409402224300600C407F
:10061000A83F005056620840501300501562084031
:10062000B81200500000204300A00C40A0010010B0
:10063000FFFFFC0041A10C40DCA10C4000803F40CA
:1006400040A00C400A60084008A10C40BD3786005D
:100650000BB00C4070B00C402C2009409404604258
:100660008813005006620840980020436C620840DE
:10067000EFF3108072B67047EFF3108062B67047E8
:100680002B490A68C2F30F324BF69A139A424FF085
:10069000FF3007D10868000F0B2801D104207047F4
:1006A000002070474BF6BE118A4201D101207047ED
:1006B0004BF641318A4201D1032070474BF620317D
:1006C0008A4208BF022070471948F8B50068050F34
:1006D00018480068C6B2802E28BF0026FFF7D0FF5A
:1006E0004FF0FF3406F10A0730B102281BD012D3B5
:1006F000042819D017D318E0012D12D0032D06D0ED
:10070000072D06D0082D08BF06F116040DE01424AD
:100710000BE0152409E025B1022D08BF06F11404F1
:1007200003E00A2401E005B93C4660B2F2BD0000D6
:1007300018130050A010005080B5FFF7A1FF01284A
:1007400003D1FFF7C1FF142800DAFEE701BD050061
:10075000F8B50446E0070D461D4E1E4F0AD5A8B257
:1007600000900023D6F800C0DCF804C0012200216C
:100770003846E047A0070AD5A8B200900123D6F872
:1007800000C0DCF804C0022200213846E0476007C0
:1007900008D5ADB200950223346864680C220021AC
:1007A0003846A047F1BD10B5014609480068C46845
:1007B0000848042905D11D234FF0C0423421A04729
:1007C00010BD1C234FF080523421A04710BD000003
:1007D000A401001000A00C4001218140734A116067
:1007E000704701218140724A1160704780B5142022
:1007F000FFF7F7FF01BD80B51420FFF7EDFF01BD46
:1008000010B582B0B9208DF80000FFF7EFFF01218D
:1008100068461EF016FC002801D1012400E00024E7
:10082000FFF7E9FF2000C0B216BD10B582B0AB20C3
:100830008DF80000FFF7DAFF012168461EF001FC89
:10084000002801D1012400E00024FFF7D4FFE4B226
:10085000002C05D000F055F8002801D0002004003D
:100860002000C0B216BD10B582B0684652490A6871
:100870000260FFF7BBFF042168461EF0E2FB0400A4
:10088000002C03D0FFF7B7FF00200CE002214B48FB
:100890001EF0EFFB0400FFF7AEFF002C01D101209A
:1008A00000E00020C0B216BD80B5FFF7DCFF0028D5
:1008B00001D1002024E042483E4908603D480068DC
:1008C0000068002813D03D4800783A490968097942
:1008D000884206D1394840783649096849798842C2
:1008E00005D034480068083032490860E6E73148EE
:1008F00000680068002801D0012000E00020C0B29C
:1009000002BD10B582B02F4800788DF80100FFF7C6
:100910006DFF1EF0CDFBFFF76EFFFFF767FF0121B4
:100920000DF101001EF08DFB012168461EF0A1FBB8
:100930000400FFF760FF002C02D07FF0010004E00C
:100940009DF80000C007E8D4002016BD10B50020B7
:100950000400E4B20A2C07DAFFF7A6FF002801D151
:10096000002003E0641CF4E75FF0FF3010BD10B519
:100970000A2115481EF0A7FB142014490968C96B09
:100980008847FFF738FFFFF750FF0400E4B2002C60
:1009900002D0FFF789FF0400E4B2002C01D100F07F
:1009A00017F82000C0B210BD0000000090200240E7
:1009B000A0200240280000206CF401002C00002040
:1009C000000000204E07000000093D00B4010010A7
:1009D00080B5FFF715FFFFF7B9FF1EF0CAFB01BD99
:1009E000F8B504000D001600FFF78BFF0700002F7D
:1009F00001D0002024E003208DF80000200C8DF8A9
:100A00000100200A8DF8020020008DF80300FFF796
:100A1000EDFE042168461EF014FB002803D0FFF70A
:100A2000EAFE00200CE0290030001EF022FB070047
:100A3000FFF7E1FE002F01D1012000E00020C0B24D
:100A4000F2BD000000002000C215000000001000F0
:100A5000C214000000000800EF12000000000400B3
:100A6000EF11000000000000000000000000000086
:040A70000000000082
:101010006043002095B800008DB000008DB0000046
:101020008DB000008DB000008DB000008DB00000CC
:101030008DB000008DB000008DB000008DB00000BC
:0C1040008DB000008DB0000059B0000021
:10105000DFF8E008007D7047DFF8D828117D1075B3
:1010600008467047DFF8CC18D1E90023C0E9002317
:101070007047DFF8C008C0690047DFF8B818096A90
:10108000084710B501F068FC38B1DFF81449A068D2
:1010900001F06BFCA0614FF0FF3010BD10B52020B7
:1010A000EFF3118480F31188DFF8F40880680021E1
:1010B00001F05FFC84F3118810BD000038B52020DA
:1010C000DFF8DC58EFF3118480F31188A868002161
:1010D00001F04FFC6969081AA969814238BF0020F4
:1010E00084F3118832BD70B5DFF8506904460D46AF
:1010F000B068214601F03BFC3461756170BD2DE99B
:10110000F8438846DFF8241909680446DFF82C09FB
:101110000F184FF0FF393D680BE0F069B16988475F
:10112000B08A012805D1F068A0EB0800484598BFB7
:101130008146BD4211D02E462D68B08A0128F8D1D3
:10114000012C04BFF0684045EAD13169002907BF8E
:101150000020B0820818F060DFE74846BDE8F2835F
:1011600000000000F8B52020DFF8D048EFF3118729
:1011700080F31188A068012101F0FBFB0121A1830C
:101180000021E183656921682268461B801A691A7B
:10119000884204D20020A08387F31188F1BD87F331
:1011A0001188002005E04519361A29460120FFF76D
:1011B000A6FF8642F7D22021EFF3118781F3118831
:1011C000E18B012903D129460020FFF798FFA1698F
:1011D00010F1010F08BF084603D0801B814238BFC1
:1011E00008464119FFF77FFF012020840020A083DB
:1011F000256087F31188F1BD38B504461D46A2600D
:101200006869DFF828282061A1612146A869E061AA
:101210000020A0821268DFF82408101800F098F867
:10122000288A18B12046BDE8324049E031BD0000AF
:1012300010B52021EFF3118481F3118800F096F8A6
:1012400084F3118810BD8260816100220261C36154
:1012500082820146DFF8D427DFF8E0071268101811
:1012600076E038B5DFF8D4570446288C012804BF4F
:10127000A88B002817D1A868012101F07AFB296802
:101280006A692B68D21A411A8A420CD3A2681118D3
:10129000E1600123A3826B69181A82420ED21046C4
:1012A000BDE834401FE7FFF7F9FEA1680818E060C9
:1012B0000120A082A88B012808BFE88331BD00006F
:1012C00010B52021EFF3118481F31188FFF7C9FFD6
:1012D00084F3118810BD00218182DFF8C416C06834
:1012E0004969884203D1DFF884080068E8E770475D
:1012F000816070477047808A7047704780B500F002
:1013000001F8FCE738B50024DFF8645804E06868A9
:1013100050F824008047641C28688442F7DB31BD04
:1013200012E001680A680260506008467047016870
:1013300081420CBF012000207047426808604A606B
:1013400011604160704700BF40600060704700005E
:101350002023EFF3118283F31188086043684B6008
:1013600043681960416082F31188704701684268E0
:101370001160416800684160704710B50446107EF6
:10138000207261810021DFF828080068001901F04F
:10139000EBFB002020600120606010BDDFF810181A
:1013A0000968081801F0F4BB38B504462020EFF3B3
:1013B000118580F31188207C022808D12046FFF790
:1013C000D5FF002020742946A06800F0FFFB85F3BC
:1013D000118831BDF0B50E468FB016F1010F18BF60
:1013E000002E05460AD06B463246DFF8181805A8CD
:1013F000FFF729FF05A80390022002E000200390D8
:1014000003208DF81000DFF8A80700684719202096
:10141000EFF3118480F31188688978BB16B984F3DF
:10142000118837E000F050FA00F002FBC0F818D045
:10143000029800F09FFB69463846FFF77EFF9DF853
:101440001000022804BF0398FFF70BFF84F31188F4
:10145000284600F041FA2020EFF3118480F3118830
:10146000039818B1FFF782FF002003900020029933
:10147000886184F311889DF810000BE06889401E94
:101480006881039818B1FFF771FF0020039084F37F
:10149000118801200FB0F0BD70B50446DFF81007C9
:1014A000006806192020EFF3118580F3118830467B
:1014B000FFF73DFF48B1207AC0074EBF0120608989
:1014C000401C608185F3118870BD00F0FDF9044671
:1014D0003046FFF726FF064601203074F06808B159
:1014E000FFF7F9FEB068294600F070FB85F311881C
:1014F0002046BDE87040EFE12DE9F8430746DFF8EC
:101500007047B86AD4F81090A568E6682061E76073
:10151000786AA060386A78620020B8832080012051
:10152000FFF79AFD804640F2000CEFF311808CF338
:1015300011883969F868BA6890472021EFF3118063
:1015400081F311884046FFF787FD01202080C4F811
:101550001090E660A560BDE8F1830000F8B5DFF803
:10156000104725696068B0FA80F0C0F11F0061691A
:1015700001EBC0063046FFF7D4FE07463046FFF7C2
:10158000D6FE00F0A3F8606840B1B0FA80F0C0F178
:101590001F00616901EBC006B542EBD3F1BD00004D
:1015A00070B52020DFF8C856EFF3118480F311885E
:1015B0006868B0FA80F0C0F11F006A69296902EB1F
:1015C000C00081420ED200F07FF90646DFF8040722
:1015D00001F0E2FB0020288084F311883046BDE84A
:1015E000704079E10020288084F3118870BD10B527
:1015F000002404E02146002001F01FFB641CDFF8FA
:10160000D80600688442F5DB002000E0401CDFF8CB
:101610009C1709688842F9D300F084BB0AE0DFF820
:1016200050060188481E8041C00F7047DFF8401601
:101630004CE100005FF0000080B5A8B92021EFF375
:10164000118081F31188DFF828164A6822B180F3EF
:101650001188FFF7A5FF02E00A8080F3118800F0EF
:1016600033F9BDE8024037E101BD000000B1704729
:10167000F8B5DFF8FC45606828B340F2000CEFF3E2
:1016800011818CF311882022EFF3118182F31188EC
:101690002569B0FA80F0C0F11F0003E0B0FA80F0D5
:1016A000C0F11F00616901EBC006B5420BD23046A4
:1016B000FFF737FE07463046FFF739FE00F006F821
:1016C00060680028EAD100202080F1BD18B1606870
:1016D000B9698843606038460EE7DFF89405806892
:1016E00070470000F8B504460F4616461D46FFF742
:1016F0002AFEA76000F046F808BF052000F03CF87D
:101700000020A08300F046F8A062284600F0C8FE42
:1017100000B10220F2BD704770B505462020EFF3FE
:10172000118480F31188A88B10B184F3118870BDE7
:101730000120A883FFF77AFF0646A86A2946FFF72B
:10174000FCFDDFF82C05AA6941681143416084F370
:101750001188002E04BFBDE87040FFF721BF70BDA7
:101760002023EFF3118283F31188436A1943416206
:1017700082F31188D0E70000606101206169884030
:10178000A06170473069E06070692061B06910F154
:10179000010F7047F06960622062DFF8D40461696C
:1017A000406901F0DAB9000010B5DFF838480020D0
:1017B000208101E000F028FA60680028FAD0606813
:1017C000B0FA80F0C0F11F00A16901EBC0006169AF
:1017D000814209D2226960610068206100F1100134
:1017E00002F1100001F0CBF820890028DFD110BDF4
:1017F00010B5DFF80C48208908B1FFF7D5FF0020AD
:10180000208040F2000CEFF311808CF3118810BDA2
:1018100038B501F0B0F800B3002407E021460020FD
:1018200001F03FFA002100F063F9641CDFF898072B
:1018300000688442F2DB0024DFF8C45706E0286B1E
:1018400050F82400002100F053F9641CDFF8B407BD
:1018500000688442F3D34FF0FF3032BD5FF00000E8
:1018600010B594B02021EFF3118081F31188DFF8D7
:10187000904701E000F0C8F960680028FAD060687D
:10188000B0FA80F0C0F11F00A16901EBC0006061F7
:1018900000682061002020810220FFF7DDFB40F27C
:1018A000000CEFF311808CF311882021EFF31180ED
:1018B00081F3118801F04AF8206900F1100104A8B1
:1018C00001F05DF814B010BDDFF818170888012288
:1018D0000A8070475FF0000000B1704710B520210A
:1018E000DFF81C47EFF3118081F31188208920B1C4
:1018F000FFF795FE08B1FFF757FF0020208040F268
:10190000000CEFF311808CF3118810BD00B170470B
:1019100010B5DFF8EC46208920B1FFF780FE08B152
:10192000FFF742FF0020208010BDDFF8D4060069D9
:10193000704700007C100020808F012800D0704785
:1019400010B52020EFF3118480F31188DFF8B00682
:10195000C168491EC16004D184F311880020FFF7DB
:101960008CFB84F3118810BD70B5DFF89406046910
:10197000FFF7AAFF05462020EFF3118680F31188B8
:10198000204600F0F7F8032020752046FFF7D4FF2B
:1019900086F311882046FFF7D6FC284650E0000069
:1019A000DC10002010B52021EFF3118481F31188A1
:1019B0008068214600F00AF984F3118810BD000008
:1019C00000B9704730B58DB002466B46DFF8381667
:1019D00004A8FFF738FC04A803902020EFF311843B
:1019E00080F31188FFF770FF00F022F800F0C2F8D2
:1019F0000398FFF736FC6846FFF7A5FC0299C1F88B
:101A000018D084F311882846FFF766FF2020EFF3F3
:101A1000118480F311880398FFF7A8FC002003903D
:101A200084F31188029988610DB030BD20B900009F
:101A30000546DFF8CC05006902907047DC100020F5
:101A4000BDE8704048E72DE9F04116460446B0690C
:101A5000A0600D46706A984610B9DFF8B0050068BE
:101A60006062376A17B9DFF8A805076800F089FFD8
:101A7000F26941424AB340B1401E801808402062DA
:101A8000381A10180840E06101E02262E7614FF067
:101A9000FF306062A5623069E06270692063B06AFD
:101AA0006063B08DA087012804D1DFF85405C168B8
:101AB000491CC1604146204600F01AF804464046E1
:101AC00000F0EEFC90B1E01C10E020B1C219521EF3
:101AD0001140E16100E0E7610246E169606A434666
:101AE00000F001FD00282062D4D10120BDE8F08182
:101AF00070B50D4604462B46DFF81825DFF818159B
:101B000000F03BFF2061284600F0CAFC60BB0120CA
:101B100020750020A061A168DFF8E40400290AD53F
:101B20000021E160DFF8F4140968081820642146F8
:101B3000FFF70EFC18E0A26801219140E160A16866
:101B4000806901F00AF82064FFF7BEFE05462020F8
:101B5000EFF3118680F31188204600F02BF886F30E
:101B600011882846FFF7B8FE002070BD28B9000094
:101B7000E0B800002DE9F0410446DFF88454266CFB
:101B80006F68D4F80C80FFF7F1FB3046FFF7CFFB0E
:101B900010B127EA080068602869A04204BF00204D
:101BA00068610220207501202881BDE8F0810000D5
:101BB00030B9000010B52021EFF3118481F31188B2
:101BC000214600F003F884F3118810BD2DE9F0419F
:101BD000DFF82C64776804460D46D4F80C80206C3E
:101BE0002146FFF7AAFB48EA070070602021012088
:101BF0002075308185F31188EFF3118081F311880E
:101C0000BDE8F081A913000080B5DFF81404DFF807
:101C10001424006890420DD140F2000CEFF31180C3
:101C20008CF31188FFF76EFB2021EFF3118081F315
:101C3000118801BD010013D140F2000CEFF31180B7
:101C40008CF31188002001E00098401C009000985F
:101C50000028F9D02021EFF3118081F3118801BD14
:101C600080472021EFF3118081F3118801BD00002E
:101C70000811002080B500F03DFE08B14FF0FF30A4
:101C800002BD00F065BE00F065BE00F05BBE38B579
:101C9000044608461146049D1A462B4600F033FEC2
:101CA0006060284600F0FCFB00B1012032BD00B5A9
:101CB00085B0002101A8FFF7E8FF039804E0009930
:101CC000BE2008700098401C009000986845F6D32C
:101CD00005B000BD5D15000034B9000000F034BE51
:101CE00010B52021EFF3118081F31188DFF838035C
:101CF00041698269C90802EBC10108390161002408
:101D00004FF0FF31016007E02146002000F04DFE5A
:101D1000002100F04DF8641CDFF8100300688442D5
:101D2000FFF6F2AF4FF0FF3010BDFEB51746DFF8FB
:101D3000002305460846DFF8F01268821E46C9698E
:101D4000126851F82010089C914210D00190002197
:101D5000DFF8E0020068009002918F23DFF8D802DC
:101D600001880022204600F0A9FB0120FEBD00F002
:101D7000ABF8AF6070696860306A10F1010F08BF9E
:101D8000FF2028740020318B01B10120B18C09B1F2
:101D900040F00200E8602146284600F009F80546B8
:101DA000204600F07DFB00B1E81CFEBD38B9000004
:101DB00038B50446217BB4F912008907054602D5DF
:101DC000217C202907D2A16800F0C2F8B4F91200E2
:101DD0004042608209E0DFF85002DFF86012406A9A
:101DE00040F82540284600F0B3F8217C284600F052
:101DF000DDF8207BC00744BF284600F087F80020AC
:101E0000E06032BD012900D1704710B5B0F9124031
:101E1000204600F059F8DFF818020168204600F06B
:101E200097F8DFF80412496A002041F8240010BD39
:101E300010B5DFF8F401DFF80822C169DFF8040209
:101E400001600368934211D0002302E041F823406F
:101E50005B1CDFF8F4412468A34207D20F2B32BF8A
:101E600052F82340DFF8C8412468EFE7DFF8DC21AF
:101E70004168126821F47F4101EB0221DFF8D02193
:101E80005118416020218176DFF8C8110968C160CE
:101E900010BD000040F2000CEFF311808CF31188AC
:101EA000704700002021EFF3118081F31188704703
:101EB00080F311887047000040F2000CEFF31180AE
:101EC0008CF31188704700001028DFF88C110FD3B5
:101ED000A0F1100252091038012300F01F0011EB8D
:101EE00082018340D1F80001C1F8803118400AE036
:101EF0000F2807D108690A6932F0020200F00200D7
:101F00000A6100E0002000BF704700001028DFF8E1
:101F100048110FD3A0F1100252091038012300F02C
:101F20001F0011EB82018340D1F80001C1F800319C
:101F300018400AE00F2807D108690A6952F0020226
:101F400000F002000A6100E0002000BF70470000BE
:101F5000DFF8D420D26902EB800002688A4218BF01
:101F60000160704710B5DFF8F440206900F024FFED
:101F70000020206010BD30B5DFF8E0209369436099
:101F80005469846025462A78BE2A04D001220021A3
:101F90000160104630BD00220029F8D015F8011B61
:101FA000BE29FBD0691E591A6118F1E7DFF8A82095
:101FB0008218102802D382F8F0137047042828BF33
:101FC00082F8141D7047000040B900008160426033
:101FD0007047102804D3DFF880101038C1F8000FC4
:101FE0007047000024110020DFF83C305B680122BC
:101FF0001A80DFF8702112681300FED0104700002D
:102000002411002050B90000A519000048B90000B3
:102010004CB9000069190000F11700003CB900003C
:1020200044B9000005130000A810002004B9000006
:1020300010B90000FCB80000DE3500009DAF0000C4
:102040001010000008ED00E000B9000014B9000015
:102050000000FA0508B9000000E000E0A810002028
:10206000F8B507462021EFF3118081F31188FFF7BF
:102070002BFC0446FFF7DAFA05460020FEF7ECFFDA
:102080000646DFF880059E49406AD1F8041DC9B2B2
:1020900050F82110CF6040F2000CEFF311808CF368
:1020A00011884868896888472021EFF3118081F3FF
:1020B00011883046FEF7D0FF05EB0420F2BDC0B218
:1020C000FFF7D4BA000AFFF721BC7CB504460D46E1
:1020D000E169164619B1206ABE2200F091FE206B1C
:1020E00001902B46E06A00903246A16A206AE469BA
:1020F0002018001F00F0F2FE76BDDFF858050068DA
:1021000070477047000000002021EFF3118081F339
:102110001188704781F3118870470020704710B50F
:102120000446DFF83405006800220121001900F0A0
:102130005AFD0020606010BD38B50446504D6068FF
:10214000296988420BD0DFF8100500684FF0FF3195
:102150000019FFF73FF928696060002032BD0120B7
:1021600032BD00000CB9000031B94160DFF8E8145D
:1021700009680818FFF790B9704700000120704700
:1021800000F0F9BEDFF8A015C20744BF01220A60C3
:10219000820744BF4FF480720A60400744BF4FF487
:1021A000803008607047DFF8BC25C30748BF116066
:1021B000830748BF5160400748BF9160704710B522
:1021C00004460020D4E90A2347F6906101F090F913
:1021D000012928BF4FF0FF3010BD10B50C4601F0AB
:1021E000FFF9011D201AB0F1004F05D8081BB0F10E
:1021F000004F38BF8C4200D20C462146BDE810404B
:102200000120D0E72DE9F04180460A46D8E90A01CD
:10221000D8E90C45A0FB026701FB0277A6196F41C4
:10222000340C002244EA07414046FFF7D6FFC8E9D4
:102230000E67BDE8F08180B5DFF8F0040068002883
:102240001EBFDFF870054068002804D0818811B1F6
:10225000002100F085F84FF0FF3002BDDFF8CC041C
:10226000006800281EBFDFF84C054068002806D033
:10227000818821B1017B002908BF00F003B87047B5
:1022800024110020F8B506462020EFF3118480F3D6
:102290001188DFF82455DFF824750120E861FFF785
:1022A00071FFF96A096A142088473069B0F5802FF8
:1022B00034BF0421010C0120FFF775FF3A68126852
:1022C000232100209047DFF8F81401200860DFF890
:1022D000F404016821F4E02141F48031016001201F
:1022E000286084F31188F1BD10B5DFF8C804446894
:1022F00000F008F86069A169BDE8104008470000D7
:1023000000E000E001203DE7F8B504460D4601F08D
:1023100071F9D4E90A6732463B4601F0E9F83DB16C
:10232000A6FB002306FB013307FB0033C4E90C23A3
:10233000F2BD10B5DFF88004DFF88C4400210160A5
:102340000121C16121602068FFF7DCFFDFF87C1408
:102350000968096A14208847206810BD0000000041
:1023600010B52021EFF3118481F31188FFF7E1FF0D
:1023700084F31188002010BD2DE9F0410546164672
:10238000EA69984630460F46A96901F03FF9B8F16D
:10239000000F3C46766005D0EA6908234146304686
:1023A00000F05CF8F6686969CFB9079BAA68E8682D
:1023B00000F0CCF8070008BF00201BD000F0AFF9F8
:1023C0006968396007F10804696849687960696873
:1023D00049680F6069684F6000F07EF803E00839D3
:1023E000204601F04FF9286810F1010F18BF206056
:1023F00000F023F8BDE8F081F8B505460C46164616
:10240000EA69A9691F46304601F000F976602FB1EC
:10241000EA6908233946304600F020F86869F66812
:10242000A0F10801204601F02DF9286810F1010FF4
:1024300018BF206000F001F8F2BD286908B171688A
:102440000151204670470800194606D0130004D0F9
:1024500011F1010F08BF1047104770472DE9F843ED
:10246000D1F80C80D8F800900446086815461E463E
:10247000AF1BA0EB0902BA4288BF3A46204601F0E2
:10248000C5F8256064603D19E560B14588BFB14677
:102490004A464146284601F0C9F82E60BDE8F1835E
:1024A000DFF840130978012904D118B1C06810B1D0
:1024B000012000E00020C0B27047000010B584B0D9
:1024C000089C0294079C0194069C0094DFF8184332
:1024D0002468A0471FBDFEE70146DFF8F40200684C
:1024E00000F058BA00002DE9F0410546984684B046
:1024F0000E4617464046FFF7D3FF044617B9DFF8EC
:10250000EC020768002D12BF2846DFF8E4020068DD
:1025100043463A46314600F036FA070012D11CB95C
:102520004046FFF7BDFF68B9DFF8C80200680090B9
:10253000029601953423DFF8C0020188002240464C
:10254000FFF7BCFF384604B0BDE8F08180B50093CA
:10255000002300F001F802BD70B51D46049B0C4637
:10256000FFF7C1FF060003D02A46214600F048FCD1
:10257000304670BD0A6942604A6982604969C1603B
:102580007047F8B50446DFF8740200680D46174638
:1025900000F0FEF9616800267A1E0A4018BFBE1AD4
:1025A000A26873199A4203D2FFF796FF0020F2BD8A
:1025B0007718521B921B5918A2606160FFF78CFFBD
:1025C0003846F2BDDFF838020088012800D0704795
:1025D000E0B50020029001905523DFF82802006842
:1025E00000900022DFF8200201880020FFF766FF3C
:1025F00007BD00207047C2680A6080684860886034
:1026000070470000A8100020DFF80002818801B1A7
:10261000704738B5012181800024DFF8F45104E0CF
:10262000686850F824008047641C28688442F7DBFF
:10263000DFF8E001DFF8E05100688047002404E0A3
:10264000686850F824008047641C28688442F7DBDF
:1026500031BD000018B900001CB900002DE9F04799
:102660000D4600268246012DA4BFA90001F00EF8F8
:10267000DFF89871DFF8A401C7F800A00024D0F8B3
:1026800000800CE0DFF89801006830F8140028B1F1
:1026900058F82410002088474AF82400641CAC42F3
:1026A000F0DB0120F880B14601E009F10109DFF813
:1026B00074010068814518DA0126002402E0002038
:1026C0000640641CAC420EDA5AF8240010F1010FE7
:1026D00007D058F8241088474AF8240010F1010F59
:1026E000EDD10120ECE73000DFD01EB90FF2501021
:1026F00000F008F800203860BDE8F08700BF4FF018
:10270000FF30704710B5044600F009F8204600F08D
:1027100043F9DFF814010068BDE810400047DFF816
:10272000DC00006800F034B904200940F8B800006B
:1027300038B50546FFF7F3FFDFF8F010DFF8F030AB
:102740004A681B6801249A4206DA0B6843F8225053
:102750004A68521C4A6000E00024FFF7BDFE204694
:1027600032BD00001820094010B5044600F00AF8F8
:102770002046DFF8C0100968BDE810400847000097
:10278000FEE7FEE770B50446DFF84400DFF89C5032
:10279000FFF7C7FF6E6806E0296801EB8601761E29
:1027A00051F8041C8847012E2046F5DABDE8704038
:1027B00000F0F4B8A01000200000244384010010B1
:1027C00080022443002009402C200940B001001061
:1027D00088B9000018490968084718490968084776
:1027E000FEE770478A37000058B9000068110020E2
:1027F0006CB9000054B900009236000088B900009E
:102800008A3600005CB90000823600006C1100209E
:10281000E8B8000070B90000F0B800007CB9000012
:1028200078B9000074B900008CB900007411002060
:1028300094B9000090B9000080B9000084B900008C
:102840007864632E72756E74696D652E537461724F
:102850007475703A20276D617850617373657327C2
:1028600020657863656564656400000000B587B025
:1028700007216846FFF7F2FE07B000BDFFF780BCF6
:1028800000B581B0FEF736FDDFF8B001C06801B0D9
:102890005DF804EBFEF740BF00B581B00FF21D00FC
:1028A000FFF746FFFFF7DAFCFFF718FAFEF7B6FE70
:1028B00001B05DF804EBFEF7D1BF000000B581B0B8
:1028C000FEF7B4FEFFF700F801B05DF804EB03205B
:1028D000FEF7C2BB10B504460320FEF7BDFB204641
:1028E000BDE81040FFF740BFDFF85411DFF8540196
:1028F00088617047DFF81401006800281ABF40693A
:10290000C00F01207047F0B5044630208FB00D464F
:1029100000901E461346019602AA0021DFF8A4018A
:10292000FFF72AFD070009D0009602AB2A46214690
:10293000FFF7FBF93046FFF7B3FD00B1002738463B
:102940000FB0F0BDFFF717BBFFF7A4BAFFF70ABB44
:10295000FFF7BABAFFF7DABADFF8B000006800286C
:102960001ABF8069C00F01207047FFF728BCFFF72E
:1029700049BCFFF7C9BC01207047FFF7A6BB00F0B8
:10298000D3BAFFF7BABB10B50468A468A04710BD5E
:10299000FFF7BABBFFF7BEBBFFF71CBFFFF71DBFBA
:1029A00009B9DFF83011FFF759BD01EB410208B951
:1029B000DFF8380300EBC2007047F0B58FB0044673
:1029C0003020149F00900D461646019702AA21461A
:1029D000DFF8F000FFF710FD009702AB3246294602
:1029E0002046FFF7A2F93846FFF75AFD0FB0F0BDB9
:1029F00000B581B00121009100230146DFF82423B6
:102A0000DFF8C000FFF71FFD01B000BD6C11002012
:102A100010B588B002AA0B990191182100910146C6
:102A2000DFF84001FFF7A8FC040008BF002003D036
:102A300002A9FFF766FB204608B010BDDC1000209D
:102A4000A81000200004000010B588B002AA0B995D
:102A500001911821009101460848FFF78DFC040000
:102A600008BF002003D002A9FFF759FB204608B099
:102A700010BD09B9DFF8DC12FFF7F0BC6CB600003E
:102A8000F0B504462C208DB00D4600901E4613462E
:102A9000019602AA0021DFF8C002FFF76DFC0700D3
:102AA00009D0009602AB2A462146FFF7F0F83046DF
:102AB000FFF7F6FC10B100200DB0F0BD38460DB0A8
:102AC000F0BD00002CB6000009B9DFF89012FFF746
:102AD000C5BC0000A8B4000070B58CB004460193DA
:102AE000242000900D46134602AA0021DFF8700250
:102AF000FFF742FC060008BF002005D002AB2A46C3
:102B00002146FEF779FB30460CB070BD000070B571
:102B10008CB00446002001900D46242000901646FB
:102B200002AA2146DFF83802FFF766FC02AB324604
:102B300029462046FEF760FB0CB070BD00B581B0A1
:102B4000012100914FF0FF330146DFF81822DFF832
:102B50001002FFF778FC01B000BD08B100EBC10026
:102B6000704700004CB6000010B588B00446002045
:102B700001900B461820009002AA2146DFF8E801D8
:102B8000FFF73AFC02A92046FEF7CAFB08B010BDC9
:102B900000B581B0012100914FF0FF3301460022C2
:102BA000DFF8C401FFF74FFC01B000BD09B9DFF841
:102BB000BC11FFF753BC30B58BB004462420019202
:102BC00000900B4602AA0021DFF8A401FFF7D4FB16
:102BD000050008BF002004D002AA2146FEF7CDFB65
:102BE00028460BB030BD30B58BB0044600200190B4
:102BF0000D4624200090134602AA2146DFF87001FA
:102C0000FFF7FAFB02AA29462046FEF7B6FB0BB0F7
:102C100030BD00B581B0012100914FF0FF33014676
:102C2000DFF85021DFF84801FFF70DFC01B000BDCF
:102C300009B9DFF84411FFF711BC01EB410208B9F3
:102C4000DFF8380100EB0210704770B50446282009
:102C50008CB00D4600901E461346019602AA2146EE
:102C6000DFF81C01FFF7C8FB334602AA29462046BD
:102C7000FEF738FD3046FFF713FC0CB070BD00B511
:102C800081B00121009100230146DFF8F820DFF830
:102C9000F000FFF7D8FB01B000BD01B93A49FFF7DA
:102CA000DDBB4C22514300B938480818704770B555
:102CB00004463C2092B0154600900B46019502AAAE
:102CC00000213348FFF758FB060008D02B4602AA24
:102CD0002146FEF7B8FE2846FFF7E2FB10B10020C0
:102CE00012B070BD304612B070BD0000E00D002083
:102CF00070B504463C2092B00D4600901E46134627
:102D0000019602AA21462248FFF776FB334602AA23
:102D100029462046FEF797FE3046FFF7C1FB12B06A
:102D200070BD0000051E000010B58AB002AA0D9902
:102D300001912021009101461648FFF71DFB040078
:102D400008BF002003D002A9FFF714FC20460AB0F8
:102D500010BD0000D8B400008CB60000C4B500005F
:102D6000ACB6000031120000CCB60000E8B500009F
:102D7000ECB600009D13000004B50000700E0020AA
:102D80000CB700001717000034B40000D80E002064
:102D90002CB700004CB7000010B5EFF31484002CE2
:102DA0001CBF002181F314888047002C1CBF022126
:102DB00081F3148810BD000000B5EFF3038212F018
:102DC000FF0F0DD06A46A2F1200282F309886FF04E
:102DD000020E10604FF08071D16108499161704717
:102DE0005DF804EB694681F3098880F308884FF0A9
:102DF0000200EFF3148180F314887047E12D000086
:102E000062F30F2262F31F42401810F0030308D050
:102E1000C91A1FD3DB0748BF00F8012D28BF20F8CF
:102E2000022D130030B414461546103928BF20E98E
:102E30003C00FAD8490728BF20E90C0048BF40F8F9
:102E4000042D890028BF20F8022D48BF00F8012D6D
:102E500030BC7047C91818BF00F8012DCB0728BF38
:102E600000F8012D7047F0B40168446883680918C0
:102E700001EB5402E40748BF4B440C3091422BD085
:102E800011F8014B14F0030504BF11F8015BED1CB0
:102E900026090F2E07D111F8016B0F3603E011F848
:102EA000017B03F8017B6D1EF9D1002EE6D0A4084A
:102EB00011F8015B04F00304032C08BF11F8014B67
:102EC00005EB04241C1BB51CD8D014F8016B03F8C7
:102ED000016B6D1EF9D1D1E7F0BC704740F8043D9D
:102EE00040F8042D40F8041D019940F8041D009994
:102EF00040F8041D0B4940F8041D81EA0101A1F1CD
:102F0000010140F8041D40F8041D40F8041D40F87C
:102F1000041D40F8041D40F8041D40F8041D40F84D
:102F2000041D7047392F00002DE9F04FC0F800D084
:102F3000D1F800D0BDE8F08F04988047009801993F
:102F4000029ADDF80CE0104738B514460D1800F071
:102F5000A1FB401E8041C00FDFF8E4140A68002A7C
:102F6000FCD02C6001220A6000281CBFBDE8314063
:102F700000F094BB31BD38B5DFF8C804DFF8C854A1
:102F8000046814F1010F08BF002400F0F3FBDFF820
:102F9000BC14002008600120DFF8B4140860DFF8DA
:102FA000B414086028680028FCD1DFF8AC04DFF80E
:102FB000AC24416812688908890041F0005141F051
:102FC0000401520748BF41F001010BD4026812F01E
:102FD000030F07D041F003024260026802F00302CF
:102FE000032AFAD14160DFF87804006828B1DFF8DD
:102FF00074040068204600F031F8DFF86C14DFF844
:103000006C2400200860DFF8680401686FF31B413E
:1030100011430160DFF85C040168C1F3013101294B
:1030200007D10168DFF85024114041F400320260FA
:10303000016028680028FCD131BDDFF8401482B25D
:103040000A60C0F30740486001208860DFF8300460
:1030500000680028FAD00020886070472DE9F84FFA
:103060000446DFF8200401210160DFF81C14096820
:103070000029FAD0C021DFF81484DFF81464DFF8E7
:103080001494C8F80010B168890705D47168090C58
:1030900041F0F00189F8001000210163F768DFF8C2
:1030A000F85307F04070B0F1807F10D1DFF8EC03E7
:1030B000802101744FF6D801A9F810108021017009
:1030C000384600F08DF9A86BC0F3042004E0DFF867
:1030D000D0030068C0F3046000F07EF93917491C82
:1030E00008181628A8BF152004DA6FF009018842D5
:1030F000B8BF084600F01F0040F4F850A9F81800C7
:10310000C7F3C061DFF89C0381F001010160BA03DD
:10311000C7F3806181F0010181602868C0F3836199
:10312000C0F38F2020D43A0412164FF6FF7307E045
:10313000400804D11846490804BF01210120521C4F
:10314000002AF5D4012A0FDB400040F00100B0F561
:10315000803F21BF0120490041F00101102924BF17
:103160000F211846521EEDE7DFF83CA3DFF83C9331
:1031700040EA0142182100F02DF928682968C0F3BF
:10318000870001F0030140EA012000900023D9F8F4
:1031900004C0DCF804C040F2FF322C215046E04766
:1031A000E86A8204920C1C2100F014F9686A20F08D
:1031B0000332142100F00EF9286ABD4901EA000229
:1031C000102100F007F9A86AB368DB07C0F30351C8
:1031D000C0F303420BD473684FEA035C01EB2C711C
:1031E0001B0481F3040102EB237282F30402120434
:1031F00042EA015182B20A43222C24BF00F08040EF
:1032000002430C2100F0E6F80120222C03D3E86BE6
:10321000000F00F00100DFF89CB2400040F02000F9
:103220008BF808000120222C03D3E86B400F00F03C
:103230000100002240F01000202C8BF8080007D37A
:10324000A86CC10C01F44071C0F3845040EA010243
:10325000282100F0BFF80020202C03D3A86C000D1B
:1032600000F00300400040F060008BF80B000020ED
:10327000222C03D3E86BC00E00F00100C00040F028
:1032800080008BF800000020222C03D3E86B400D57
:1032900000F03F008000884940F47C40202C0880EA
:1032A000864A0AD3A86C0203810A02F47C1242EA1D
:1032B000815100F00F0041EA0032082100F08AF845
:1032C0007F4C4FF480002060B80C00F00300012810
:1032D00002D0022828D024E0E86B810321D44FF4E7
:1032E00080412160430A7749D1F8022022F08F0201
:1032F00003F080031A43C0F303331A43C1F80220DA
:10330000C0F30323D1F80120120943EA0212C1F8E5
:10331000012000F0E7000A6822F0E702104308608D
:1033200002E04FF0004020604FF4007020646649D6
:10333000E86BC00C00F0030040F030000870B80DDE
:1033400010F0030003D0022826D008D326E0012184
:10335000042000F01BFA5D48FFF76FFE22E0012019
:1033600000F03FFA07463946042000F00FFA042027
:1033700000F037FAB842FAD136683002000AFFF797
:103380005CFED9F814301B684FF060220721300E24
:1033900098474FF480602060032100E00221042060
:1033A00000F0F4F9E8694A4900F03F00087047F678
:1033B00018004849088048480068D9F80010C968D2
:1033C000022088474020C8F80000012043490860D7
:1033D000BDE8F18F5046B7E51628A8BF20387047E2
:1033E00070B53F480068C0F30460FFF7F5FF04467E
:1033F0003C48007800F01F00FFF7EEFFA0421ED00F
:1034000039493A4E00220A606FF00103324A251A08
:10341000032DA8BF022502DA9D42B8BF1D46281819
:10342000156800F01F0545F4F85535800125A042C8
:103430001560ECD11068156010680D60106870BDE3
:1034400000800C401C1300500C0068428404604251
:103450005C600C400822044300400340B03F005031
:1034600080012843000120438C21084000003901DD
:103470004820034004000940FFFFFCFC3C600C4076
:1034800084088C43101009409402224300600C40D1
:10349000A83F005056620840501300501562084083
:1034A000B81200500000204300A00C40A001001002
:1034B000FFFFFC0041A10C40DCA10C4000803F401C
:1034C00040A00C400A60084008A10C40BD378600AF
:1034D0000BB00C4070B00C402C20094094046042AA
:1034E0008813005006620840980020436C62084030
:1034F0001B4213D1094236D12AB18446B0FBF2F007
:1035000002FB10C2704700F02BBAFCD3002200234C
:1035100070470B000200002100207047904271EBC1
:10352000030CF6D370B5B1FA81F4B3FA83F52C1B12
:10353000A340C4F1200532FA05F63343A2405FF000
:103540000046E64002E05B085FEA3202841A71EB53
:10355000030524BF204629467641F4D302000B0020
:103560003000002170BD012ACFD970B5140C20D0D5
:10357000B1FA81F4B2FA82F5C4F120046419B4F10D
:103580002006D6D3B2405FF00044F440002502E0AC
:1035900052085FEA3303C61A71EB020E24BF3046AD
:1035A000714664416D41F3D302000B0020002900F5
:1035B00070BD0C46B1FBF2F102FB11452D0445EA4A
:1035C0001045B5FBF2F402FB145580B240EA054504
:1035D000B5FBF2F002FB105240EA044070BD22003D
:1035E00009480168426803689942FAD1100C40EA20
:1035F0000140704710B5044A136850681468A3422C
:103600001946F9D110BD00000820094062B38B07AC
:1036100008D0521E11F8013B00F8013B00F0248055
:103620008B07F6D1830740F0208000BF103A07D304
:1036300030B4B1E83810103AA0E83810F9D230BCF4
:10364000530724BFB1E80810A0E8081044BF51F8A0
:10365000043B40F8043BD20724BF31F8022B20F88A
:10366000022B44BF0B7803707047083A07D3B1E8C8
:103670000810083A40F8043B40F804CBF7D253074F
:10368000E4E70A000022FFF7BFBB0100002200F0C0
:103690006DB90900EFF3108072B67047EFF3108038
:1036A00062B6704730480068000C00F0070005283B
:1036B00028BF4FF0FF3070472C490A68C2F30F3221
:1036C0004BF69A139A424FF0FF3007D10868000F6B
:1036D0000B2801D104207047002070474BF6BE1123
:1036E0008A4201D1012070474BF641318A4201D113
:1036F000032070474BF620318A4208BF02207047F2
:103700001A48F8B50068050F19480068C6B2802E3F
:1037100028BF0026FFF7D0FF4FF0FF3406F10A075D
:1037200030B102281BD012D3042819D017D318E0C7
:10373000012D12D0032D06D0072D06D0082D08BF6D
:1037400006F116040DE014240BE0152409E025B160
:10375000022D08BF06F1140403E00A2401E005B9B4
:103760003C4660B2F2BD00009412005018130050A5
:10377000A010005080B5FFF79FFF012803D1FFF78D
:10378000BFFF142800DAFEE701BD0100F8B50446CA
:10379000E0070D466A4E6B4F0AD5A8B20090002391
:1037A000D6F800C0DCF804C0012200213846E0470A
:1037B000A0070AD5A8B200900123D6F800C0DCF813
:1037C00004C0022200213846E047600708D5ADB2A8
:1037D00000950223346864680C2200213846A04713
:1037E000F1BD10B5014656480068C4685548042923
:1037F00005D11D234FF0C0423421A04710BD1C232A
:103800004FF080523421A04710BD70B50546FFF738
:10381000E7FE4D4CA168401A4FF47A714843060CFC
:1038200000F0BEF82169401A48BF4042711940F6C5
:10383000B932914207D2062805DAA068E1688142D0
:1038400001D3226852B941494A68D2074FF4FA605D
:1038500016D40868C0B27D21484308E0081A3C49E4
:103860004843000C00EB9000904238BF1046C82837
:1038700001D2C82070BDB0F57A6F88BF4FF47A606E
:1038800070BD80B501210320FFF780FFFFF7A8FE80
:103890002D49886001BD10B50120FFF7A2FF012866
:1038A0001BD0274C27482468E468002301223421D8
:1038B000A04798B100F026F8FFF792FE22498B68E6
:1038C0000A68C860A2EB9202C01A214B5843000C50
:1038D0000860904238BF10460860012010BD10B546
:1038E00000210320FFF752FF0120FFF77AFF08B104
:1038F00000F008F8144CFFF773FE606000F050F819
:10390000206110BD1348006800F05EB810B5124980
:103910000A6812490968140424161B384443E41049
:1039200004EB2244120600FB00F3121609065A4368
:103930005843091604EBA222484302EBA04010BDF5
:10394000A401001000A00C40B0270020AC3F0050A4
:1039500040420F008000001090130050A41000504F
:103960007047000062F30F2262F31F4200B500BFF0
:10397000130096469446103928BFA0E80C50FAD898
:103980005FEA417C28BF0CC048BF40F8042BC90740
:1039900028BF20F8022B48BF00F8012B00BD000013
:1039A0000748084A816812780068C90352B2A0F536
:1039B0004070C9135043A1EB2010803000127047B3
:1039C000285009400C13005070B50446FFF762FE02
:1039D000451EAD41ED0F074E30680028FCD0A047D2
:1039E00001203060002D1CBFBDE87040FFF756BEBF
:1039F00070BD000000800C4020B108232822002167
:103A0000FFF716B9704720B1082330220021FEF7D6
:103A1000C7BF704738B500F0DBFF25680DB12968D6
:103A20002160FEF745FA284632BD70B504460D46C2
:103A30002668002028601EB9FEF734FA25600DE0E4
:103A4000FEF730FA00E0366831680029FBD1AE425B
:103A500003D1FEF72DFA002070BD3560FEF728FA7D
:103A6000012070BDDFF8701D10B10020087020200B
:103A700088707047F8B50546FEF714FADFF8E07B6A
:103A80000446387EE8B1401E3876C0B2C8B9082175
:103A900007F15000FDF764FE9DB1B86B6830FDF78B
:103AA0001AFCB86BDFF8341DC0680968281A07F1E2
:103AB000F006B0FBF1F13046FDF71AFC3046FDF799
:103AC000FFFB2046BDE8F240FEF7F2B938B50446E8
:103AD000207B00F00F00022802BFDFF8845B287D06
:103AE000002815D100F0E6FCA1688908A1EB900040
:103AF0006FF0704188420BDA10F1805FBCBFDFF8D5
:103B0000E01C0818A96BC96801F57A71814200DBD5
:103B1000002032BD38B5DFF84C0CDFF84C2C0168C2
:103B2000DFF83C5B02EA0104E1430160A10606D52F
:103B30004068800603D54FF4005100F060FB14F498
:103B4000602F0DD0DFF89C0CC16904F46022114392
:103B5000C16105F1A000BDE834400021FDF700BEC1
:103B600031BDF8B5FEF79EF9DFF8787C3C1D0646BE
:103B7000A06910F4602F25D0C5012D0EE80748BFBD
:103B8000002506D4A80748BF012502D4680748BF0E
:103B90000225681D40B200F0A5FFA069012105F1D2
:103BA000110291408843A06100F06CFD07EB850095
:103BB0008668300008D0206800224FF00063691D3D
:103BC000B04701E000F05EFDA06920B10021DFF800
:103BD000180CFDF7C5FD607F80070DD5256928000D
:103BE00006D0206800224FF000436FF00101A84783
:103BF000607F00F0FD006077F1BD70B501F08AF8DC
:103C0000DFF85C5ADFF8584DAB6A024690071DD4C6
:103C1000D3E90601104007D0EB62196A0843186225
:103C20004FF4804100F0EBFAA86A002849D16E6A8F
:103C3000002E46D0F068A96B884224D005F15000D0
:103C4000BDE870404FF48051FDF78ABD0BB9A86AFA
:103C5000EAE70020A862D3E906011E6A024042F0AA
:103C6000020232431A62626982436261E26822EAB6
:103C70000100E060194605F13000FFF7D6FE022191
:103C800000F0BDFAE3E7B068FFF720FFE86418B181
:103C9000E86CBDE87040EDE6D6E9060162690243D2
:103CA0006261E26841EA0200E0600020E061B06821
:103CB0002060E0690028FCD005F12400FFF7AAFE8F
:103CC000AE6270BD0020D5E6F8B506461446B76D65
:103CD0001D4607B1B847A00706D4D6E91401204015
:103CE000294008BF002807D0C6E9184506F1300072
:103CF000BDE8F240FDF7D0BBF1BD80B5FDF7EDFCAE
:103D0000DFF85C290146906BD26BBDE80840104794
:103D100010B5DFF84C49FFF76DFC2064042104F175
:103D20005000BDE81040FDF71BBD80B500F0F2FF6C
:103D3000DFF8301C084207D0BDE804404FF00051C6
:103D4000DFF8480DFDF70CBD01BD10B504294AD1BF
:103D5000DFF80C49606AA16B08B1C16805E0DFF8C3
:103D60006C0C427FD20748BF0168A1630846DFF8A8
:103D7000781C426812780A600968406800788142BD
:103D800000D0FEE7022001F098F9112001F0AAF915
:103D900001206077A06BE17E007C084204BF0E200A
:103DA00001F0A0F9A06BDFF8B81B40688268002A18
:103DB00004BFC068002804D00020C861DFF82C0CC4
:103DC000086040F2FF70DFF8282C10600020886146
:103DD000DFF8900B48610FF21100E0631920BDE895
:103DE0001040FEF793B810BD10B5044688002CD5DE
:103DF00060684068010018BF8047606881680029DA
:103E000004BFC068002814D0DFF8340C0168002912
:103E1000FAD00021016060688068010018BF804707
:103E20006068C068010018BF8047DFF8640C00F0CC
:103E300079FFDFF82C080FF21501C1634FF0005134
:103E4000BDE810405030FDF78BBC10BDF0B5044606
:103E5000880085B071D5DFF8085BDFF804680020C2
:103E6000E861DFF8180D2860707E10B10120FFF7BF
:103E7000F9FD002171800FF20510317BF06301F034
:103E8000F001317340F60A00002171603080717BCF
:103E900001F0F00141F0010171730021A768798000
:103EA00000E00F46796800291CBF0A888242F8D1D9
:103EB000787B7E6000F0F000787340F60301706A52
:103EC0008068008888421CBF40F60401884202D105
:103ED0000020306415E0208B98B104F11800002117
:103EE00041804160017B01F0F0010173417B01F0F1
:103EF000F00141F0010141737060707B00F0F0004F
:103F000070736946A06800F034FF684600F08EFFC9
:103F1000E8690028FCD00020E8610120FFF761FC7F
:103F2000012808D0787B00F0F00040F001007873A1
:103F30000FF20D00F063A068286005B0F0BD00002E
:103F4000012010B5FFF74DFC0128DFF8144708D118
:103F50000FF22900E063DFF8080A04600020206403
:103F600010BDDFF8781809683220F03400F085FBC6
:103F70002046BDE81040FDF7A3B90000FEB5064697
:103F80000C466004DFF8D85619D5FDF78BFFEE6AB2
:103F9000376AFDF78DFFB8070ED4306AB843306238
:103FA000002E1CBF7068002806D0B6F91010F0680B
:103FB00076683A460023B04724F480441AE1A0070B
:103FC00070D52F6B002F65D03E1D2020716801E059
:103FD0004968401E79B1C0B268B10A8840F603034F
:103FE0009A421CBF40F604039A42F1D1B0681822ED
:103FF0001830FFF71BFBF0690021F1613168D1B186
:1040000040F0020297F824000023012807D002287C
:1040100009D0042804BF00224FF0805306E000229C
:104020004FF0005302E000224FF08043B6F90C102D
:10403000B0683768B847E88E401C0005000DE88678
:1040400005F13000FFF7E6FCB068B6F90C2000F18E
:104050008C01B1F900309A4204BF2A7D002A19D19F
:104060008A780AB9026822B900208870FFF702FD39
:1040700010E0A96B096811F1010F0BD0DFF85C1794
:104080000968B2FBF1F16830FDF732F9B0686830C9
:10409000FDF716F9286B002824F0020401D044F043
:1040A0000204A7E0A00005F184073FD50022DFF855
:1040B000E81B3846FDF78AFFF06840F6C4118842D5
:1040C00018D10420FFF78DFB00281CBF286C0028A6
:1040D00010D0686C70B9FFF78DFA6864696C286C51
:1040E000884228BF491E081A000BF060F06800F5EE
:1040F0008D70F060287F60B10220ADF80000684646
:1041000000F010FEBDF80800DFF8D8160883002084
:1041100028770120687524F00054287E401C2876FA
:10412000002068771920FDF754FF63E095F8200020
:1041300024F0080628B1200703D5002085F82000C8
:1041400045E0200745D5002068750120A877687EE6
:1041500010B10020FFF786FC0FF2AD00DFF83C1B2A
:10416000E86300223846FDF731FF297FE87EDFF85B
:10417000847881F00101084240F6090402D101204F
:10418000E8760FE0E86CF0B1FFF734FA296CAA6C1E
:10419000401A02EB1030A864E96CB0EBC11F12D3D7
:1041A0000020A8642C80687B00F0F00040F0010043
:1041B000687300206880287B00F0F00028730020DE
:1041C00068603D6003E04FF0005100F018F834469D
:1041D00010E0A0040ED5AE6A002E1CBF7068002847
:1041E00006D0B6F91010F068766800222023B04798
:1041F00024F4005414B1214600F001F8F7BD05F194
:104200005000FDF7ADBA000038B50546880028D546
:1042100000F095FDDFF84844DFF8840AE063A07DF4
:1042200018B905F13000FDF737F9DFF8C4170020A1
:104230000860022000F0D7FE112000F0E8FE287C84
:1042400010B90E2000F0E3FE0020E083A07E40B114
:104250000020A076042104F15000BDE83440FDF7B1
:104260007FBA31BD30B58DB000F043FEDFF8340ABF
:10427000DFF8345A0168DFF8E84341F002010160D9
:1042800001A8FFF7B9FBA878DFF8201A07900023F0
:1042900001AA04F15000FEF7D8FC01A8FFF7B3FB18
:1042A0000020ADF81C0001AB2878DFF8F029099058
:1042B00019210020009004F18400FEF77EFB01A884
:1042C000FFF79AFBE878DFF8E8190790002301AAC6
:1042D00004F1A000FEF7B9FC01A8FFF794FB012050
:1042E000ADF81C0001AB6878DFF8C82909901A21E5
:1042F0000020009004F1D400FEF75FFB00230022B1
:10430000DFF8B41904F1F000FEF701FCDFF89009C2
:10431000E063FFF7D1F9012818BF002060764FF65F
:10432000FF71DFF898090180012121770021417296
:10433000E1766177E18384F820100DB030BD2DE97E
:10434000F041C74E8CB00446B07D0F4690461D46E6
:1043500018B9FFF787FF0120B075002F1CBF6760F9
:10436000B8F1000F3FD0C4F80880FDF79BFDF17D48
:10437000B9BB0121F175FDF79BFD2DB90FF6881131
:104380002CC968462CC06D46286820607821686872
:10439000E060287A207404F11800FFF777F9082309
:1043A0002422002103A8FEF701FC01208DF824003F
:1043B00003AA002104F13000FEF715FC0823242293
:1043C000002103A8FEF780FB099403AB0022DFF86D
:1043D000F01804F16800FEF79AFB20460CB0BDE827
:1043E000F081FDF765FD0020F8E738B5DFF8D45817
:1043F0000446A87D00285CD0B5F93400B5F9361024
:10440000884207D0B4F98C1002224FF0E0432046D6
:1044100000F03BF9FDF746FDE97D002938D0491E43
:10442000E975C9B2A1BBFDF743FD0020A875687D01
:1044300040B10020FFF71EFB4FF0FF3104F13000C8
:10444000FCF7C8FF04F13000FEF7E3FB04F168005D
:10445000FEF774FB05F15000FEF711FC05F1840036
:10446000FEF7C6FA05F1A000FEF709FC05F1D4003D
:10447000FEF7BEFA05F1F000FEF760FB0020A8632E
:104480002875207CA8B1BDE832400E2000F0BFBDE9
:10449000FDF70EFDA86BA04204BF0020A86304F145
:1044A0003000FEF7B6FB04F16800BDE83240FEF7CD
:1044B00045BB31BDD0B5FDF7F5FC694C617D31B12F
:1044C000DFF804180C68FDF7F3FC2046D0BDFDF7BB
:1044D000EFFCFFF78FF810F50030DFF8F02741F11F
:1044E0000001A2FB006702FB01772169002032185E
:1044F00047EB01031846D0BD2DE9F84F04460E46A0
:1045000092469B46FDF7CEFC554D0246B5F9340068
:10451000B5F93610401A0005000D08286FF00109A2
:1045200044DAA88E401C0005000DA886B5F93400B9
:10453000ADF800001046FDF7BBFCBDF90000DFF848
:104540009017821000EB5272D210A0EBC20028220A
:1045500002FB001804F16800FCF7BDFE08F1040737
:1045600020217E6087F80EA0C7F800B008F1180679
:10457000BDF80000B881BC60DDE90A23DFF854070C
:1045800010401940C6E900010020307304F18C0688
:10459000686A40F6FF7490B1FDF784FC074600F0AE
:1045A00067F838B900F05EF8384600E01046FDF7CD
:1045B0007FFC09E0BDF800003080384644E000F0A0
:1045C00057F818B900F04EF8484647E0BDF800002B
:1045D0003080FDF767FC0021B1706A7DE97F1142F0
:1045E00008D0012185F820100021E9772977297E5C
:1045F000491C2976FDF75CFCA86A68BB687D18B188
:104600001920FDF7E6FC27E0687F28BBFDF74AFC90
:104610000646A87F20B100F035F80120A8761BE0FF
:104620007868FFF753FAE86488B1E86CA96BC96849
:10463000401ADFF8A416096805F1F00400F01DF82F
:104640002046FCF73DFE3046FDF732FC04E000F06A
:1046500019F80421FFF7D3FDBDF90000BDE8F28F82
:1046600084210020A88E20180005000DA886704720
:10467000414605F12400FFF7D8B9B0FBF1F120461F
:10468000FCF736BE3046FDF713BCF8B506460F46BC
:1046900014461D46FCF7CAFFDFF82826B2F934306D
:1046A000DB1BB2F936301FD5BB42BEBFB2F9343086
:1046B000B2F9362093421FDABB1007EB5373DB10BD
:1046C000A7EBC301DFF80826282303FB01270722F5
:1046D00097F82410114214D0FCF7AEFF072197F889
:1046E00024000842FBD109E0BB42A2BFB2F934303A
:1046F000B2F936209342DFDBFCF79EFF0220002157
:10470000F4BD7A68DFF8D4158A4202D07A68B265BF
:104710007960C6E91445FCF78FFF4FF0FF3106F1D1
:104720003000FCF757FED6E91801F4BDDCB50446AD
:10473000180008BFDFF8A435DDE90667CDE900679A
:104740002046FFF7D9FE002803D500204FF0004196
:10475000DCBD0146204602B0BDE8D04002224FF049
:10476000E04392E70810044020000E0070B500F00E
:104770002FF90546DFF84C650120307704F18C01F4
:10478000B6F93400B1F90020801A0CD5B6F936001C
:10479000B1F900209042BEBFB6F93400B6F9362018
:1047A000904210DB05E0B1F90000B6F936209042E6
:1047B00009D104F16800FCF78EFD0020FFF75AF9DB
:1047C0000120F07703E00120887000203075284632
:1047D000BDE87040FDF76CBB0062084024B90000E2
:1047E000F6FFFF1F602100202422002001E042F09C
:1047F00002022DE9F047DFF8CC4482B0606A0090F5
:104800008A46002603271546FDF74CFB1AF1010FD7
:1048100005F0010881460CD1A06ADFF8C414002815
:1048200019BFA06AB0F910A0E08E00F1010A81F86A
:1048300021600FFA8AF2911002EB5171C910A2EBBC
:10484000C101DFF88C04282202FB010AA06A82451C
:1048500005F0020527D115B1606A0090666201215A
:104860009AF8240001FA08F108438AF82400FCF7BA
:10487000DDFE0646B8F1000F14BFDFF86804DFF86C
:10488000680400F04FFA00F0BEF925B906E000F028
:104890006CF800F074F800980028F8D13046FCF766
:1048A000CBFE832759E00098504504F1F0081BD156
:1048B0004046FCF710FD002D11BF6662606A00687B
:1048C000606200F0A0F900F04FF800F058F800988E
:1048D000002818BF002DF6D183272FE0012683275B
:1048E00000F042F800F04BF8009810B30068504513
:1048F00019D14046FCF7EFFC00980068009A0021AF
:104900001160009000F07FF9002DE7D1009890F839
:104910002400009940F0040081F82400832700F06F
:104920002BF800F02CF8002EDAD1009800680090E7
:10493000DAE7832F1CBF4846FDF7BAFA607F10B153
:1049400000F022F809E0DFF8A403E06300F01CF8AF
:10495000607D10B9DFF84803E0633846BDE8F687AC
:104960000010044002000040009890F824000099D4
:1049700040F0040081F824006846FFF74BB8014678
:1049800004F13000FFF751B8022104F15000FCF7A8
:10499000E7BE10B50FF270311CC91CC010BD38B590
:1049A00000F016F80546C748407D58B1204600F093
:1049B000B9F9044600F046F8E0B201280CBF8120A6
:1049C000022032BD00F03EF8012032BD64210020FB
:1049D0000446FDF767BA0A46BA49896B884201D096
:1049E000032070470FE00000D02108405100070667
:1049F00000000460001004400A46B249896B8842F6
:104A000001D00320704700211046C8E770B5AD49BA
:104A10008A6B90426FF07F0410D1487D70B1FDF732
:104A200041FA0546B24800F07DF9064600F00AF862
:104A3000F0B2012802D13002001670BD204670BDD0
:104A40001C1004402846FDF733BA70B50E461546D3
:104A5000FDF728FA83249B491EB1022E0ED005D300
:104A60000FE08A6A42B1896A098A03E0097F19B9AD
:104A70009B49098B298005E0802403E0497D29704A
:104A800000E00324FDF714FA204670BDD421002075
:104A9000010007068A1001EB5272D210A1EBC2018D
:104AA0008B48282202FB01008068704710B58549B9
:104AB000097FA1B9028B012303FA01F422420AD033
:104AC000A243028301F10C048A480268A3401A43FE
:104AD0000260084610BD491C49B20F29ECDB6FF09B
:104AE000010010BD38B5FFF773FF74494A7A5207C9
:104AF00002D50B7A9C4210D001220B8802FA04F5F1
:104B00002B430B800C347B490B68A24023EA020242
:104B10000A60096809B96B4A1175BDE83240FDF7B2
:104B2000C7B92DE9F041674D0E46A96B88429846FA
:104B300018BF032020D10A2131807260684C606068
:104B400026602046FFF7B2FF070014D4B77000219B
:104B50003046FFF724FF022818BF012805D1384648
:104B6000FFF7C0FF6FF0010705E004EB870040F896
:104B70000C8C012028753846BDE8F08101010E0437
:104B80002DE9F0474F4E8046B06B80450D4692466A
:104B900018BF032035D1524F3846FFF787FF044630
:104BA000002C2DD4FDF77EF98146200200F47060C0
:104BB00005434FF6FC7028404F4908433860386879
:104BC00000F0B0F8012814D1E80409D500F05AF833
:104BD00087F8204097F8210040F0040087F8210072
:104BE00007EB8400C7F8048040F80CAC0120307556
:104BF00004E02046FFF776FF6FF0010400F003F8B1
:104C00002046BDE8F0874846FDF752B90A462D49CF
:104C1000896B884201D0032070474FF6FC7010402A
:104C2000364A00211043BAE670B50C462549896B17
:104C3000884201D0032070BD314841784A0707D52A
:104C400003789C4204D101F0FB0141700021017006
:104C5000FDF728F905462046FFF744FF4FF6FC70A4
:104C600000EA042040F0816040F0010000F05AF8B2
:104C7000064600F007F8FFF7E5FE012E0CBF812085
:104C8000022070BD1F480122016804F10C039A4004
:104C90009143016070470000FB3B00002B3D00008A
:104CA0004B3D0000002009402CB20000FB3C0000FE
:104CB000633B0000153B0000113D000078210020FF
:104CC000C53C0000842100200430044000093D0060
:104CD00098110020F1EFFF9F24B90000C93C0000AB
:104CE0006021002001000204010001047D3F00005A
:104CF000010003040C100440010003060100040637
:104D00008021002008100440FFFFFFFFC4090000BD
:104D10000100000048490868C2430A600A6802426C
:104D2000FAD1704745490A68002AFCD1CA61086077
:104D3000C8690028FCD00020C86148687047404816
:104D4000016821F0020141F40071016003213D4836
:104D5000816041F2300141610121C1605021416116
:104D60000121C1604FF4CA6141610121C16001604C
:104D7000704710B5028840F602039A4204D043F609
:104D800007039A4202D004E0C07B03E090F82400BD
:104D900000E000202C4B2D4C1A680A6005280AD030
:104DA000062810D00A2816D00C281CD00F2822D094
:104DB0001E2828D02FE02068A269236B5B015B09C5
:104DC00043F020532EE06068E269636B5B015B098E
:104DD00043F0405326E0A068226AA36B5B015B09A5
:104DE00043F0A0431EE0E068626AE36B5B015B098D
:104DF00043F0C04316E02069A26A236C5B015B09A3
:104E000043F0F0430EE06069E26A636C5B015B09AA
:104E100043F0704306E09868DA685B6B5B015B09FE
:104E200043F08053CB608A60486010BD0146102279
:104E30000748FEF7EBBB00001010044000100440D0
:104E400000000460004104404C130050C4100050A6
:104E50001800002120B1082324220021FDF734BED0
:104E6000704710B5DFF8244782B001200090092375
:104E70002468DFF81C0764684FF400720021A04723
:104E800013BD10B5DFF80447DFF804072468E468B1
:104E9000002301223421A04700B10120C0B210BD7F
:104EA000DFF8F00680687047DFF8E816401890F8E1
:104EB000ED0070470022022904D1012806D140F2FA
:104EC000EE2203E0012808BF4FF47A7210467047C3
:104ED000DFF8C006D0F8DC007047DFF8B80690F8BD
:104EE000E60028B1DFF8B0064068010018BF0047AF
:104EF00070472DE9F041DFF89C4604F1E1058AB0E6
:104F0000A87900285CD10120A871DFF88C66DFF851
:104F10008C86307B687101A8FFF79CFF002006900B
:104F2000ADF81400079001AB00220FF2F14104F13B
:104F30000C00FDF7ECFD01AB00220FF2A95104F1CA
:104F40003000FDF7E4FD01AB00220FF2D54104F182
:104F50005400FDF7DCFDB16801208847DFF840060A
:104F60000078D8F80400C0F38157707B20B1032F7C
:104F700002D10120287003E0032F18BF022F11D1A6
:104F8000022000F09AF8032FDFF818160CBF4FF438
:104F90007A7042F2107000F069FA04F15400FCF7E4
:104FA0008FF906E0012F04D100F067FAA047FFF760
:104FB00058FFD8F8000040075CBF002000F07DF8E3
:104FC0000AB0BDE8F08110B508B1140001D102208B
:104FD00010BD8160C26003610146DFF8B80500F0D2
:104FE0002FFB002010BD10B50446FCF75BFFDFF877
:104FF000A415621892F8E8305B1E82F8E830DBB244
:1050000023B98A680123A3409A438A6066E02DE9A8
:10501000F0410546FCF746FF8046DFF87815681832
:1050200090F8ED20521E80F8ED20D2B2002A3FD138
:105030000FF2AC50DFF8704500EB85052E786F88D5
:10504000300615D52168096A384688472168896A7B
:10505000384688472168096B38468847DFF84C1581
:1050600001200860DFF8480500688007FAD512E0E3
:10507000700606D501EB87010020D1F800118847A2
:1050800009E021688969384688472168496B3846B4
:1050900088470228F9D106F03F003F2818BFFFF7E4
:1050A000B6FF687800F03F003F2818BFFFF7AFFF5A
:1050B0004046BDE8F041FCF7FBBE10B50446FCF7E6
:1050C000F1FEDFF8D0148A680123A3401A438A60F6
:1050D000611891F8E820521C81F8E820BDE81040E2
:1050E000FCF7E6BEF8B50646FCF7DCFE0446DFF842
:1050F000A454701990F8ED104A1C002980F8ED2096
:1051000039D10FF2DC4000EB8607387800F03F0021
:105110003F2818BFFFF7E6FF787800F03F003F28F0
:1051200018BFFFF7DFFF7E883878DFF87C74010650
:105130000ED53968C969304688473968496A3046AA
:1051400088473968C96A3046884700F019F812E084
:10515000400606D505EB86010120D1F800118847ED
:1051600009E039684969304688473968496B3046F3
:1051700088470128F9D12046BDE8F240FCF798BEE7
:10518000DFF8281401200860DFF824040068800795
:10519000FAD570472DE9F04F002483B04FF0000A94
:1051A0000128D04618BF012664D1DFF8E893D9F86A
:1051B000DC0001285DD10220C9F8DC00FCF784FB8B
:1051C0000090012000F066F9060054D1FCF72EFA99
:1051D000DFF8E81301900C600120FEF702FB0128C4
:1051E00004D1002000F0ACF94FF0010ADFF8C4133D
:1051F000DFF8C4030C6000681120FFF755FE08B10A
:105200004FF001081020FFF74FFE08B148F00208E8
:105210000F20FFF749FE08B148F004080B20FFF704
:1052200043FEDFF8846320B13168096B4FF480607E
:1052300088470A20FFF738FE20B13168096B4FF428
:1052400081608847DFF86413DFF87473DFF874B3A4
:105250000120086048F02000316889698847DFF83C
:1052600068130120086099F80800C00707D50124D9
:1052700016E0042673E00120C9F8DC006CE0584613
:1052800000F000FA0546042DF9D0012D04D1326A50
:10529000526803215846904738688008800038607B
:1052A000002000F0F7F9C44800683068806B804740
:1052B00054B9012D04D1326A5268012158469047F1
:1052C000386840F0030038600120BA490860404661
:1052D0003168496988470B20FFF7E6FD20B1316846
:1052E000C96A4FF4806088470A20FFF7DDFD20B1CE
:1052F0003168C96A4FF481608847AC490120086071
:105300000020B14908600320C9F8DC003168496B0E
:10531000404688470128F9D1042000F0BBF8A7498E
:1053200001200860A4480068A84800688006FBD5F2
:10533000BAF1000F1CBF012000F002F9FEF7AEF930
:10534000082000F0A7F806460120C9F8DC00019803
:10535000FCF772F900F080FA0098FCF7BDFA3046CD
:10536000BDE8FE8F38B50446FCF79CFD0546214696
:10537000884800F079F928464BE030B50024012830
:105380008BB004D021D303281DD018D31DE001A871
:10539000FFF760FD7F4D8E490694ADF814400794E9
:1053A00001AB012205F17800FDF7B1FB0094002369
:1053B000884A2C2105F19C00FDF7FFFA05E000F07A
:1053C000D5FA044601E000F087FB20460BB030BD63
:1053D000FEF71BBA38B5FCF765FD05466D4890F839
:1053E000E000012410B1FFF74CFD04462846FCF70D
:1053F0005FFD204632BD38B5FCF754FD654D0446CF
:1054000095F8E00020B1FEF746FA002085F8E000AC
:105410002046BDE83240FCF74BBD0000704700005D
:1054200010B582B00420FEF7DCF9022818BF03286B
:1054300008D100F022F8A047FFF713FDBDE81640A1
:105440000220D0E5644857490068524CC0F38150AF
:1054500003280CBF4FF47A7041F2883000F006F850
:1054600004F15400BDE81640FBF72ABF0968B0FB01
:10547000F1F104F15400FBF73BBF444C03200090D2
:105480001C232468424864684FF040520021704752
:105490000020704770B504463E4E304600F0C6F816
:1054A000002598B9304600F0C7F80646B06820429B
:1054B00007D03269F3680021204698470546012D40
:1054C00005D0304600F0BAF80600EFD1284670BD8E
:1054D000424901280CBF40F2FF7000200860002004
:1054E0007047000070B5FCF7DDFC2A4E2A4D0446DB
:1054F00096F8E00028B1FEF7CEF968B1002086F8F2
:10550000E0000220AD68A84706461020FFF7C2FF62
:105510008EB10320A8470EE0224909683220B0FB73
:10552000F1F101B9012106F13000FBF7E1FE06F1CE
:105530003000FBF7C5FE2046BDE87040FCF7B8BC64
:1055400038B501281ED1FEF74CF901281CD0FEF712
:1055500098F9104C1349012084F8E00032200968C2
:10556000B0FBF1F505B9012504F13000FBF7B3FEFE
:10557000294604F13000FBF7BBFE04F13000FBF7D5
:105580009FFE01E0FEF7ABF9002032BDA401001040
:1055900000A00C40700F0020A8B10000B03F0050E8
:1055A000D127002024B90000B8010010282008608D
:1055B00028200840000222432C2009400C400940CA
:1055C0002422084000400340800104431410094095
:1055D000195C0000C5590000B43F00500000046091
:1055E0008F3F00008F3F01008F3F02008F3F03007D
:1055F000903F00018F3F0101903F0002903F000368
:105600008F3F01048F3F00058F1208048F3F000475
:105610008F3F0006513F00007F3F01003F3F0400E5
:105620003F3F02003F3F01007F3F0200006800282B
:105630000CBF012000207047006870470068704769
:1056400038B504460D4600F0B9FB002129606168B9
:1056500069606168002914BF0D6025606560FFE71F
:10566000BDE8324000F0ACBB0B684A68002B0CBFB1
:1056700042605A604A680968002A0CBF01601160E4
:10568000704700000068010701D50420704700F052
:10569000030070472DE9F84F04469A48DFF8688206
:1056A00000689A4E800705D50820B0719848C8F860
:1056B0000000CFE0FEF774F9814696480768381776
:1056C000002500F1010AB80208D4C9F13E00C0105B
:1056D0000928A8BF08208245B8BF824607F040705D
:1056E000B0F1807F0BD18C480068C0F30420FDF737
:1056F00073FE834688480068C0F304600AE0874868
:105700000068C0F30460FDF767FE834684480068C4
:10571000C0F30440FDF760FE0AEB0B011629A8BF99
:10572000152104DA6FF009029142B8BF114601F069
:105730001F027C4B42F4F8521A807B4A126812F026
:10574000030F18BF0125520748BF45F002050CB1F1
:1057500045F0040596F90720A9EB0202052A02DAB2
:10576000B27995425CD0A9F10F030024002B4FF0D1
:10577000000C05F00402DFF8B4E124D403EB0313BA
:105780001C12082C28BF0724A446BCF1070F28BF11
:105790004FF0060C0EEB8C0A5EF82CC0DAF804A071
:1057A000AAEB0C0A5FFA8AFC12B1CAF3072BDC449D
:1057B0005FEA857B44BFCAF3074BDC445FEAC57BE5
:1057C00048BF0CEB1A6C5EF824E05FFA8EFA12B157
:1057D000CEF307229244AA0744BFCEF30742924475
:1057E000EA07A3EB042248BF0AEB1E6A401A02FB39
:1057F0000CF280320128B8BF01203423F9B258439B
:105800000AEB12224843B0FBF2F0B0F5803F28BF0C
:105810004FF6FF7009F30709B08086F80790B5715D
:1058200043480068B188306000201F2904D21F213E
:10583000B18004E04908401CB1F5007FFAD20F396D
:10584000090940EAC1003B490843C8F800000020AC
:10585000C8F80400BDE8F18F10B53748006884B27D
:1058600024B3FEF79DF8294991F90720904205DA03
:105870006FF07F029042B8BF1046C871888884429A
:1058800001D28C8010BD2A4A12680B68D21A921C71
:10589000202A28BF1F22231A520823FA02F42018B4
:1058A000B0F5803F28BF4FF6FF70888010BD2348B9
:1058B000006800B9704710B521498A6802F040635A
:1058C000B3F1406F1DD04B689B071AD40D4B1C6879
:1058D0000968C1F303511C31090114F0050F05D00B
:1058E00088420ED224F00500186010BD814208D213
:1058F000100158BF44F00104500158BF44F00404A3
:105900001C6010BD0000094030100940C427002071
:10591000FDFDA400B43F005088130050B8120050A1
:105920003C1100506E620840242208409C13005035
:105930000820094000E7A48034100940285009409D
:10594000AC3F005010B50C18FDF7A4FE401E80417E
:10595000C00FDFF82C140A68002AFCD0246801224A
:105960000A6008B1FDF79AFE204610BD38B5DFF891
:105970001444DFF814142078897B002508430AD0EA
:10598000FCF790FAA178002906BF0121A17001253A
:10599000FCF78EFA0DB1002032BD0220FFF78DFB1F
:1059A0000E20FFF79FFBDFF8E403016809B1012037
:1059B00032BDDFF8DC23402111600121C1610020EC
:1059C000607032BDF8B5DFF8C803002101604821DE
:1059D000C160DFF8C00300F1D804A17A002978D0B3
:1059E0000129DFF8B4232BD110684BF2F52148438D
:1059F000050ADFF8A8030068C0F38140012806D13A
:105A0000FDF7CEFFFDF782FF684305EB9055607B05
:105A100010B10020607306E0DFF884030068000224
:105A200015EB10204508DFF87C030560290C416068
:105A300001218160D448807B002848D0052047E0C0
:105A4000022908D11568284600F008F9B5F5C06F9D
:105A50003DD008203CE003293BD1116800F1B80596
:105A6000A1F5C0612868E961002848BF40420029CB
:105A700048BF49428842A8BF002027DACA4E68685A
:105A8000CA4F80B200900823D6F800C0DCF804C0EA
:105A90004FF47F4230213846E047A86880B200903A
:105AA0001223D6F800C0DCF804C04FF4F802042139
:105AB0003846E047A86980B200900A2335686D68CF
:105AC0004FF4406220213846A847012020700B2067
:105AD0002073BDE8F14000BF2DE9F843DFF8B48240
:105AE000B34EDFF8C892B34CB34FA94808F1E105B3
:105AF000E9784A1E0B2A63D8DFE802F00626374E03
:105B000063374E63374E6B763168096820208847CB
:105B10000F20E060072341F61D5020614FF4C07252
:105B20000220009000217468D4F804C04846E04781
:105B30007668F66807234FF4C07200214846B047E4
:105B400001203860022048E00120E0612878002828
:105B50001DBF0020386103200620E870032020606C
:105B6000002078607868800738D470684668E878E4
:105B7000032805D1022000F048F8B047042008E0CF
:105B8000002000F042F8B047E87806280CBF072054
:105B90000A20E87001201AE0042903D12021A16124
:105BA000012105E00122A2610A290CBF0321022183
:105BB0006970002121600821C1600160012020601E
:105BC00021E005290CBF06200920E870002078603C
:105BD00004E00020386078600C20E87008F178005C
:105BE000BDE8F243FBF76CBB00210160012067496F
:105BF00008600E20FFF70BFA0220FFF7F4F90120EE
:105C0000E8700020A870BDE8F183009005236022B1
:105C100000214846704700005E49674891F8E4104B
:105C2000891E0A2919D8DFE801F0060A0E180A0EA3
:105C3000180A0E18120001688907FCD50DE04168AA
:105C40008907FCD409E041688907FCD505E00168B3
:105C50008907FCD441688907FCD43DE7F8B50746BD
:105C6000524C30212046FFF76DFE4A4E06F1B80532
:105C7000C0F30720686004212046FFF763FEC0F3ED
:105C80008440A86020212046FFF75CFEC0F38120FD
:105C9000A861B7F5C060286002D186F8D800F1BDD0
:105CA000296996F8D8202AB96A68A968EA60E86183
:105CB000AA696A61E86900284CBF6FF001020222FC
:105CC00000EB40001018421000EB927001EBA000B6
:105CD0006968E960012810DA6A69032A04D115307D
:105CE00001281DDA01201BE00B300128B8BF01207C
:105CF000491E48BF0021E96007E01F2812DB6A69DE
:105D00002AB915381F28A8BF1E20032109E00B3827
:105D10001F28A8BF1E20491C4029A8BF3F21E960B9
:105D200000216961286108231F4EE86880B2009055
:105D30004FF47F4237687F6830212046B847012002
:105D40000090112337687F684FF400320421204609
:105D5000B847286980B20090122337687F684FF4F3
:105D6000F80204212046B847686980B200900A23EF
:105D70002046346864684FF440622021A047F1BD9A
:105D800000800C4051100020A8B1000004800C409D
:105D90002C500C40700F002008400C40B43F0050C5
:105DA000102009403C600C40A401001000A00C40F1
:105DB000A001001000400C4034600C40FCF772B8A9
:105DC000FCF776B820B108232C220021FCF751BE45
:105DD000704720B108233C220021FCF75EBF7047CA
:105DE00080B5FBF771FDADF80000FCF75BF8ADF88E
:105DF0000200009802BD01B5BDF80200FCF758F89A
:105E0000BDF80000BDE80240FBF766BD38B5DFF81D
:105E10009408DFF89418DFF8944840084000091A05
:105E20002161E060034602E0002523F8025B0D18C3
:105E3000AB42F9D38B0800EB8303002223F8042C38
:105E4000E82220F8E82B4FF6FC721140EC39018073
:105E50006060002000F004F8A060E068606031BD80
:105E6000F8B500240025061D16F003001CBF311DE7
:105E70000E1AFFF7B5FFDFF83418B6B20860112E1E
:105E8000B4BF4F688F6839880B0403D581F4004193
:105E9000002519E0A5B123883A88134423809BB2DA
:105EA000B34211D327461946B7B1891B89B20429D9
:105EB000A7BFF15346F40041398841F4004109E09D
:105EC000B142F1DA01253C46CF1939880029DBD1EE
:105ED000002701E027F8041BFFF78DFF3846F2BDCD
:105EE00010B500F049F8DFF8C417221F08601388C6
:105EF0005B045B0C13804B689A4238BF4A60BDE874
:105F0000104078E770B500F037F80021DFF8A057AF
:105F10000C2202FB01F6725942B1944203D1FFF701
:105F20006AFF701970BD491C0829F1D320E070B5D3
:105F300000F022F8054600200C22DFF8741702FB5F
:105F40000016316849B90020B06034600022FCF7C7
:105F500032FE706018B900F03FFC8C4204D1284634
:105F6000FFF749FF304670BD401C0828E5D328469E
:105F7000FFF741FF002070BD044631E738B5FFF759
:105F8000FBFF0025DFF82C170C2202FB05121288FC
:105F900042B1944203D1FFF72EFFE8B232BD6D1C2F
:105FA0000B2DF1D3FFF727FFFF2032BD10B50446BC
:105FB0002088FFF7E3FFFF2800D172E1DFF8F41635
:105FC0000C2202FB00108168080002D16FF0010072
:105FD00010BD2046BDE81040084702460FF244704D
:105FE000104710B500200C21DFF8C426002401FB67
:105FF00000F3401C9C509B1808289C60F7D300209D
:10600000DFF8B026002301FB0024401C0B2823806E
:10601000F9D3082010800FF2F5609060BDE81040C1
:10602000F4E670B590B0FBF74FFC04466846FFF706
:10603000D0FE0520069000224FF46170089069465A
:106040004FF001100490DFF870060590DFF86C0641
:10605000FCF72DFE050006D0FFF7C2FE06462846D7
:10606000FFF765FF08B900F0B7FB3046FFF7C3FE46
