:20101000004C002055B70000C1D70000C1D70000C1D70000C1D70000C1D70000C1D70000B8
:1C103000C1D70000C1D70000C1D70000C1D70000C1D70000C1D7000075DD0000C2
:20104C0030B5ADF1540D1390139818B9B0480DF003F904E01398AE491DC881E81D00AD48AA
:20106C00007858B1AC480068002105F0DDFF08B90920E0E2A948006804F076FCA8480078C2
:20108C00B8B9A8480DF01AF9A748A64900680860A648006850B1A648006838B1A348A549B6
:2010AC0000680860A248BB49006808609C4901200870BA48B84900680860B9481C220021E5
:2010CC0008F080F8B64943F605000880B5496FF04F000870B449087820F00F000870B3489C
:2010EC00B249007820F00F0040F003000870B049087840F001000870AD49087840F00800D7
:20110C000870AB49087820F010000870A948A949007820F00F0040F004000870A64944F6F0
:20112C002060086001208DF8500000208DF8510000208DF85200A1490020087075E00CF005
:20114C00C5FF10B90CF036FE10B100208DF8500001208DF8510081E00CF0B8FF00287DD18F
:20116C000CF028FE002879D101208DF8500001208DF8510072E00CF0A9FF00286ED10CF089
:20118C0019FE00286AD10CF009FE002866D101208DF8500001208DF851005FE00BF0BCFA8A
:2011AC0008285BD100208DF8500001208DF8510054E00BF0B1FA052850D100208DF85000BE
:2011CC0001208DF8510049E00BF0A6FA082845D100208DF8500001208DF851003EE00CF0FC
:2011EC0075FF00283AD10CF0E5FD002836D101208DF8500001208DF851002FE00BF08CFAB2
:20120C000C2807D00BF088FA0D2803D00BF084FA0E2823D101208DF8500001208DF85100A2
:20122C001CE000208DF8510018E0394800780728F7D802A151F820008746C0464B11000086
:20124C006511000083110000BF110000EB110000A9110000D5110000091200009DF851000B
:20126C0040B92D48006818B12B48006809F062F90220E0E100208DF8530028E024499DF8AF
:20128C005330A24A0978980000EB4310105C814218D19DF853309D4A9D49980000EB4310A9
:2012AC00801808609DF853209A49900000EB4210085818B901208DF852000EE03F490120AA
:2012CC0008700AE09DF85300401C8DF8530092489DF8531000788842D0DC8D48006840B98E
:2012EC000D48006818B10C48006809F023F90220A1E19DF85000F8B185480068874980686C
:20130C003CC83CC11CC81CC10DC881E80D001CE0F01E002072390020301E00202C1E0020E7
:20132C0075390020B01D002080390020F41E0020F81E0020C41D00207548006877498068D7
:20134C003CC83CC11DC881E81D0071480068BB49C0681CC81CC10DC881E80D006C480068A0
:20136C00B74940681DC881E81D0069480068B54980693CC83CC13CC83CC11DC881E81D00E1
:20138C009DF85200E0B1624800680169AE4809F011F81EE0C81D0020281E0020FC1E0020B2
:2013AC005C1D00206D1D0020681D0020691D00206C1D0020731D0020741D002074390020BC
:2013CC0053480068A04940693CC83CC11DC881E81D009E48007810B19949052008709C487E
:2013EC0097494E4AB54B02F0ABF8B549086099490020088098490020086098490020086012
:20140C009749087820F00F0008709549087820F0100008709249087820F0600008709049B7
:20142C00087820F0800008708E488E49007820F00F0040F0010008708A49087820F0F000D8
:20144C0008708949087820F0010008708649087820F0020008708449087820F0040008707B
:20146C008149087840F0080008707F49087820F0100008707C49087820F0400008707A49B6
:20148C00087820F0800008707849087820F0010008707649087820F00200087073490878E9
:2014AC0040F0080008707149087820F0100008706E49087820F0200008706C49087820F07A
:2014CC00400008706949087820F0800008706849002008606749882008807A480078F8B112
:2014EC0066486549086066486549007820F03F0040F01000087063496FF0030008705A4918
:20150C00087820F0200008701DE0C046D03100207C390020E431002087240100481C002039
:20152C0059485549086056485549007820F03F0040F0080008705349002008704A490878FE
:20154C0040F02000087051485049007820F0F80040F0400008704A49088820F4F860088006
:20156C004B49087820F0010008704A4801784848007861F34500464908704549088820F4DD
:20158C00F860088044484449007820F0F80040F00800087041484149007820F00F0040F03C
:2015AC00010008703D49087820F0100008703B49087820F0600008703849087820F080008B
:2015CC00087037490020086037483649086038483649086038483749086002204FF0E241C6
:2015EC008DE80300364815490068002200230BF0B7FD02A80CF0EEFD0BA80CF04FFD324829
:20160C00006880B9002002A90BAA0AF0EBFF2E4908602D48006808B903200CE02A48006853
:20162C0008F088FF03E02848006808F083FF274801210170002015B030BDC046381E00209A
:20164C00E01E0020E81B0020DC1C002076390020B8160020EA1B0020EC1B0020F01B0020F1
:20166C00F41B0020F51B0020F61B0020F71B0020FC1B0020001C0020F81B00204E905500C3
:20168C00021C0020061C0020DE510B93031C0020041C002070390020051C0020071C002025
:2016AC00081C00200C1C0020D4350020101C0020801F0020141C00204C1F0020B01D002096
:2016CC002C1E002074390020301E0020723900202DE9F04FDFF860B30F460446F80BADF10F
:2016EC00140D80F0F181DFF84C83B80F80F0A681B80880F09381DFF83883F80A80F0F5801A
:20170C00380B80F0CD80380907D2F80FC0F00E8227F0804708F0CAFC08E20DF017FA814601
:20172C000BF014FE002800F0B58008200DF05EF8002840F0AF8080200DF058F8002840F0FC
:20174C00A98004A806F064FC012803D10498002800F0A0805846C9300078002840F09A8000
:20176C0000240125E0B20CF0BDFD48B1867A3EB1857290F9090005FA00F0C0B20AF090FC73
:20178C00641C032CEED344460320207504F1B4000DF0D8F948460DF0B1F9C9480026324630
:2017AC000168066050F8081CC64940F8086C04F138000DF0D1F930460BF03CFF0CF060FD2E
:2017CC00A168401A010BE069C1F1FF3282422CBF08444FF0FF30E06194F8200020B12069B2
:2017EC00E169B1EBC02F25D90BF084FF314600B12946081C1BD0D14840F609010180468046
:20180C00417B05F00F0221F00F010A434273017B06F00F0321F00F0143EA01020273314616
:20182C0041600CF077FE418811F4406FFBD084F82050E6610AF0D6FAC1483146066002203D
:20184C000BF072FD02200AF0C9FD112005F0DAFD207818B9606848300DF088F9B948007893
:20186C0010B90E2005F0CEFD94F8210020B184F8216005200AF0B2FDB348A0612675B4F918
:20188C008C00B4F98E10884214BF0220072007F0D1FA02E048460DF031F927F0080739E7E0
:2018AC004446201D05680AF0DFFB38B12846ED696FF4807100224FF00073A847E06848B10F
:2018CC000CF0DEFCE2686168801AC860000BC8600026E6609D4904F1380000220DF03CF94B
:2018EC0027F400670220207514E70DF02FF906460BF02CFD4446216F0028884600F088800B
:20190C00002900F085809249042504F13800002225750DF021F930460DF0F0F804F1B40095
:20192C000DF010F90CF0ACFCE060D8F810006060D8F81000416AC90803D3036A29460022E1
:20194C009847012009F052F982480CF0E3FD65684FF0010985F81590606808F037F8D5F89D
:20196C0008A040F60A02D01F564600F1010C00E01E46736833B119888A4203D0884218BF04
:20198C008C45F5D100217160727B09F00F0322F00F0213437373D8F80C201288904225D0FE
:2019AC006046904222D02C8E0CB3696305F13002518095F83C0001F00F0320F00F00034342
:2019CC0085F83C3095F83D0009F00F0420F00F0044EA000385F83D307260707B01F00F0441
:2019EC0020F00F0044EA0001717300E0E1605046694605F013F968460CF06CFD0CF068FCCF
:201A0C0050460CF087FD514648460BF08DFC02E030460DF073F827F4806787E003F006FEDB
:201A2C0040467030006808B927F002077EE0C046200D0020280D0020280E00200DF086F854
:201A4C00814604200BF030F9C0B1207DB0B14046006898B1256906460CF012FC801B2061C5
:201A6C00000B2061A84202D240194008206140F6C41181422CBFB0F5967F216148460DF06E
:201A8C003DF80AF0F1FA88B1E56920466FF4807100224FF00073A84740466830006800286E
:201AAC0008BF47F0020701D008F000FB2046A46900214FF080630A46A04727F0005735E0DF
:201ACC001410044019A700000DF040F822490E6846B306F1280106C90A234FF0E0450B40F8
:201AEC00154008BF002B1DD106F1280191E8300006F1280393E8060006F12803AA43A14346
:201B0C0083E806000CF0FAFFB16869B1002D08BF002C09D030692246B6F93C10B4682B469E
:201B2C00A04701E00CF0EAFF27F480471FB1584639460DF023F805B0BDE8F08F801E00206E
:201B4C00000004603623010049630000A5770000E1D6000001010E04A80D00202DE9F04FFE
:201B6C0009AFADF13C0D08900A92388809911E46ADF81800101C08BF002000F07581017899
:201B8C0000274FF0010B401C4FF0FF39B846DA460A9061E1252940F056810178401C0A9036
:201BAC002D2918BFADF8068004D10178ADF806B0401C0A9030291CBF4246434604D101788F
:201BCC00401C5A465B460A902A29CDF800804D4617D1049330680A9BCDF80890C01C20F092
:201BEC000300001D306050F8044C1978002C009403F101000A9018D5ADF806A0644200943F
:201C0C0013E044460AE0600000EBC4004018A0F130040A9801780094401C0A90302901DB4B
:201C2C003A29F0DBCDF8089004932E2929D10178401C2A290A9011D13168CDF80880C91CB6
:201C4C0021F00301091D316051F8045C002D48BF454601782B46401C0A9011E0454643465F
:201C6C000AE0680000EBC5004018A0F130050A9801782B46401C0A90302901DB3A29F0DB53
:201C8C0002930AB1224604926C2904D04C2918BFADF8048004D10178ADF804A0401C0A907F
:201CAC000BA8CDF80C800FAB07906429059300F0828069297FD0BDF818C075296DD07829C2
:201CCC0069D06F2965D070294ED063293ED0732922D00A98401E0A90099801281AD966490D
:201CEC000C68B5F1FF3F03D0A84288BF6D1C05D86FF00041814294BF0D1C099D029508A84A
:201D0C000AA932466B46A04709993F18091A0398099165E0454617E03068C01C20F0030055
:201D2C00001D306050F8040CBCF1010F014608B94FA0014607910CF039FB0390B5F1FF3F58
:201D4C004FD0A8424DD9039528464AE03068C01C20F00300001D306010F8040C8DF82C001B
:201D6C005D46039558463CE0082035680490E81C20F00300001D306050F8041C0822102380
:201D8C000FA807F0B5FD401E079040210170079823E0082302E0102300E00A233068C01CAD
:201DAC0020F00300001D306050F8041CAA42BCBF2A1C04920DE03068C01C20F00300001D1B
:201DCC00306050F8041CAA42BCBF2A1C04926FF009030FA807F08CFD07900599081A039030
:201DEC00009C241ABDF8065000945DB906E008A8202109AA0BF010F97F1C009C641E00946D
:201E0C00F5D50398401EB0F1FF3F03900FD1BDF8060001281CD10098401E009018D408A8AE
:201E2C00202109AA0BF0F8F800987F1CF4E70798017809AA08A80BF0EFF80798401C0790BA
:201E4C0003987F1CDEE708A809AA0BF0E5F87F1C0A980178401C0A9000297FF49BAE08980F
:201E6C0008B14146017038460FB0BDE8F08FC046286E756C6C2900C078240100BA482DE9BD
:201E8C00F84F0025B94CB749056094F8E200002800F06381012800F02F81B54E02283CD0F4
:201EAC00032840F05A8151F8250CD4F8B8100029A0F5C060C4F8D400B8BF49420028B8BFC3
:201ECC004042814226DA4FF08057D7F8A4014568B4F8BC0030214FF47F420823009030468C
:201EEC00A847D7F8A4014568B4F8C00004214FF4F802122300903046A847D7F8A401B4F8AE
:201F0C00D070456820214FF440620A2330460097A847012584F8D8501AE151F8258C0CF0BE
:201F2C0041FC2F4600B901273946924F38680028FCD0B146012609F10409D9F82CA03E60AE
:201F4C0009B10CF035FCCAF30720C4F8BC000CF029FCAA4600B9B2463B68002BFCD0D9F805
:201F6C0000B0BAF1000F3E6001D00CF021FCCBF38440C4F8C0000CF015FCAA4600B9B246B7
:201F8C003B68002BFCD0D9F81C90BAF1000F3E6001D00CF00DFCC9F38120C4F8D000B8F55A
:201FAC00C061C4F8B81000F09C8094F8D80068B9C4F8D410D4F8C000C4F8C800D4F8BC7037
:201FCC00C4F8C470D4F8D030C4F8CC30D4F8D400D4F8BC30002854BF02226FF0010204F173
:201FEC00C8010F6800EB40008018421000EB927207EBA2000860D4F8C810C4F8C430002918
:20200C001CDD1E293CDDD4F8CC0030B93429B4BF15391E21C4F8C81025E02A29BABFD4F84C
:20202C00C8000B381E20C4F8C800D4F8C4003F28B4BF401C3F20C4F8C4001FE0D4F8CC008B
:20204C00032812D011F10B0FC6BFD4F8C8000B30301CC4F8C800D4F8C4000028C4BF401E8E
:20206C00051CC4F8C450032508E011F1150FC6BFD4F8C8001530301CC4F8C800C4F8CC5027
:20208C004FF08057D7F8A401B4F8C43030214FF47F424568364800930823A847D7F8A40169
:2020AC0004214FF400321123456831480096A847B4F8C860D7F8A40104214FF4F8021223BC
:2020CC0045682B480096A847D7F8A40120214FF440620A23B4F8CC60456825480096A84711
:2020EC0001E084F8D85040F2FF50404502D8801C40452DD208202EE051F8251C1E4F4BF2E5
:20210C00F5204843060A3868C0F3814001280AD10AF0D6FF09F048FE0CF050FB3111C01084
:20212C00484306EBE03694F8E50030B91348006820F07F403618760801E084F8E55010485F
:20214C00310C0660012741600E4D8760287808B90B2000E0052084F8E40001F017FFBDE828
:20216C00F88FC0462D400C402C500C40BC30002000A00C4000800C40B43F005010200940C5
:20218C003C600C40DD2101002DE9F04F044609AF9A4691468846ADF1140D01940CF0D6FC4E
:2021AC0098490D680290A54208BF4D68974C6FF0010B35B105F180000CF074F9002840F05D
:2021CC000F810BF09FF8061C00F0158104F1B4000CF0B8FCC6F80C80B4F98C0099F8043088
:2021EC00401C86F83E306FF31F30A4F88C00C6F808A0B4F88C00019AB0878348326197E865
:20220C000C004FF0000B2021DC4606F118071940104087E8030006F1200383E80018C6F86D
:20222C0034B062463263D9F80800B06386F83F20D9F80070009207B1776398F80C0000F0B7
:20224C000F00022804BFD8F808003063082740464368002B18BF002F40F0BE8000886FF322
:20226C000900B0F5305F18BF022006D196F83F0040F0100086F83F00082006F1180191E8CA
:20228C00800106F1180342EA080240EA070183E80600D4F8F8000199814207D194F804013C
:2022AC00410824BF00F0FE0084F80401002D70D0039504F1700101980D6888460AF054FCE6
:2022CC00B1465F465FEA000A0FD1D8F800202AB1D4F88010304606F0F3FE18B9BAF1000F14
:2022EC0003D103E001275D4630E0554645B12A683046294606F0E4FE38BB002A1546F6D121
:20230C000398314607F0A0FE051C02D0A9451AD1E5B9D9F80C10D8F80450087B00F00F000D
:20232C00022813D1087BC01140080FD2002D4AD1D4F8800050B1D4F8801030463A4606F029
:20234C00BFFE18B93FE0082700E00227BB46BBF1010F04D104F1700049460BF038F9BBF12E
:20236C00020F0BD12F682A6804F170001FB949460BF01CF902E049460BF007F9BBF1080F30
:20238C0004D196F83E1028460BF002FB3BF0080004D104F1700031460BF008F91BF1030F1C
:2023AC0011D096F83F00B6F93CB0009940F0800086F83F00019F87F8A410206F86421AD1AD
:2023CC0007F074FE17E0B4F98C0000F6FF706FF31F30A4F88C0003E07F1E1846FFB237E76D
:2023EC0094F8040140F0040084F8040101986FF0020BC4F8F80002980CF080FB584605B06E
:20240C00BDE8F08FF80D0020FFEFFF9F200D002030B5ADF12C0D0691059001A80BF01CFFE7
:20242C0001A8FEF70DFE10B164A00BF075FC01208DF81C009DF81C00C8B1082005F0FAF8BB
:20244C000CF0E6F90CF0EAF94008FBD37348006840680146022088476F4908706E4800783F
:20246C000028EFD00CF0CEF9082004F0CBFF6A480121012203F086FD10B156A00BF04CFC59
:20248C0065486749007808706649022008700BF0F1F9654908606548006800214FF0FF32F9
:2024AC004FF0FF3303F0BEFF08900898400845D30BF0E0F909905C480999006888420ED292
:2024CC00594A5C495A4B099815685B4C09681A68401B4143B1FBF4F012181A600DE05248B1
:2024EC005449534B099D544C006809681A68401B4143B1FBF4F012181A6009984A49086045
:20250C000BF0A0FE4D4908804E484D49008808800D200BF0BFFE0022002100B1012101B907
:20252C00012249480270142241493D480092434A006809681268022301F0F0FD0898800887
:20254C0011D34248007858B14149032003F082FE4048002101F0E0F810B127A00BF0DCFB94
:20256C0000200BF0D7F80898000907D33A480078032803D139483A4907F02CFE0898C0085C
:20258C0013D33248007840B93748364900780978884202DD06F078FF07E02C48007820B9A5
:2025AC0022480068102107F0C3F808984009FFF472AF01200BF0AEF86DE7C04645617379AF
:2025CC004C696E6B5F696E6974206661696C656400C046C0456173794C696E6B5F656E6150
:2025EC00626C6552784164647246696C746572206661696C656400C0456173794C696E6B8C
:20260C005F726563656976654173796E63206661696C656400C046C0F9330020CC010010FA
:20262C001C1F00201D1F0020781E00206C1E0020201F0020F8230100A0860100241F002072
:20264C001E1F0020741E0020261F00207C1E00208038010055780000121800201118002027
:20266C0013180020F0170020F11700202DE9F84F07468748DFF80C8235380068800880F009
:20268C00F2800AF01DFD864908310B6800251C17641C990D0AD2C0F13E0110F10A0F4FEA90
:2026AC00E101D8BF08218C42B8BF0C1CDFF8D8E1990E0FD2590E0DD37246143A1168C1F36D
:2026CC0004211629A8BF20391268C2F30462162A0EDB0CE0684AD2F87C11C1F304611629BF
:2026EC00A8BF20391268C2F30442162A00DB203A09199346162905DA11F10A0FB8BF6FF01A
:20270C00090100E015215D4C5D4E01F01F0242F4F8522280326812F0030F18BF0125D20880
:20272C0028BF45F002050FB145F00405424692F90740041B052C04DA9479AC4208BF918809
:20274C0070D00F28A0F10F0A2BDB0AEB0014A4F1F00A4FEA2A29B9F1070F88BF4FF00709CC
:20276C004E46062E88BF06265EF82670042404EB8604764634594FEA9508E41B04F0FF066E
:20278C00EF0824BFC4F307273E444FEA550CAF0824BFC4F307473E446F0828BF06EB146668
:2027AC0005E000264FEA95084FEA550CB1465EF829E05FEA58070EF0FF0424BFCEF30727C1
:2027CC003C445FEA5C0724BFCEF307473C446F0828BF04EB1E64B6B2ABEB0101AAEB0927BB
:2027EC007E43002906F1800604EB1624D8BF012103F0FF0334264E43B1B259434FF6FF73EE
:20280C00B1FBF4F18B4238BF191C802889B2918005DA10F1800FB8BF6FF07F0000E07F20EB
:20282C00D0719571194800681F2910604FF0000008D340F2FF128A4206D24908401C8A424A
:20284C00FBD301E01F219180124F114E0F39090940EAC10047EA0001C6F8FB1F0025C6F87A
:20286C00FF5FBDE8F88F0C490C4F424608200F60921D1070BDE8F88F3C1100506E620840E3
:20288C0024220840901F00209C130050082009403500094000E7A48030100940FDFDA400AF
:2028AC00AC3F00502DE9FE4F0E46054630686C68D5F808B0F8B1B7680FB97368DBB194F85B
:2028CC0094100020012908BF0120384202D17168084205D0012080F00100C0B201280AD1C9
:2028EC000CF034F98146D4F8880038B148460CF005F9032030740020BDE8FE8F4FF00108B6
:20290C0086F81080C4F8886000200290C4F88C00C4F8900048460CF0F1F894F8AC0038B11F
:20292C0094F895206B49D4F8A400114309F064FB77680CF00BF9824694F8E00070B917F037
:20294C00704F06D12FB1042009F046FF062009F043FF022009F040FF84F8E08050460CF06A
:20296C00CDF8DBF80010486840F0020048602078002840F08880DBF81C003168884240F29D
:20298C008280207B18B16068B0F1FF3F7BD148460CF0B4F8B0685D4600280CBF04F1AE0843
:2029AC008046706828B9E88904F1AE07A4F8AE0000E00746606909282CBF02200120D6F804
:2029CC0000900190B9F1000F30D0DFF80CA16069092810D3DAF8000042683988286890470C
:2029EC00DAF80000C268286869469047BDF80000A8F800000FE0DAF80000426839782868B8
:202A0C009047DAF80000C2682868694690479DF8000088F80000B3680BB10198804473689D
:202A2C000BB101983F18B9F10109D0D12968C8684008FCD3DBF80010486820F00200486064
:202A4C0077680CF083F8054694F8E00078B117F0704F06D12FB1062009F0C0FC042009F0BF
:202A6C00BDFC022009F0BAFC029884F8E00028460CF044F80298D4F888100874C4F8880066
:202A8C000120029022E02046594603F07BF8DBF80010486940F00100486120780028EFD11C
:202AAC00616804F16C0006460BF0CFFC0028E7D0D4F88800017C012904BF0321017428462A
:202ACC0003F07CFE029930460BF0BFFC0298BDE8FE8FC04600000680C401001000B5ADF136
:202AEC00140D8DF8080004208DF809007048007810B17048007808B10120D6E09DF808001C
:202B0C00042809D09DF80800052805D09DF80800062801D00220C8E06748B0F9000000281F
:202B2C0001D40920C1E065480068002104F07CFA08B90920B9E09DF80800042803D09DF896
:202B4C00080005286ED15E4940F6080008805D49087820F00F0008705A49087840F08000F8
:202B6C0008705949002008605849087840F00200087058485649006808605448534900781D
:202B8C0020F00C0040F0080008709DF80800042809D151494FF6FF7008804C49087840F09F
:202BAC000100087008E04C494AF6AA2008804749087820F00100087048484849007820F03F
:202BCC000F0040F001000870464B02204FF0E2418DE8030042483A490068002204F0CEFC4F
:202BEC00354908800020ADF80C000FE03E48006842F21071B1FBF0F006F0D2FDBDF80C004E
:202C0C00411CB0F5FA7FADF80C1003DC374800880228EBD135480088022844D100208DF8B7
:202C2C00090040E0324940F6070008803149087820F00F0008702F49087840F0800008706E
:202C4C002D49002008602D49087840F0020008702A49087840F0040008702A4828490068E0
:202C6C00086029482849007820F00F0040F0010008701C4B02204FF0E2418DE803001848FB
:202C8C001B490068002204F079FC0B4908800A48B0F90000002803D400208DF8090002E06B
:202CAC0004208DF809009DF8090005B000BDC046723900207339002084390020301E00205E
:202CCC00AC380020B8380020B4380020BA380020C0380020F41C0020BC380020BF38002043
:202CEC002C1E002015CE0000F8230100AE3800202839002034390020303900203639002033
:202D0C0038390020F81B00203739002001282DE9FE4F40F0EE80DFF810B2DBF8DC000128B8
:202D2C0040F0E4800220CBF8DC000BF0F7F8012009F088FB5FEA000805D00120CBF8DC00C5
:202D4C000BF0F8F8D7E00BF015FF6C49029000200860012009F0A8FF012818BF002003D132
:202D6C00002007F0D5F90120654900900020654F0860386811200BF033FD00280CBF0024B4
:202D8C00012410200BF02CFD08B144F002040F200BF026FD08B144F004040B200BF020FD36
:202DAC0030B1624814300068574E016B308888470A200BF015FD002600B101264FF0805AEA
:202DCC000AF5DC75301C04D02868504E016B308888474F48012606602868816944F0200064
:202DEC0088474C4806600BF0F5FC00F001010191400814D248480BF07DFC8146B9F1040FD8
:202E0C00F8D0B9F1010F05D1DAF8D80142684248032190474149086820F0030008600020DF
:202E2C00FFF724FC2B683868986B8047019801280DD0B9F1010F05D1DAF8D8014268364871
:202E4C00314690473549086840F0030008602C48066028684169204688470B200BF0C0FC64
:202E6C0020B12868284BC16A188888470A200BF0B7FC20B12868254BC16A18888847244829
:202E8C00032206602349CBF8DC2000230B602868416B204688470128F9D13868042009F0C1
:202EAC00D1FA044615481E490660386808688009FCD30098012802D1304607F029F90BF041
:202ECC0077FC082009F0BEFA07460298CBF8DC6009F0A2FB1348008806F04CFE0BF02AF8DE
:202EEC0057EA040018BF4FF0FF3804E06FF0040801E06FF001084046BDE8FE8F0C4009404F
:202F0C00000222432C200940D21C0100CE1C01002820086080010443004003402422084046
:202F2C0014100940D8210100BC300020A401001000B5ADF1140D0191009002A80BF0CCFD59
:202F4C0003208DF808004FF0004002A907F082FB6C4908604FF0804002A907F07BFB6A4930
:202F6C0008606948006830B1674800680021002239A30AF067F86348006830B1614800684F
:202F8C00002100223CA30AF05DF86148614904F04FFF5E4908605D48006810B93BA00AF065
:202FAC00BBFE4FF4803001214FF47F6207F048FE59480BF0B5F90BF00CFD5A485849574AA4
:202FCC000068B1FBF0F110680BF0FEFD534800680BF0DFF85548564904F02AFF5249086051
:202FEC005148006810B934A00AF096FE4E48514900680BF0E9FB10B137A00AF08DFE4E486F
:20300C00006800214FF0FF324FF0FF3303F00AFA03900398400813D306200BF045F9002266
:20302C00002100B1012101B9012238480068062108F0FEFF4148008806F0D4FF00F084F968
:20304C000398800801D300F07FF90398C008D6D303A802F001FCD2E757616974696E6720B3
:20306C00666F7220534345204144432072656164696E672E2E2E00C057616974696E6720E3
:20308C00666F72204144432E2E2E00C04572726F7220696E697469616C697A696E672062F4
:2030AC006F61726420332E335620646F6D61696E2070696E730A00C04572726F7220696E17
:2030CC00697469616C697A696E6720627574746F6E2070696E730A004572726F722072650F
:2030EC00676973746572696E6720627574746F6E2063616C6C6261636B2066756E63746946
:20310C006F6E00C0641E0020A01F0020601E0020281F00202C3A0020C5D30000581E0020CC
:20312C0080C3C901F82301005C1E0020101F0020FC3900201DC40000501E0020541E00201B
:20314C0010B5ADF1300D079005208DF826006F48007810B16E48007808B10120D3E0079812
:20316C00007B802801DD0220CDE06A480068002103F05AFF08B90920C5E067480078E0B1A5
:20318C00664907980978007B4018801C00F0FF0040F4C050ADF82800614902200870BDF8EC
:2031AC002800604900F0FF000870BDF828005E4900F47F40001208700AE0594901200870E5
:2031CC00564907980A78007B564980180870FFE75348524A534B079900781278C01804F0D0
:2031EC0065FF4F494D48079A0C784E4B00780799127B00190D31C01804F058FF474A079825
:20320C0047491378007B0A784849C01880180880444847490860079807F09CF8089007981C
:20322C008068C8B143484349007820F00F0040F0020008703F49087840F0800008700798FA
:20324C003D49806808603C48089900684FF47A6202FB0100049014E03649087820F00F003C
:20326C0008703449087840F08000087032490020086007F00FF808994FF47A6202FB0100E6
:20328C0004902E48007888B101208DF814004FF0E24102208DE8030029482A49006804AAB7
:2032AC000023FEF771FFADF824000DE002204FF0E2418DE803002248224900680122002345
:2032CC0004F05CF9ADF824001D48BDF92410006802224FF0E24303F00BFD02AA82E803007D
:2032EC0002A890E80C00022100201140184000D1002902D000208DF826000648006807F064
:20330C0019F99DF826000CB010BDC0467239002073390020301E00207439002070390020AA
:20332C0071390020C4190020C5190020EC1C0020F81C0020E81C0020E41C0020763900204D
:20334C002C1E0020DC1C00200EB57448007818B90BF07CFA7149087071480078B8B9714819
:20336C0000680BF00DFA6D4800786E4900900868002239A3002109F065FE6B48008869498B
:20338C0000900868002238A3012109F05BFE63480078664900900868002236A3002109F0C9
:2033AC0051FE61480088614900900868002238A3002109F047FE5A480078B8B15C480088CC
:2033CC005C4900900888594901900868002236A3002109F037FE584800685449009008688A
:2033EC00002236A3002109F02DFE33E0534890F90000B0F1FF3F2DD023E04C48006800214E
:20340C00002234A309F01EFE484800680BF0BEF920E0464800680021002235A309F012FECE
:20342C0018E0424800680021002235A309F00AFE10E03E4800680021002235A309F002FE88
:20344C0008E03E4800780028D7D0401EE9D0401EDFD0EEE70EBDC0464E6F646549443A2074
:20346C0030782530327800C04144433A202530346400C0461B5B324A201B5B303B30484E0B
:20348C006F64652049443A2030782530327800C04E6F6465204144432052656164696E6732
:2034AC003A202530346400C04F414420426C6F636B3A202564206F66202564004F414420A5
:2034CC00426C6F636B20526574726965733A20256400C0464F41443A20636F6D706C6574EC
:2034EC006564207375636365737366756C6C79004F41443A20435243206661696C65640027
:20350C004F41443A2061626F7274656400C046C04F41443A206572726F7200C0ED3900206C
:20352C00E0390020641E0020541E0020A01F0020E2390020E4390020E8390020EC39002035
:20354C002DE9F043044665480E4601681F461546ADF12C0DBEB1B5B130784FF0010808FA04
:20356C0000F001420FD0104600210BF0F9FAA56066600BF0EBFA5A4D81462878022804DB06
:20358C0048460BF0BBFA0020A5E0002861D102F0D9F85449086840F00200086007A80AF0CF
:2035AC00C9FF514E5149707807AA099005F5847008F090FC4E4905F59E7007AA08F08AFC8C
:2035CC0007A80AF077FF192107AB3078494A089005F1380008F0AAFB474A05F154001A2120
:2035EC0007AB08F0A3FB4549002205F19000134607F0F8FB4249002205F1B400134607F057
:20360C00F1FB404A05F124000421002309F094FDB078012802D10E2004F00CF805F1780084
:20362C000AF024FE05F170000AF020FE002085F820002875E861072185F8D01185F821001D
:20364C00314B1870A8600526E860304A2E612878AA6105EB8001401CC1F8D840C0B2287083
:20366C0048460BF04BFA1FB968460AF027FE6F4638684FF4FA76E6602060B8694146606293
:20368C00388A6175E082786800280CBF40F6C410002120611E48E06120622175A061F86885
:2036AC0000B1E061786900B12062B86800B1A061782204F13000002105F084FD04F1480093
:2036CC00002109F05FFB1349002204F18000134607F088FB20460BB0BDE8F083D42108402E
:2036EC00200D0020002009403423010071DF00009D6E000019A700005D960000C1D600000B
:20370C00BDDA000031AF00007D1E00204963000087750000F1EA000000B5ADF1240D0691CD
:20372C00059006208DF820005848007810B15848007808B10120A7E05648B0F9000000285C
:20374C0001D40920A0E054480068002103F06CFC08B9092098E00598504908605048079030
:20376C0007988921C1800798002101714D49079808604D49002008604A484C4908604D48A2
:20378C004B490860069880B14B484B49007820F00F0040F0020008704749087840F080002A
:2037AC0008700698454908600CE04349087820F00F0008704049087840F0800008703F49A9
:2037CC00002008603E480068A0B13E483D49007820F00F0040F0020008703A49087840F096
:2037EC008000087006F056FD3549374A0968401810600FE033483349007820F00F0040F097
:20380C00010008702F49087840F0800008702E4900200860274800210C2205F0D3FC2B480F
:20382C000078A0B101208DF80C00274800680290294B4FF0E24102208DE80300244825494E
:20384C00006802AAFEF7A0FC124908800DE002204FF0E2418DE803001F4B1D481D4900684E
:20386C00012203F08BFE0B4908800A48B0F90000002803D400208DF8200003E00648006869
:20388C0006F058FE9DF8200009B000BD723900207339002084390020301E0020241E002061
:2038AC0094180020801F0020841F0020101C0020141C00204C1F0020F41B0020F01B00202D
:2038CC0078390020071C0020081C0020763900202C1E0020E81B0020A13A00002DE9FC4FEC
:2038EC0083F0004301E02DE9FC4F1F03FF0847EAD2574FEA42284FEA43095FEA595906D147
:20390C0047EA080A1CBF00210020BDE8FC8F57F000575FF4E06E1EF1FF0EF14505D14FF066
:20392C000000190D0905BDE8FC8F002B05D55FF0000AD8F100086AEB07070C03E40844EA5C
:20394C00D0544FEA40254FEA4106760D08D144EA050A19BF00210020191C101CBDE8FC8FD6
:20396C0044F00054764504D10020090D0905BDE8FC8F002904D55FF0000A6D426AEB040448
:20398C00B6EB090E08D5A2463C465746AA464546D046CEF1000E4E46BEF1360F5CBF4FF03F
:2039AC00000B23E0BEF1000F04BF4FF0000B1AE0CEF1390ABAF120092EBF08FA09FB07FA5E
:2039CC000AFB4BEA080BDEF1200A07FA0AFA38BFBA4647FA0EF72DBF28FA0EF8AEF1200E72
:2039EC004AFA0EF8D04415EB08057C4154EA050A02BF00210020BDE8FC8F002C58BF4FF092
:203A0C00000A06D55FF0010A5FF0000E6D426EEB0404A6F101066D006441FAD515F4806E78
:203A2C0011D005F480794BEA090B15F5806554F1000428BF761C0BD205F400795BEA090B05
:203A4C0008BF25F4006525F4E0656D0044EB0404B61CDEBF00210020BDE8FC8F5FF4E06E92
:203A6C001EF1FF0E76450AD34FF0000013F00043FF21C900C91D09051943BDE8FC8F27056C
:203A8C0047EA1530210B41EA065141EACA71BDE8FC8F704700B5ADF1140D8DE80C00ADF80F
:203AAC001010029006208DF81200534803909DE80C0002210020184001EA020100D1002949
:203ACC0078D04E48006806F035FD4D494FF0FF3008804C480088B0F5505F5DD1039800792E
:203AEC00032803D006208DF8120079E046480088012808D045480078C011400838D34448DA
:203B0C000078012834D1444903980A78007A4149801A08704148007818B141490220087045
:203B2C0002E03F49012008703D483B4A03990078127809183B48083104F0B8FA384B36484A
:203B4C00344A03991B7800781278C91809183648083104F0ABFA3648344990F9000008705C
:203B6C00354834490068086000208DF8120037E032480078012803D108208DF812002FE0E4
:203B8C002F480078012803D10A208DF8120027E006208DF8120023E01A48008843F2014144
:203BAC00814203D107208DF8120019E006208DF8120015E09DE80C004FF0E240002118408E
:203BCC0001EA020100D100290AD00C48006806F0B1FC0B494FF0FF3008800A208DF81200AD
:203BEC001848006830B117489DF81210006802460C48904705B000BD94180020301E002073
:203C0C0084390020EA1B00204C1F0020F61B0020501F00204019002070390020743900203C
:203C2C00713900202C1900204119002034190020531F002038190020541F0020521F00203B
:203C4C00511F0020241E00202DE9F04FADF1240D079001F077FD5F48007808F05DFD5E4D2A
:203C6C000024012806D90C3804D0401E0ED0401E09D006E00AF0B6F8022804BF01210C1CBC
:203C8C0006D0696805E005211F2401E0032107246960524A1068C0F38150012806D152F848
:203CAC000C0C0127020E07FA02F004430AF02AFC05F1440AFF2253464018401E471C2860AF
:203CCC007F1E03F8012BFBD1079A1268002602F0FF03FE2B1DD0DDF81CC0964633460EF0F9
:203CEC00FF07FF2F0ED0B84205D3B94203D80122BA40144201D0022069E016430EF0FF02F7
:203D0C000AF802305CF804EF5B1C0EF0FF07FE2FE7D1092003F08EFC07980121A86005F157
:203D2C00280009F02FF800274FF0010BB9462846804600F198050BFA07F0044216D106428B
:203D4C0004BF07F0FF0141F4C04104D01AF80700079951F82010224802F004FAF8B24FF01E
:203D6C00FF3109F087FCC5F8009001E004202860D8F800007F1C2D1D8742DCD904A80AF0D8
:203D8C0099FB184C184A2078102104AB059008F10C0007F0CBFF68460AF0CCFBCDF80C901A
:203DAC006A4660681149029008F1640008F092F80F4951F80D0C20F4F85040F4005041F8E1
:203DCC000D0C0C4FC1F8FFBF4846C7F800B009B0BDE8F08F7E1E0020A82F0020B43F00501C
:203DEC00007FC76768230100A1DA0000B9BA00000D3009400800094000B5ADF1140D09F04C
:203E0C0011FE039000208DF810005B48007801280AD14FF4F02002905848006800210022F0
:203E2C0032A309F00FF90AE053480078052803D14FF4F620029002E04FF4F2200290029854
:203E4C00039903F059FD4E49FF2008704C4800784A490090086800222FA3002109F0F2F8AC
:203E6C000298484A102103F02BFB0298464A102105F096FA0298039903F03EFD0298414A57
:203E8C00102103F01DFB02983F4A102105F088FA00208DF810009DF81000102823D29DF8F3
:203EAC001000394A9DF81010364B105C595C884210D09DF810003349085C334900909DF83C
:203ECC001000085C2D490190086800221AA3002109F0B8F89DF81000401C8DF810009DF817
:203EEC0010001028DBD305B000BDC04673617665496D616765496E666F2074797065203DEB
:203F0C003D2045464C5F4F41445F494D475F545950455F41505000C073617665496D616724
:203F2C0065496E666F20737461747573203A203078253032782000C05B496E636F72726592
:203F4C0063742073617665496D616765496E666F20646174615D2077726F74653A203078D6
:203F6C0025303278203C2D3E20726561643A2030782530327800C0460E1F0020A01F002080
:203F8C000F1F0020001F0020D01E00202DE9F843614C5A4D5A4EDFF870815E4F94F8E41038
:203FAC000846401E0B2864D8DFE800F07B2C43062343062343067664042907D001220A2927
:203FCC0045F8212C14BF0220032004E0202045F8210C0120024684F8E200002045F8390C3C
:203FEC000827C5F8FF7FC5F8F37F45F8392CBDE8F883052914BF09200620002784F8E40083
:20400C00376075E094F8E170383D0120002FC5F81B0004BF0620002102D00021F1600320BD
:20402C0084F8E400032045F8010C3160306880085ED294F8E4103348012703290ED0006831
:20404C00456800216022052300914046A84794F8E400062814BF0A200720CFE70068456849
:20406C00002160220523022000904046A8470420C4E7FEE72548264F0026012506600E20CC
:20408C003D6003F0BFF9022008F0A8F984F8E45084F8E360BDE8F883002038600C257860C1
:2040AC0024E04FF08059D9F8A0010168202088472C3D0F2045F8010C41F61D56C5F8036042
:2040CC00D9F8A401466800214FF4C0720723022540460095B047D9F8A401C66800214FF4AF
:2040EC00C07207234046B0470120386084F8E45004F178000AF024FDBDE8F88339400C4005
:20410C0038600C40A401001000A00C402C500C4004800C4034600C40BC30002007B401B41A
:20412C0000B5ADF1040D8DF800304549002008704548444900780870454844490078087020
:20414C0045484449008800F47F400012087042484249008800F0FF000870424840490088D5
:20416C0000F47F40001208703E483F49008800F0FF0008703E483D49006800F07F40000EC8
:20418C0008703B483B49006800F47F00000C087037483949006800F47F40000A087034481B
:2041AC003649006800F0FF000870364834490078087035490C20087034499DF8000008700E
:2041CC0033490698086033490020087006984FF47A614143032002F03DF81948FEF7B0FFAE
:2041EC0010B108A009F098FD2B480021FFF794FA10B10BA009F090FD01B05DF804EB04B009
:20420C007047C046456173794C696E6B5F7472616E736D6974206661696C656400C046C099
:20422C00456173794C696E6B5F726563656976654173796E63206661696C656400C046C0C7
:20424C00601700206D1700201C1F00206E1700201D1F00206F1700201E1F00207017002011
:20426C0071170020241F00207217002073170020201F002074170020751700207617002071
:20428C0077170020261F00206C170020F1170020F4170020F0170020557800002DE9F84FB8
:2042AC0093460A68DBF8005017784FF000081C460646C246242F02F101020A602AD11778BB
:2042CC00521C532F0A6025D1ED1C25F003052D1D55F8040CE061CBF80050208B0090A1681D
:2042EC00E26930685B46FDF739FC8246306838B1A0685045D8BFA0F1010A30685044306030
:20430C00DBF80050206846464FF00108E660A0EB0A002060662F06D0B8F1000F65D1E16914
:20432C0001200F7060E0208B012808D0ED1D25F007050835A5F1080090E8000309E0ED1C72
:20434C0025F003052D1D55F8040C07F035FF804689462AA20CCA4946404604F0A3FC28BF9C
:20436C00002705D2206989F000490127401E206124A20CCA4946404604F0D7FC31D34046DF
:20438C0007F07EF8064608F01DFC0B46024649464046FFF7A3FA1DA20CCA01F0F9FC07F094
:2043AC0017FA0146606904220A2305F0A1FA401EE0612E21017063692269E06931461B1A42
:2043CC00E360D21A0A2305F093FA002F08BFE06104D0401EE0612D210170E0696169081A55
:2043EC0002E004A0E0610720E060CBF800505046BDE8F88F286572726F7229000000000033
:20440C00000000000000C0FFFFFFDF41000000000088C3402DE9FF4104466668A7680D4658
:20442C000AF094FB3178012903D10AF067FB002090E0012131700AF061FB287870706878DB
:20444C00B07068687060A868B060E868F06028693061287D3075687D7075A87DB075A8693F
:20446C00B061287F3077687F7077A87F4FF0000843461D4686F82851B07786F82951C6F8D5
:20448C002080336375627563B562B56386F82C5086F82D50786803F0CDF8204603F024FCF6
:2044AC00204603F09DFE70B92C480068C16838688847786802F0A6FF0AF048FB35700AF00C
:2044CC001DFB2C4645E0684609F0F4FF0094387B234A0190B9686B4606F17C0007F026FCE4
:2044EC0068460AF027F800941E4938696A46029006F1980007F0EEFCB07830B906F1CC00C7
:20450C00294608F03FFC18483061707830B906F1E800294608F036FC1448F06068460AF05F
:20452C0049FA01958DF800501149029406F582700A226B4606F056FCB969FA6906F13C0007
:20454C0009F07AFF0B4A06F168000421234608F0F3FD20460090BDE8FF81C046D0010010B1
:20456C003148000001A60000D1EA000089EA0000ADB5000081E60000B0B5456884684F4883
:20458C00297BADF1180D012916D0217E627E4C4B2F7E0143009143EA02010191494937F085
:2045AC00010718BF081CA27E1043029095F895000322FF2811D00DE0677E217E3843A37E8B
:2045CC00019041F00041009143F000403E49029095F89500014304220391FE204DF822000A
:2045EC00694605F1980003F023FCC5F8A400002808BF00205FD0287B344951F8200001280F
:20460C002BD02068B0F1804F14BF22220A22217ED5F8A40008F0C8F82068B0F1804F14BFC5
:20462C0021220922617ED5F8A40008F0BDF82068B0F1804F14BF24220C22A17ED5F8A40034
:20464C0008F0B2F895F89510FF2933D02068B0F1804F14BF23220B2228E02068B0F1804F12
:20466C0014BF21220922217ED5F8A40008F09CF82068B0F1804F14BF22220A22617ED5F86A
:20468C00A40008F091F82068B0F1804F14BF24220C22A17ED5F8A40008F086F82068B0F17B
:2046AC00804F14BF23220B2295F89510D5F8A40008F07AF8012006B0B0BDC046000480A05F
:2046CC00004000800004C0A000200080B01D01002DE9FF470646880FC0F09780002006F020
:2046EC0085FA4B4809F016FF012008F0A3FF494C40F60A09A4F8009000256580207B05F02F
:20470C000F0120F00F00014321736560607B4FF0010808F00F0720F00F0047EA00013046C9
:20472C00617305F053F9D6F808A04A462146D01F574600F1010C00E027467C6834B12388A0
:20474C009A4203D0984218BF9C45F5D179607A7B334C05F00F0322F00F0213437B73236FF9
:20476C0033B1DA681288904224D06046904221D0338E03B3756306F13002558096F83C0027
:20478C0005F00F0320F00F00034386F83C3096F83D0008F00F0320F00F00034386F83D3092
:2047AC004A60487B05F00F0620F00F0046EA00054D7300E0A5605046694602F02FFA68466F
:2047CC0009F088FE09F084FD1348A06194F8210070B9404608F068FA01280FD0787B08F0CF
:2047EC000F0120F00F00014379730C4EA66105E007F016FB0028FBD00AF0B4F9504609F0D7
:20480C0089FE5146404608F08FFD0090BDE8FF8701010E04801E0020DD160000E1AE000055
:20482C00200D00202DE9F84F8046D8F808603068D8F80450076CDFF830B14764AB6B6A6C46
:20484C00286C17F4F06F1946A0EB020934D1F8091ED2780974D3B1B196F821205846801D2F
:20486C00845C601E814294BF1C1C641E4046214607F086FCA86B001BA86361D105F198009F
:20488C0001210AF07BF94046494608F035F857E00029F8D0404607F073FC95F82D10A86359
:2048AC0011B900284CD101E00020A86305F1980001210AF063F943E0F80A20D24FF0000A6B
:2048CC00544602E0AB6B5B1EAB6393B14046012107F056FC3068446814F00F04C0F804A0C7
:2048EC00F0D0286B401E2863686B401E6863A86BE8B905F1980001210AF040F913E0306852
:20490C0044680022202904F00F044260CCBF4FF0200A9A464046514607F032FCCAF12000DA
:20492C008145C8BF81464946404607F0E5FFEC77404606F014FD726A12B140462146904714
:20494C00B8090FD3A96A69B10F46404607F0A4FCA86238B996F820205946895C4046C91954
:20496C0006F008FBBDE8F88FFC1C010000B5ADF11C0D0020ADF8080009F046F80090009845
:20498C0080090190444801990088B0FBF1F08DF80D004148019A9DF80D10008802FB1100B9
:2049AC008001ADF80A003D48008838B13B49BDF80A00098840184038ADF80A0038499DF85C
:2049CC000D00098840188DF80D00354800788DF80C0049E032489DF80C100088884201D145
:2049EC00042000E00020ADF8100027E09DF80C00BDF8101005AA042308F060FC00208DF886
:204A0C0018009DF81800042813DA9DF818000DEB0001BDF80800097D04F0BAF8ADF8080070
:204A2C009DF81800401C8DF818009DF818000428EBDBBDF81000001DADF810000098BDF841
:204A4C00101088420BD99DF80D009DF80C108842CCDCBDF80A00BDF810108842C6DC9DF822
:204A6C000C00401C8DF80C009DF80D009DF80C108842AFDABDF80800002104F089F8ADF893
:204A8C000800BDF80800002104F082F8ADF80800BDF8080007B000BDA43A0020A63A0020DA
:204AAC00381F00202DE9FC4705466E68D5F8088037780FB1B76B1FB14FF0FF30BDE8FC87AD
:204ACC0031630024F477171C74631BD006F13C090AF03CF882466946484607F046F90028E5
:204AEC001ED450460AF00AF89DF80000316B0870306B736B7F1E00F10100306303F10100ED
:204B0C007063E5D17078726B316B0128A1EB0201316303D1F36828469847726B144659E067
:204B2C00B763D8F80010086B40F400700863D8F80010886B40F4FA608863504609F0DEFF35
:204B4C0006F5947008F006FE707806F5947768BB09F0FCFF96F82D1069B1716B59B1B16B62
:204B6C0049B1B46309F0CAFF06F5947008F0E2FD706BBDE8FC8709F0C1FF716806F1E80507
:204B8C00284609F062FC0028F2D0B4632846214609F05BFC0028EBD0384608F0CBFD1027C6
:204BAC00716B306BF777401A3063E1E709F0CEFF96F82D1061B1716B51B1B16B41B1B463A9
:204BCC0009F09CFF06F19800012109F0D7FF01E009F094FF2046BDE8FC8770472DE9FE4FA0
:204BEC000CAF1D468B465FEA02083E78009014BF4FF080494FF0005909F0A8FF0324DFF810
:204C0C0000A10190BBF1FF3F14D152460098D2F8801009F087FC50B9D2F88410009809F089
:204C2C0081FC00280CBF176FD2F8847008E0D2F8807005E000985946002207F00FF9074688
:204C4C00002F56D097F83F0030F07F0050D05446D4F88000B84217D0D4F88400B84213D072
:204C6C0000982A463346394603F0CEFC00283FD0207D01283AD0207D042837D0214904F531
:204C8C00847009F07BFF31E0D4F880004B46002207F002F9D4F884004B46002207F0FCF8B1
:204CAC00B8F1000F14BF1848184808F01DFAB6B1D4F8800000224FF0807307F0EDF8D4F8DF
:204CCC00840000224FF0807307F0E6F83869C4F8F80094F8040140F0010084F804012DB1A5
:204CEC00216F00982A46334603F08EFC832400E00424019809F002FF2046BDE8FE8FC0463A
:204D0C00200D0020020000400100020401000104ADF1300D464800904648019035200A90E4
:204D2C00009850F8041B00900291009850F8041B03910090009850F8041B04910090009866
:204D4C0050F8041B05910090009850F8041B06910090009850F8041B07910090009850F88D
:204D6C00041B08910090009850F8041B099100900198011D0191029901600198011D019128
:204D8C00039901600198011D0191049901600198011D0191059901600198011D0191069993
:204DAC0001600198011D0191079901600198011D0191089901600198011D019109990160A5
:204DCC000A98401E0A90ABD1009850F8041B00900291009850F8041B03910090009850F88C
:204DEC00041B04910090009850F8041B05910090009850F8041B069100900198011D0191CF
:204E0C00029901600198011D0191039901600198011D0191049901600198011D0191059916
:204E2C0001600198011D0191069901600CB0704708EC000000C00021ADF1300D464800907B
:204E4C004648019035200A90009850F8041B00900291009850F8041B03910090009850F813
:204E6C00041B04910090009850F8041B05910090009850F8041B06910090009850F8041B98
:204E8C0007910090009850F8041B08910090009850F8041B099100900198011D01910299A9
:204EAC0001600198011D0191039901600198011D0191049901600198011D019105990160B0
:204ECC000198011D0191069901600198011D0191079901600198011D01910899016001984F
:204EEC00011D0191099901600A98401E0A90ABD1009850F8041B00900291009850F8041BBC
:204F0C0003910090009850F8041B04910090009850F8041B05910090009850F8041B069182
:204F2C0000900198011D0191029901600198011D0191039901600198011D01910499016003
:204F4C000198011D0191059901600198011D0191069901600CB07047BCF2000000C00021B2
:204F6C00ADF1300D464800904648019035200A90009850F8041B00900291009850F8041BFD
:204F8C0003910090009850F8041B04910090009850F8041B05910090009850F8041B069102
:204FAC000090009850F8041B07910090009850F8041B08910090009850F8041B09910090DD
:204FCC000198011D0191029901600198011D0191039901600198011D01910499016001985A
:204FEC00011D0191059901600198011D0191069901600198011D0191079901600198011DAC
:20500C000191089901600198011D0191099901600A98401E0A90ABD1009850F8041B0090FF
:20502C000291009850F8041B03910090009850F8041B04910090009850F8041B0591009065
:20504C00009850F8041B069100900198011D0191029901600198011D0191039901600198FA
:20506C00011D0191049901600198011D0191059901600198011D0191069901600CB0704772
:20508C0070F9000000C00021ADF1300D464800904648019035200A90009850F8041B009024
:2050AC000291009850F8041B03910090009850F8041B04910090009850F8041B05910090E5
:2050CC00009850F8041B06910090009850F8041B07910090009850F8041B089100900098B7
:2050EC0050F8041B099100900198011D0191029901600198011D0191039901600198011DD1
:20510C000191049901600198011D0191059901600198011D0191069901600198011D019119
:20512C00079901600198011D0191089901600198011D0191099901600A98401E0A90ABD1B5
:20514C00009850F8041B00900291009850F8041B03910090009850F8041B04910090009842
:20516C0050F8041B05910090009850F8041B069100900198011D0191029901600198011D74
:20518C000191039901600198011D0191049901600198011D0191059901600198011D01919C
:2051AC00069901600CB070472400010000C000212DE9F041404C444D8046C8F38140401E66
:2051CC0002D0401E2AD025E0284620300168880C20D24FF4804020603848D0F802204B0AA5
:2051EC00C1F3033703F0800322F08F02134347EA0302C0F80220D0F801300E0A66F30303C6
:20520C00C0F80130026801F0E70722F0E70247EA020102E04FF00041204601602C4E301D31
:20522C000068C0F3C0070FB94020A0624FF40070206409F057F940F0300084F8C800C8F377
:20524C00815040B3401E03D0401E1FD002211EE0012007F029FD07460420394604F08AFF34
:20526C00042007F021FD8742FAD1361F366826F07F4007F069FA12480068036807214FF09F
:20528C006022300E98474FF4806020600321042004F070FF06E00420012104F06BFF09483A
:2052AC0007F052FA2846094F006800F03F0084F8CB0F3868BDE8F08140A00C400A60084058
:2052CC00B4010010BD3786006C1300502C200940AC3F0050F8B5474C241F04F17005286867
:2052EC0000260746E0B1D4F88400F0B9D4F88000E8B1D4F8801038690969884215D197F812
:20530C003F00400911D3D4F88000C06840880028F9D0D4F88000C06840880128F3D006E0DA
:20532C0004F58470022109F029FC002E5ED060683969884254D1684605F0F8FA58B1009848
:20534C0048B1D4F8800030B9D4F8840018B9082006F0A6FEF8BD082008F0B8FB97F83F00DA
:20536C0004F58476C0F3001028B9284608F0FCF8C4F8800004E0284608F0F6F8C4F884007C
:20538C0007F1180003C81A49C4430B1F1C601A681042FBD10A6810430860F869C04341F8AC
:2053AC000C0CF86951F8082C104341F8080CF868044607F099FE2088A0F6020040B141F2AF
:2053CC001E01401A04D041F6E671401A012803D80120214607F0A8FF4FF08041304603E009
:2053EC0004F584704FF4806109F0C8FBF8BDC04614100440240D00202DE9F0430446656800
:20540C00A7680E46ADF1140D09F0A0FB95F8E11019B109F073FB00206EE04FF0010985F8E7
:20542C00E19009F06BFB4FF00008C5F888803069286170696861307E2876307B2873307886
:20544C002870706885F8AC80686070694146092828BF494685F89410387B02F0EBF8204649
:20546C0005F090FAF87E85F895002046FFF784F830B9387B01F0C6FF444685F8E1803AE06D
:20548C00684609F017F8009478791D4A019039796B4605F11C0006F049FC684609F04AF834
:2054AC0000941849B8686A46029005F1380006F011FD05F087F9C5F8A800287B012808D1D8
:2054CC00D5F8A400104909F07FF9D5F8A40000B184600E4A05F1CC000421234607F02CFEB6
:2054EC00287830B905F16C00414607F04BFC084800E0B068A860204605B0BDE8F083C04667
:20550C00DD7E0000E188000011B7000089E8000079EA000000B5ADF11C0DADF81420029137
:20552C0001900198039003990398097A407A01F0FF0100F0FF0001EB002188B280000490F3
:20554C000398807A8DF8160000208DF81700BDF81400B0F5006F02DCBDF8140008B90020EE
:20556C003DE09DF81600032808D00498000B03D00498B0F5F83F01D9002030E00498B0F517
:20558C00805F0FD09DF8160001280BD14FF48051254800910068002212A3002107F052FDD9
:2055AC0000201CE0029800884FF6FF71814202D00298008840B91C4800680021002213A377
:2055CC0007F040FD01200AE00398008810B901208DF8170001208DF817009DF8170007B0B7
:2055EC0000BDC046496D6167652074797065202741505027206D7573742073746172742071
:20560C006174203078253034782000C04163636570742074686520696E636F6D696E6720BB
:20562C00696D61676500C046A01F00202DE9F843424CA06FA56F04F1780900287BD006463F
:20564C00F06840F603020827531C02E040687F1EFFB260B15FB101888A4218BF8B42F5D155
:20566C0031694CC830314CC189C881E8890005F1280090E80C00002705F12806B84686E866
:20568C008001A96879B13E464FF0E24006EA020110EA03070EBF002932400340B5F93C10C1
:2056AC00AE682869B04709F051FA0646B4F98E00401C6FF31F30A4F88E00484685F83F8074
:2056CC0007F052FF304609F019FAB4F98C00B4F98E1088422FD16068D4F8D860D4F8DC70C2
:2056EC0090F8A41000290CBF0520072003F0A2FB40462EB196F8A45005B9306886F8A480B3
:20570C0041462FB197F8A46006B9396887F8A480814238BF011C61B1B1F1FF3F0BD0084A8A
:20572C00126804F1B400B1FBF2F108F0F0FCBDE8F88308F0BDF9BDE8F883C046200D002086
:20574C009C1F00202DE9FF47424C94F8E70000286ED10127384E84F8E770F07C84F8E6004F
:20576C007568C4F81051684609F024F9002504F10C0001956B468DF80050304902952A469D
:20578C0005F030FB2E4904F130006B462A4605F029FB2C4904F154006B4681462A4605F06C
:2057AC0021FBB16838468847DFF8A4802648327D08F104030078254E1868C0F3815A22B177
:2057CC00BAF1030F04D184F8E170BAF1030F15D0BAF1020F12D0BAF1010F0CD0022006F06F
:2057EC00FBFF042007F060FA012804D030683221B1FBF0F10DE006F08BFB12E0022006F046
:20580C00EBFFBAF1030F0CBF4FF47A7142F210713068B1FBF0F1484609F090F9484609F06B
:20582C008FF940460068C00802D2284606F0D4FF00200090BDE8FF87C8210100278C00009B
:20584C00997D0000F19D00007E1E00209C1F0020B03F0050BC3000200EB500903949009849
:20586C000968006801426BD03748007810B13649002008703548007830B3364834490068BB
:20588C000988884220D1344A1068411C0328116012D92E4900200870002006F0B5FF0020DD
:2058AC0006F0CAFF09F0DEF8012005F0EBFA29494FF0FF30086003E026490868401E086083
:2058CC0026490868401C086020480078002837D023481F4900880988884219DD1C481D4994
:2058EC00008808601A4802881E480123002102F0A9F917481A49194A00880988126802F0D7
:20590C00A3FF502006F098FFA02006F07DFF17E006F08CF88DF804009DF8040005F0B2FA76
:20592C000A49002008709DF8040030B9064901200870A02006F068FF02E0002006F064FF8E
:20594C000EBDC046681F00209C3900208D3900208A3900209839002090390020943900203E
:20596C00883900208C3900202DE9F041414C0546207800287AD0B4F98E00B4F98C108842DE
:20598C001DD004F1700128460E4607F0EDF870B9D4F88010284608F0C5FD28B906F108017C
:2059AC00284607F0E1F801E0D4F8800038B1B0F93C100A224FF0E043284601F099F909F01A
:2059CC00C5F8804604F1D8000168A94219BF00264660002606602078401EC0B22070A8BB8C
:2059EC006560207D02280ED1082006F059FB404609F084F805F148004FF0FF3108F025FDFC
:205A0C0009F0A4F8804604F5847009F0B1F804F1380009F099F804F59E7009F0A9F804F143
:205A2C00540009F091F804F1900009F081F804F1B40009F07DF804F1240007F02BFE0C48E9
:205A4C000078012802D10E2001F0DCFC606805F14807854208BF6660404609F04FF838462A
:205A6C0009F082F805F1800009F062F8BDE8F08136230100200D002010B5ADF1180D009009
:205A8C0039480078082801D1002000E004208DF8100007F0B9FF35490860009802F054FBD8
:205AAC0001A800F0A7FD9DF810109DF81000009A009B891CC01C515C185C2D4A00F0FF0006
:205ACC0001F0FF0101EB002188B2C11000EB1170001110809DF810109DF81000009C009B13
:205AEC00234A891CC01C595C205C1388214A00F0FF0001F0FF0101EB002188B28000A0EB43
:205B0C00831010801B48008818B119490888401C0880194900200870154A00989DF8101026
:205B2C001288401801A9FFF7F5FCB0B19DF810100098401803F054FD1049086007F064FF71
:205B4C000E490A680E49B2FBF0F0088007F0A4FB30B907490020088002E0054900200880B5
:205B6C000348008806B010BDA93A00203C1F0020A43A0020A63A0020A83A0020341F0020D2
:205B8C00381F00202DE9F84FD0F88890D0F88CB0D9F80020A2EB0B02B2F5806F88BF4FF496
:205BAC008062C0F89020D0F8908090F894C00C681FFA88F2B4F1804F02FA0CF21FFA82FAD1
:205BCC0014BF314B314B2D4AD9F808703FB94FEA8C050095AD18AE6900F1AE050AE04FEA34
:205BEC008C050095AD182E690CF101050BFB057555446D1E9E6096465D604FEA081643F649
:205C0C00F07204F10805103E1D6032409E68B4F1804F42EA06069E600CBF194E194ED9F8BD
:205C2C0004706FB9CC89009BA0F8AE4073449B69B36000F1AE0737600C6804F108050AE0DB
:205C4C00009B73449B68B3600CF101030BFB037353445B1E33607560B3681A43B260D0F889
:205C6C00A8000A6940684969006811438162606A40F003006062BDE8F88FC046B01D010045
:205C8C00400400201005002000050020300400203EB500902D480068C00801D3022054E094
:205CAC0000992B483CC93CC03CC93CC01EC980E81E002849FF2008602749012008602848FC
:205CCC00264902880968274802F0F0F9264800688047264942F22B000860254942F60B3050
:205CEC00086024494FF48070086023490020086022490120086022490120086021490120C1
:205D0C0008602048006808F0CDFE01900F49086840F0040008601C481B49006820F07C507B
:205D2C0040F034500860019808F0A2FD1748006806F09AFD08F066FE08F073FE06F0ACFD53
:205D4C0008F065FE08F077FE00203EBD10100940181C002000600C4054600C40281C002087
:205D6C00261C002000000E40341C002000500C4004500C4000100E4034500C4018500C40D9
:205D8C0008600C4048600C40003009402C2009402DE9FC4191EA03084CBF4FF000484FF097
:205DAC0000084FEAC32545EA52554FEAC2264FEA43077F0D11BF45F0004500210020BDE878
:205DCC00FC815FF4E06E1EF1FF0E774555D04FEAC12343EA50534FEAC0224FEA4104640DA5
:205DEC0011BF43F0004300210020BDE8FC81744543D0E419A3FB0501A3FB06E7A2FB0663F0
:205E0C001EEB030E57F1000751F10001A2FB05631EEB060E57F1000751F10001FF1851F1BD
:205E2C000001C01951F100014CBF4FF4806E4FF4007E10EB0E0051F1000148BF641C01D494
:205E4C00400049415FF44077FF37E41BDEBF00210020BDE8FC8117F58067BC420DD24FEA24
:205E6C00D02040EA41504FEA41014FEA113141EA045141EA0801BDE8FC810020FF21C90096
:205E8C00C91D090551EA0801BDE8FC812DE9F84F00298346009106DD024600980021401E7A
:205EAC0042F8041BFBD10098DFF8C880DFF8CC900028C8F800B012DD2F48009C0768002599
:205ECC0037F8020B38B1D9F80000AE003158002088474BF80600641E05F10105F0D1284F9B
:205EEC0041460120D7F80080C880B8F1000F23DD4FF0000A00980125002817DDABF10407D5
:205F0C000446002657F8040FB0F1FF3F04D0D9F800107158884738600021B0F1FF3F08BF18
:205F2C000121361D641E01EA0505EBD1012D06D00AF1010AC245DDDB03A007F0EDFE0D4909
:205F4C0000200860BDE8F88F7864632E72756E74696D652E537461727475703A20276D61A0
:205F6C00785061737365732720657863656564656400C0468C3A00205424010058240100CE
:205F8C00502401000EB58DF805208DF80410009002208DF806002F48007810B12E4800789F
:205FAC0008B1012054E09DF8040007F017FA08B902204DE029480068002101F035F808B93D
:205FCC00092045E00098002832D09DF8040000282ED09DF8050058B321489DF804100078B7
:205FEC00884225D19DF80500082821DC9DF804009DF80520009942431A4802F057F81A4898
:20600C009DF804201849007862F34500087017489DF805201549007862F3C70008701449F0
:20602C00087820F08000087000208DF8060009E0009838B90E49087840F080000870002090
:20604C008DF806000548006804F074FA9DF806000EBDC0467239002073390020301E002021
:20606C0070390020D4350020041C0020051C0020F61B00207CB50546084603F047FD364EEB
:20608C0002461821304606F0F9FD07F0F5FC3449103909684C6840F2FF32002380B22C2139
:2060AC0000903046A04708F025FA1C210246304606F0E4FD07F0D2FC02461421304606F050
:2060CC00DDFD07F0CBFE02461021304606F0D6FD284603F0E7FC02460C21304606F0CEFD72
:2060EC00284607F0A3FE1D4C400040F020002070284607F0A7FE40F010002070284607F0C6
:20610C00A9FA02462821304606F0B8FD284607F0B1FE400040F06000E070284607F0B6FED1
:20612C00C00040F0800004F8080C284607F0BAFE800040F47C40A4F89300284606F0E0FDD6
:20614C0002460821304606F099FD4FF48000A4F2091108607CBDC04600A00C4049A10C4084
:20616C00B40100102DE9F84F0C4605465FFA84F8200824BF3148444031494FEA8803C85819
:20618C0084EA00022A40C2F300672E4A05EA0406A843324005F4E0260243B6F5E02F01D15F
:2061AC00500E14D305F4E020074310D002F4E027B7F5A02707D0B7F5803704BF22F40032B6
:2061CC0042F4A02203E022F4803242F4C022DFF878B01E4F012000FA08FACBF800A0DFF835
:2061EC007090CA500146386801FA08F60027064218BF0F1C37B9E80D04D34946C4F3805056
:20620C0001F80800280E0DD308F0A0FC210E34BF0021311C0D4A1268B24311430B4A116057
:20622C0008F06CFC37B1E80D04D34846C4F3805100F80810CBF800A0BDE8F88F006000A089
:20624C0000100840007F077FE0200260D0200240002002400EB500918DF8040002208DF85B
:20626C00050049E09DF8000007F0B8F8002853D09DF800002A4908702A482949294A00780E
:20628C00097861F34500107000208DF8050043E02548007830B12548006800216A4600F02F
:2062AC008DFF02E000982249086000208DF8050032E00098002100B101211E4801700020BA
:2062CC008DF8050028E000981B49086000208DF8050021E00420FCF701FC8DF805001BE078
:2062EC000520FCF7FBFB8DF8050015E00620FCF7F5FB8DF805000FE09DF804000028B1D041
:20630C00401EC5D0401ED4D0401EDCD0401EE1D0401EE5D0401EE9D09DF805000EBDC046CE
:20632C0070390020041C0020723900202C1E002080390020763900207839002038B5314C30
:20634C000D46A8084CD2E8085AD307F099FFA060606804F170050146286878B1006905467E
:20636C0051B18D4208D0696AC90803D3036A04210022984701206875294661604868224912
:20638C0000780860022006F027FA112001F052F901201E4D2075287810B90E2001F04AF97F
:2063AC0060684168886808B9C86810B1184808F0B1F81849184D0720002308602968174855
:2063CC002B606A686B60164B2A68A36140EA02011A20296008F0BCFB192008F0B9FB38BD19
:2063EC00FFF724F9204600F17801096811B903F05DFE38BD00F5847045F0020108F0BEFB5E
:20640C0038BDC046200D0020D0210840362301005100070600000460141004400200004029
:20642C00DD4600002DE9F0471E46904689460746B6F1FF3FADF1480D09D046B1314909ABB4
:20644C006846324606F0DCFE0220694601E0002103200C918DF834002B4DCDF83C902C6851
:20646C00CDF8408008F082FAEFF3118A2025E4190B9085F3118842464946384607F01AFA0C
:20648C00031C33D1002E04BF8AF31188002036D008F0E8F80B99064609A88861204609A926
:2064AC0008F03AFA0B9806F0EBF89DF834000024022802D10C9804F00DF88AF31188304615
:2064CC0006F0B2FEEFF3118385F311880C9810B108F078FB0C940B98846183F311889DF8E7
:2064EC003400002814BF0E9B231C07E00C9818B108F068FB00200C908AF31188184612B0D8
:20650C00BDE8F08775CF0000002401002DE9F0430D46334A314906462B46ADF1240D06F0D5
:20652C0068FB0028306108BF012053D04FF00108002486F814802B48B461A84203D16846B6
:20654C0007F0ACFD6D46A946274D2868274601E07F1C2868B84229DC2448B168244A006816
:20656C0000291AD4B168404617468840F060B168B86908F0C5F9306408F074F8EFF3118584
:20658C000746202080F31188304607F07BFD85F31188384606F048FE06E01146F4604018BD
:2065AC003064314607F056FB204613E0B06B40F827406968FB0003EB071040184268002A6C
:2065CC00C6D0304649469047484607F07BFB0028BED0B81C09B0BDE8F083C046B5DC000050
:2065EC00A1A500007038002088230100182401009035002000B5ADF11C0D009003F08EFC2A
:20660C0008B1012000E000208DF804009DF80400002842D02E480078022803D02C48007861
:20662C00032803D14FF4F220029009E04FF4F020029028480068002100221AA306F002FDCD
:20664C000298102103AA02F0ABFE05F09DFCBDF8120000994880BDF81000FF2801D1002087
:20666C0001E0BDF810000099088005A800990068091D0860BDF818000099C0F30720087251
:20668C00BDF81800009900F0FF0048729DF81A00009988720098FF21C1729DF8040007B062
:2066AC0000BDC046696D67496E666F2E696D6754797065203D2045464C5F494D4147455FC0
:2066CC00494E464F5F414444525F4150502000C00E1F0020A01F0020F8B508F063F803F0C9
:2066EC007DFA08F077F8054605F00C000C2853D0E80826D206F00CFC2A4E376804460120A5
:20670C00014607F036F931686143884219D22649F020B0FBF7F0241A887C18B1C868A042E0
:20672C0038BF041C214D2146284608F04DFA284607F02FFD0120FCF7E9FA284607F0AAF825
:20674C002CE0280928D21A4807F0D4FF0428FAD0184A690905D220B11168104621F0010176
:20676C0003E01046016841F001010160983210684FF0805540F003001060D5F8B80181696E
:20678C00202088470C4CD5F8B8712068B86B804701202060206801E008F0C8F908F008F863
:2067AC00F8BDC046F8230100C8210100C8300020004003408C2108402C2009402DE9F041A0
:2067CC0006467468B56808F0C1F9D4F8881000295ED00F4608F092F92968486820F00200D0
:2067EC0048602968486A20F0030048626869D4F8A8302969084359680968C1F8040529680E
:20680C00486920F001004861286801210162304606F0BAFC7E6808F099F9804694F8E00028
:20682C0078B116F0704F06D12EB1062005F0D6FD042005F0D3FD022005F0D0FD002084F851
:20684C00E000404608F05AF9387C012804BF02203874D4F8A8602969686908437168096841
:20686C00C8622868B0F1804F14BF0B490B49D4F89020D4F88C00896880188904A0EB915011
:20688C00401E386004F1380008F07AF9BDE8F08108F034F9BDE8F081000500203004002094
:2068AC002DE9F04707467D68BE6890468A4608F04DF981463068006B00F48071287800B143
:2068CC0019B1484608F01AF957E005F5827008F039F90024EC77C5F820A06C623168086B1E
:2068EC0040F480700863484608F008F905F2291006F030FF4146384605F0CEFC05F2291924
:20690C00A862A8B93846414604F034FBA878D0B9A96805F1CC0007F098FDE8B1AC621020F9
:20692C00E8773146284602F08BFB05F2291022E008F00CF93268916B41F02001916308F08C
:20694C00DDF8A87810B12046BDE8F087A96805F1CC0007F07AFD10B9686ABDE8F08738467D
:20696C00414604F007FB1020AC623146E877284602F066FB484606F0DDFE4FF0FF30BDE847
:20698C00F08770470EB50191009006F069FA08B901205CE0019840080CD32E492C48009A1C
:2069AC000968008809880843024203D007F054FF02204CE028480068400807D327490120BC
:2069CC000860254800684008FBD203E007F044FF01203CE0019840080AD31E49BDF8000025
:2069EC00096888801A4900980A881043088003E018480068002181800198800805D3154986
:206A0C00BDF800000968C88003E0124800680021C1800198C00805D30E49BDF8000009683F
:206A2C00088103E00B4800680021018107F0EAFF07F0F7FF0A49086840F0400008600849C7
:206A4C00086820F04000086007F006FF00200EBD241C00201C1C00200C500C403C500C40E3
:206A6C0000500C40F8B50F1C054637D107F0FAFDEFF311840646202080F31188287D012878
:206A8C0011D1284607F075FE286C07F06BFE20B12849EA68486890434860A86918B1C0687B
:206AAC0008B108F08FF8287D022808D1A86930B107F05FFEA869C06808B108F083F8287D9A
:206ACC00032803D0284606F01FF802E0284607F050FE84F31188304606F0A6FB012F27D058
:206AEC00686AB0F1FF3F03D0296AEA6907F0D2FD022F1DD0104C2068032F19D0002817DD21
:206B0C00002F14BF3F1F071C002F0BDD002660688019416909B1284688477F1E06F11806F5
:206B2C00F5D1206882000548A96B006807F0B2FDF8BDC04690350020882301002024010079
:206B4C002DE9F04115460446A869A060686A98460E4608B92C4800686062286A002806BF4A
:206B6C002A480768071C07F09BFEEB6983B918B1C1194742491E0F40E7610246E169606A5F
:206B8C00434602F045FE2062A8B90120BDE8F081002804BF2362391C09D04142C018401EBA
:206BAC00084020623F1AE8693F18E7613940E1614FF0FF306062A6622869E062686920639C
:206BCC00A86A6063A88D0128A08703D11149C868401CC86010480068002808DD81000C48CB
:206BEC0000680022434607F0D3FEA06348B120464146FFF78BFC002814BF801C0020BDE8EC
:206C0C00F0810220BDE8F081282401002C24010020240100903500208823010080B502888C
:206C2C00A2F602073FB143F20502BF1A14BF002090F8240000E0C07B2C4AD2F88832401F8F
:206C4C000B6048D0401E3CD0001F30D0801E24D0C01E18D00F380CD0D2F890024860D2F8D3
:206C6C0094028860D2F8BC0220F0784040F080503AE050694860D06A8860506C20F0784019
:206C8C0040F0704030E010694860906A8860106C20F0784040F0F04026E0D0684860506AB1
:206CAC008860D06B20F0784040F0C0401CE090684860106A8860906B20F0784040F0A040DC
:206CCC0012E050684860D0698860506B20F0784040F0405008E01068486090698860106B8E
:206CEC0020F0784040F02050C86080BDC41000502DE9F8430446994690460E1C44BF0020FA
:206D0C00011C5BD407F036FF054631468022204605F0A4F8071C04D097F83F1031F07F011E
:206D2C0006D1284605F078FC02200021BDE8F8834FF0E0400A2107F1200640EA090941EA27
:206D4C00080896E8030008EA000019EA010608BF00281CD0284605F05FFC07F1200003C81E
:206D6C0004F1780604F1780508EA000809EA010986E8000395E80C0007F1200696E8030092
:206D8C0007F120059943904385E8030013E00C48B968884202D0B9682167B86004F1680089
:206DAC0080E80003284605F037FC04F148004FF0FF3107F04AFB783494E80300BDE8F88393
:206DCC0075A70000D0B501460888A0F6020058B143F20402801A04D0401E12D191F8247087
:206DEC0000E00227CE6901E0CF7B4E694EB1304644F238014FF6FF72052306F089F90528FE
:206E0C0001DB0120D0BD06EB800632681F4B781FC2F3034417D01C49401E0FD0001F0BD04B
:206E2C00801E07D0C01E0AD00F381ABF191C6031091D04E0091F02E0083900E00C39086849
:206E4C00C0F3834003E019460868C0F303200F2806D0A04216D922F4702242EA004210E044
:206E6C007F1F0AD07F1F08D07F1F06D00F3F1CBF22F4702242F4802203D122F4002242F4B9
:206E8C00E02232600020D0BD04110050201300502DE9FE4FDFF8C08098F8D10100284FD09A
:206EAC00002501212C4698F8D12101FA04F0104203D1641C032CF6D342E098F8D12110202A
:206ECC00A040104218BF0D1C07F040FE98F8D1211121A1408A4388F8D12107F00FFEE0B2D5
:206EEC0007F000FA60B3877A57B390F9099019490768012D446851F82960019710D0017AE5
:206F0C0002290DD100F1100191E8000C00274FF0805317EA0B0703EA0A0108BF002901D1CF
:206F2C0002F00EF9012D04D0009600224FF0006303E000224FF00073009201984946A04798
:206F4C0098F8D10120B108F59E70002107F016FEBDE8FE8F94300440200D00201EF0040F13
:206F6C0014BFEFF3098169468869EFF3118102B400B5DFF8A0E0F047294A116801EA0000E2
:206F8C0010605DF804EB1EF0080F03D101BC80F31188704704BC1EF0040F14BFEFF3098198
:206FAC006946A1F1200114BF81F309888D464A604FF08070C8611B488861194B186808601E
:206FCC0040F201101860704702B401B4EFF3148100291CBF002282F3148802B402B4DFF8D7
:206FEC0038E0F04701BC01BC00281CBF022181F3148801BCDFF824E0F04705484FF080515A
:20700C00016001BC80F3118800BF00BFFEE7C04604ED00E0A1AC0000B9EA000003EB000022
:20702C0034360020D56F00002DE9F0410E460746B6F1FF3FADF1380D09D046B12B4909ABCE
:20704C006846324606F0DCF80220694601E000210320274C0C91EFF3118825688DF834006D
:20706C002024ED1984F31188788980BB002E04BF88F31188002036D007F0F4FA064607F01B
:20708C0075FC0B9009A9816105F0FAFA284609A907F042FC9DF834000025022802D10C9877
:2070AC0003F018FA88F31188304606F0BDF8EFF3118384F311880C9810B107F083FD0C9587
:2070CC000B98856183F311889DF834000BE07889401E78810C9818B107F074FD00200C906F
:2070EC0088F3118801200EB0BDE8F081F9CF0000102401002B4A2DE9F04180460124A2F144
:20710C003000046024480768002FFCD02649234DC0200B1F28601868800806D253F8040C4D
:20712C001F4B000C40F0F0001870002010600E68304600F035FD40463146FEF79BFF1B4997
:20714C00886D40F21E226FF31F40824215D90868020E12F00F0F02F00F01C0F3034018BFDA
:20716C00491E072805D006280EBF0720801C00F00F0041EA00110E4801703046FEF718F85D
:20718C000C480068C16802208847402028600A4F3C60BDE8F081C0469402224300600C406D
:2071AC005662084040100940B43F0050BC12005002600840A0010010940460422DE9F041ED
:2071CC0016468846044607F0C1FC07462A488325B8F1080F32D8DFE808F0463F3C3137253D
:2071EC00150533C00446207DD0B9206FC0B9316804F5847007F0C6FC316804F59E7007F028
:20720C00C1FC32E00446207D50B9206F40B93168192007F0A3FC31681A2007F09FFC24E04A
:20722C00002522E0306828B1012807D1802004F037FF1AE0802006F049FC16E0032514E0F8
:20724C0030780E49087010E031680446103421600BE03088E08208E001202669607506F1AA
:20726C006000206101E030682060384607F046FC2846BDE8F081C046200D0020F00E00207C
:20728C00ADF1300D2D4800902D48019020200A90009850F8041B00900291009850F8041B01
:2072AC0003910090009850F8041B04910090009850F8041B05910090009850F8041B0691BF
:2072CC000090009850F8041B07910090009850F8041B08910090009850F8041B099100909A
:2072EC000198011D0191029901600198011D0191039901600198011D019104990160019817
:20730C00011D0191059901600198011D0191069901600198011D0191079901600198011D68
:20732C000191089901600198011D0191099901600A98401E0A90ABD10CB07047F8160100C9
:20734C000080002100B5ADF14C0D21490EC90FA880E80E0009A806F032FF1E4809A905F081
:20736C00EDFD1C4807F0C6FA1B490860684606F0FAFE002005900020ADF81000174818494A
:20738C0001226B4605F090FB144807F09BFA15490860154806F04AFF14494FF4806008605B
:2073AC001349032008601448124908600E4A13481349002303F088FF074800680F90042095
:2073CC001090012011900FA804F0EEFF13B000BD1C230100A81E0020501E0020B81C00207F
:2073EC0091E50000581E0020AC1B0020CC1B0020C41B0020C81B002020090020201B0020E1
:20740C003D2F00002DE9B043044607F09FFB81462748221892F8EF10491ECFB2002F82F886
:20742C00EF703FD1254901EB84014A880C78904634F07F0718D1E1090FD24FF0805000F564
:20744C00DC75D0F8B8018169104688472868416B404688470228F9D11EE000EB8800D0F881
:20746C0004110020884717E04FF08055D5F8B801016A10468847D5F8B801816A4046884715
:20748C00D5F8B801016B404688470A4901200860094908688008FCD304F03F00132801DA5B
:2074AC00FFF7B0FF484607F029FB0020BDE8B083BC3000202820086028200840A41C01006D
:2074CC0000B5ADF11C0D0292019100900198002850D003F015FE0490049808B100204AE054
:2074EC0005F002F90490049808B1002043E0009800F0FF00C0F580700590019905988842A2
:20750C0001D90198059002208DF80C000098C0F307408DF80D000098C0F307208DF80E007B
:20752C00009800F0FF008DF80F00059900984018009001980599401A019006F00FFF03A835
:20754C00042104F0E5FD18B106F0FEFE002012E00298059904F0DCFD18B106F0F5FE002080
:20756C0009E0059902984018029006F0EDFE01980028AED1012007B000BD70472DE9F84F2A
:20758C00984691468A46054607F0E0FA834605F0B9FE0AAF061C40D0244C04F1B40007F0CE
:2075AC00D1FAC6F80CA0B4F98C0086F83E90401C6FF31F30A4F88C00C6F808803561B4F848
:2075CC008C00B08797E8060002230B431849002040EA020720223A40194006F1180383E89E
:2075EC00060006F12002014682E80300716331634FF0FF37B763802386F83F3004F17000C0
:20760C0085F8A410314605F0D1FF206F864201D102F04CFDB6F93C4001E06FF0010458467F
:20762C0007F06CFA2046BDE8F88FC046200D0020FFEFFF9FF8B5064607F088FA264D07463E
:20764C00711991F8EF00421C002881F8EF203ED1224C04EB8604267806F03F00132801DA2F
:20766C00FFF7E8FF648836F07F0018D1F0090FD24FF0805000F5DC75D0F8B80141692046E7
:20768C0088472868416B204688470128F9D11EE005EB8405D5F804110120884717E04FF02C
:2076AC008055D5F8B801C16920468847D5F8B801416A20468847D5F8B801C16A20468847B8
:2076CC00074901200860074908688008FCD3384607F014FA0020F8BDBC300020A41C010089
:2076EC00282008602820084000B5ADF13C0D01208DF81800684606F078FD1A4801216A4697
:20770C0005F0EAF9174807F013F917490860174800216A4605F0E0F9144807F009F91449AB
:20772C00086009A806F040FD124809A905F006FC104807F0D9F810490860104806F06BFD57
:20774C000F494FF4806008600E49032008600F480D490860094A0E480E49002303F0B4FD7C
:20776C000FB000BDE81D0020681E0020041E0020701E0020BC1E00206C1E0020701B002077
:20778C00901B0020881B00208C1B002020050020D01A00201D2400002DE9FE4F2748284CB2
:2077AC00002700F180010226ADF104098046BB46009100F18401019159F8045F286878B382
:2077CC002868806906F026FB824628680023524604F062FB1AF00A0F08D1BAF1000F1FD004
:2077EC00286847F48047C8F8880019E028688169236821F0020123EA0100124B2060286816
:20780C00C16954F8082C22EA010044F8080C296803F1080005F0CAFE47F00207C5F800B05E
:20782C00761EC9D127B108F58470394607F0A6F900F062F9FDF74EFDBDE8FE8F200D002027
:20784C0014100440900D00200EB58DF808100090254800788DF809002348007830B1234865
:20786C00006802F067FE2049002008709DF80800002828D10098153001900198407860B9A6
:20788C000098C07D002100B101211748017018480068022101F04CFF24E09DF8090060B169
:2078AC000098027D00991348183200F0FFFB10480068082101F03CFF14E00D480068042192
:2078CC0001F036FF0EE09DF80800072805D108480068042101F02CFF04E00548006804212F
:2078EC0001F026FF0EBDC0467C1E0020681E00206C1E0020FC17002000B5ADF11C0D01914A
:20790C00009020208DF81000019900984018401E0590009800130003009005980099401AAB
:20792C0000F6FF70000B03900020029003980299884234D903F0E4FB0590059808B100209C
