:20000000F82C0020F50C0000290D00008B0C0000270D0000270D0000270D00000000000032
:20002000000000000000000000000000270D0000270D000000000000270D0000270D0000F0
:20004000270D0000270D0000270D0000270D0000270D0000270D0000270D0000270D000000
:20006000270D0000270D0000270D0000270D0000270D0000270D0000270D0000270D0000E0
:20008000270D0000270D0000270D0000270D0000270D0000270D0000270D0000270D0000C0
:2000A000270D0000270D0000270D0000270D0000270D0000270D0000270D0000270D0000A0
:0800C000270D0000270D0000D0
:2000C8002DE9FE4389468046284F38684169062088473868416B062088470128F9D13868A2
:2000E800C1694FF4A06088470125214E214C356020688008FCD33868C1694FF4807088477A
:20010800356020688008FCD31B4EA6F10C01086820F00F00086003203060184D1849286856
:200128000022082713460468CDF800804FF080400197A04713481038006809224FF0FF3337
:200148003946446CCDF800904FF08040A0471C3E306840F0020030602868026902A94FF094
:20016800804090470028F7D1BDE8FE83B8010010282008602820084020000040C40100108C
:20018800006CDC02C4010010F8B5104D2868016A4FF48070884701260D4F0E4C3E6020682E
:2001A8008008FCD32868016A4FF4A06088473E6020688008FCD32868816906208847286857
:2001C800416B062088470228F9D1F8BDB80100102820086028200840BCB50F460546B7B14B
:2001E8000C4C2068826800214FF08040904710B94FF0FF300CE02068C26869464FF08040B3
:2002080090479DF8000028706D1C7F1EE9D10020BCBDC046C40100107CB50C4606467CB182
:20022800084D2868317842684FF0804090472868C26869464FF080409047761C641EF0D194
:2002480000207CBDC40100101CB5064C04F10C000068026969464FF0804090470028F5D1FE
:200268001CBDC046B80100102DE9F041404C444D8046C8F38140401E02D0401E2AD025E09B
:20028800284620300168880C20D24FF4804020603848D0F802204B0AC1F3033703F0800303
:2002A80022F08F02134347EA0302C0F80220D0F801300E0A66F30303C0F80130026801F079
:2002C800E70722F0E70247EA020102E04FF00041204601602C4E301D0068C0F3C0070FB95F
:2002E8004020A0624FF40070206400F0EFFB40F0300084F8C800C8F3815040B3401E03D02F
:20030800401E1FD002211EE0012000F009FB07460420394600F05EFA042000F001FB874241
:20032800FAD1361F366826F07F4000F0CBFA12480068036807214FF06022300E98474FF4F7
:20034800806020600321042000F044FA06E00420012100F03FFA094800F0B4FA2846094FB5
:20036800006800F03F0084F8CB0F3868BDE8F08140A00C400A600840B4010010BD378600B5
:200388006C1300502C200940AC3F00507CB50546084600F0EBF9364E02461821304600F0AD
:2003A800A9FA00F031FB3449103909684C6840F2FF32002380B22C2100903046A04700F0A9
:2003C8008DFB1C210246304600F094FA00F00EFB02461421304600F08DFA00F03BFB024643
:2003E8001021304600F086FA284600F08BF902460C21304600F07EFA284600F013FB1D4CD4
:20040800400040F020002070284600F017FB40F010002070284600F0AFFA02462821304666
:2004280000F068FA284600F021FB400040F06000E070284600F026FBC00040F0800004F8DD
:20044800080C284600F02AFB800040F47C40A4F89300284600F07AFA02460821304600F0B5
:2004680049FA4FF48000A4F2091108607CBDC04600A00C4049A10C40B40100102B4A2DE9A5
:20048800F04180460124A2F13000046024480768002FFCD02649234DC0200B1F286018684A
:2004A800800806D253F8040C1F4B000C40F0F0001870002010600E68304600F097F84046DA
:2004C8003146FFF763FF1B49886D40F21E226FF31F40824215D90868020E12F00F0F02F075
:2004E8000F01C0F3034018BF491E072805D006280EBF0720801C00F00F0041EA00110E485D
:2005080001703046FFF7B0FE0C480068C16802208847402028600A4F3C60BDE8F081C04679
:200528009402224300600C405662084040100940B43F0050BC12005002600840A0010010B7
:2005480094046042264838B560300468B4F1FF3F08BF002400F0AEFA2248234B002501217D
:200568001038056003F15C0001601448016000F061F91348006820B1124800682046FFF75C
:200588007DFF114811490560114C0A686FF35B4244EA020008600F490868C0F30130012884
:2005A80006D10A680C48104040F400320A6008600A4908680028FCD138BDC04608220443EA
:2005C80080012843000120438C210840482003400000390104000940FFFFFCFC0C006842F0
:2005E800BC1200509404604200600C4070B5234C234D0646B00E11D2700E0FD3802020746A
:200608004FF6D801A4F85110207000F041F8D0352868C0F30420162806DB04E02868C0F34C
:200628000460162800DB203800EB2670401C162805DA10F10A0FB8BF6FF0090000E01520D5
:20064800104D00F01F0040F4F850A4F859002868800803D20C490020086001E046F040662E
:200668000A49F00EB50E80F0010000F00100086085F0010000F00100886070BD1562084059
:20068800B81200500000094094042A4300002043184870B50068C0F304611629A8BF203983
:2006A800154B187800F01F001628A8BF203881421ED0124E124C0022012532600A1A022A9D
:2006C80005DC12F1020FB8BF6FF0010200E002228018226800F01F0242F4F852A3F866206C
:2006E80081422560EAD12068256020683560206870BDC04688130050066208409800204374
:200708002C20094038B504461748164D143801686868C1F30352C1F30343400812D22868FF
:20072800050512EB257203D4102AA8BF0F2200E00022000413EB207303D4102BA8BF0F2328
:2007480000E0002343EA021301F47F4201F0FF05222C42EA034245EA020024BF01F080411C
:20076800084338BDAC3F00508C1300500146184880B53C3800688A0CC0F38367C0F38F20BA
:2007880022D241F3072100290BD54A420021400805D17F0806BF0127381C4FF6FF70521E41
:2007A800F5D1002910DD4FF6FF72400040F00100824207D2780040F001070F2F92BF012031
:2007C8000F27101C491EF0D140EA074080BDC0468C1300502DE9FC41144C154F06468846B3
:2007E800700809D320684568002101220B461FFA88F000903846A847B00809D3206845687C
:200808000021022201231FFA88F000903846A847F00809D320681FFA88F600210C22022372
:20082800446800963846A047BDE8FC81A401001000A00C400F4908680028FCD1104A131DFF
:200848000D49186820F0030001430C480068C0080CD2106810F0030F0AD041F003001860F1
:20086800106800F003000328FAD101E041F00101196070470C00684204000020B03F0050B2
:20088800004003400D4808B50068020F0C48036803F0FF03802B28BF002300F07DF801462D
:2008A8004FF0FF30012907D1111C04D0891E04BF143358B208BD0A2008BDC04618130050CF
:2008C800A01000500949020480B5120C41F8082CC0F3074041F8040C012008600448076871
:2008E800002FFCD00020086080BDC04644600C4084088C43B0B51546441800F0F7F80027BD
:2009080000B90127054A394610680028FCD025600120106009B100F0EFF8B0BD00800C40D4
:2009280002460849084810B5042A07BF4FF0C0421D234FF080521C230968CC683421A0475B
:2009480010BDC046A401001000A00C40202838BF07480CD307480C30016808038215920581
:2009680000F47C1001F00F01104340EA0130704700803F408C130050202838BF002008D361
:20098800044810300068C10C01F44071C0F384500843704788130050054800684BF6BE11AF
:2009A8000001B1EB104F14BF4FF0FF30012070471813005008B5044B1B689B699847034AE0
:2009C8000021116008BDC046A801001084046042044908B5096849698847034A00211160F4
:2009E80008BDC046A8010010840460420548183801680348084001F07C4108437047C046F2
:200A0800FCFCFC008C1300500549383908680968C0F3870001F0030140EA01207047C04614
:200A280088130050222804D303480068C0F30070704701207047C0468C130050222804D327
:200A480003480068C0F34070704701207047C0468C13005004481C38006800F47C01000477
:200A6800000C08437047C0468C130050202805D303480C300068C0F30150704700207047CA
:200A88008C130050222804D303480068C0F3C060704700207047C0468C130050222805D313
:200AA8000348001D0068C0F345507047002070478813005008B5FFF76FFF012803D1FFF789
:200AC800E1FE142800DAFEE708BD00000248001D0068C0F3C14070478813005002480C38BC
:200AE8000068C0F30D00704788130050EFF3108072B6704700207047EFF3108062B67047BB
:040B08000020704712
:200B0C00002A4AD05FEA000C8B071CD1830722D1102A08D370B4103A78C978C0103AFBD221
:200B2C0070BC103238D0042A2CD3082A05D30C2A24BF08C908C008C908C008C908C092077F
:200B4C002AD0920F22E00B780370491C401C521E22D08B07F7D1C30714D18307D8D0121F67
:200B6C0012D308C903801B0C4380001D121FF8D20AE008C903701B0A43701B0A83701B0AEB
:200B8C00C370001D121FF4D2121D05D00B780370491C401C521EF9D1604670470022134635
:200BAC000A46194671B510F0030F0BD0002A82BF00F8011BB2F1010210F0030FF6D1002A3F
:200BCC0008BF71BD11F0FF0141EA0121042A18D341EA0141082A0FD30E46102A08D30C4671
:200BEC000D46B2F10F0312F00F0272C0103BFCD812F0080F18BF42C012F0040F18BF40F867
:200C0C00041B12F0020F18BF20F8021B12F0010F18BF017071BDF8B5844640F6FF741CF8CE
:200C2C00013B002210E0481B401E10F8015B7F1E01F8015BF9D103E01CF8010B01F8010B71
:200C4C00521C5B08082AEADA5808F5D21CF8010B1CF8015B05F00F07FF1CC5F30315122FD3
:200C6C0045EA001508D11CF8016B300A24BF1CF8010B60F3DF16BF19AC42D4D1F8BDFEE741
:200C8C00B0B50C480C4DA84210D00C480C4CA0420CD0001BC71054F8040B10F8011B55F844
:200CAC00212054F8041B90477F1EF4D100BF00BFB0BDC0466C0D0000600D0000900D0000CF
:200CCC00800D0000074880F3088800BF00BF00F020F808B1FFF7D4FF00201EF0B5FA012023
:200CEC0000F019F8F82C002008B5FFF729FCFFF7E9BFFFF7C4FF08BDD0F80320C31D084696
:1E0D0C001946FFF7FDBED0F8032008460021FFF749BF0120704700BFFEE7FEE7FEE71B
:200D2C0000002000C215000000001000C214000000000800EF12000000000400EF110000BD
:0E0D4C00000000000000000090FFFF00050600
:200D6000230C0000050D0000130D00000000000002000000141000000001000000FFF000FC
:100D8000700D000000000020780D000014100020FD
:020000040001F9
:20F000002DE9F84F00F03AF9B0F1FF3F4CD04FF4F028B8F5F22F45D8DFF890B0254DDFF8CF
:20F020009C90254CDFF888A05E4640465946102200F01AF9BBF800004FF6FF7181422CD00F
:20F04000378857B3B01C594600880988884224D19AF80000FF2820D12878012805D02878BC
:20F0600002281AD14FF4003000E000204946228809889200890000F071F82088801200216F
:20F080005A4600F0D0F80028E6D080208AF8000059461022404600F0ECF808F58058B8F56B
:20F0A000F22FC2D900F049FABDE8F88F001000200F1000200E1000200C1000200610002016
:20F0C0002DE9F8430C4605460026DFF888804FF4805229034046E1F719FD1F4908888012FE
:20F0E000098801EBA401A1EB802189001FFA81F94019C7B223E000240EE004EB0530B0F5F5
:20F10000805F01D1241DA4B218F80410304600F05FF80646641CA4B2B4F5805F03DAAF424E
:20F12000EBDCA145E9DCAF4207D0290340464FF4805201F58051E1F7E9FC6D1CEDB2AF4231
:20F14000D9DA3046002100F043F8002100F040F8BDE8F88300000020061000202DE9F8432A
:20F16000154680462C0B6818401E060BC91C8F0815F0030F2AD1A64228D31E2E00D925E0AD
:20F18000A64223D34FF48069A64201D11FFA87F9A0B200F055F8C8B903E008F104082D1DD0
:20F1A0007F1E4846411E1FFA81F918B9641CA642E8D20BE040466946042200F055F828B9DB
:20F1C0000099284600F022F80028E6D0BDE8F883D0B50A460021082917DA41F22103C40BE2
:20F1E0000027E60300D001273E46400080B232F07F0701D040F001000EB1584080B252008C
:20F20000D2B2491CC9B20829E9DBD0BD08B50091014604226846E1F7D1FB10B14FF0FF30CC
:20F2200000E0002008BD10B51446FFF749FF2188884203D120886080012000E0002010BDEF
:20F2400008B50003E1F7C8FB10B14FF0FF3000E0002008BD08B5FFF7D3FE41F210004168EF
:20F26000D0F800D0084708BD13460A46194600F00EB813460A46194600F012B808B500F0B5
:20F28000D5F808B1002001E04FF0FF3008BD08B500F07EF808B1002001E04FF0FF3008BDA4
:20F2A00008B500F007F808B1002001E04FF0FF3008BD00002DE9FC4116460F460546002F37
:20F2C00037D04FF0020800F08DF808B1002031E000F004F908B100202CE005F0FF04C4F5FC
:20F2E0008074BC4200D93C468DF80080280C8DF80100280A8DF802008DF803502D193F1BD1
:20F3000000F02CF968460421E0F78AFF18B100F01DF900200EE030462146E0F781FF18B1CB
:20F3200000F014F9002005E0361900F00FF9002FC9D10120BDE8FC8198B500F095F808B9ED
:20F3400000201DE010480F490860104A084602E00368083303600B681F685FB10B681C79D3
:20F3600013461B789C42F3D1541C036824785B79A342EDD100680068002200B101221046F5
:20F3800098BDC046141000202C0D0000101000207CB515460E46044600F024F808B1002046
:20F3A0001FE003208DF80000200C8DF80100200A8DF802008DF8034000F0D0F868460421F0
:20F3C000E0F72EFF18B100F0C1F8002009E028463146E0F705FF024600F0B8F8002002B92B
:20F3E00001207CBD0EB5104800788DF8000000F0B5F8E0F72DFF00F0A9F800F0AFF8684625
:20F400000121E0F70DFF01A80121E0F7E9FE024600F09CF812B16FF0010004E09DF80400F2
:20F420004008EAD200200EBD580D000010B50C480A21E0F749FE0B480068C16B142088472C
:20F4400000F084F800F02EF8041C02D0FFF774FF0446012C01D000F070F8204610BDC046F6
:20F4600000093D00B401001008B50C480068009000F074F804216846E0F7D2FE18B100F0E9
:20F4800065F8002009E006480221E0F7A9FE024600F05CF8002002B9012008BD540D000069
:20F4A000101000201CB5AB208DF8000000F056F801216846E0F7B4FE002400B9012400F062
:20F4C00045F84CB1C8210846411E002889B2FAD1FFF788FF00B1002420461CBD08B509488F
:20F4E00000788DF8000000F039F801216846E0F797FE024600F02AF812B16FF0020000E054
:20F50000002008BD590D000008B5B9208DF8000000F024F801216846E0F782FE00F016F854
:20F5200008BD10B500240A2C06DAFFF705FF18B1641CE4B20A2CF8DB10BD08B5FFF7E4FFC2
:20F54000FFF7EFFFE0F724FE08BD000002484FF48011103801607047A020024002494FF4FB
:0CF56000801008607047C046A0200240E8
:20FFA80000008001100088FFFDFF58003AFFBFF3FFFFFFFFFFFFFFFFFFFFFFFFFFFFFFFFF2
:20FFC800FFFFFFFFFFFFFFFFFFFFFFFFFFFFFFFFFFFFFF00FFFFFFFF00FFFFFFC500C5FFAA
:18FFE800000000FF00000000FFFFFFFFFFFFFFFFFFFFFFFFFFFFFFFF12
:00000001FF
