:020000040000FA
:20101000005000208113000059B70000951300007FB70000AD1300007FB7000000000000D8
:201030000000000000000000000000007FB700007FB70000000000007FB700007FB70000C8
:2010500053B94AB9002908BF00281CBF4FF0FF314FF0FF3000F082B9ADF1080C6DE904CE9C
:2010700000F006F8DDF804E0DDE9022304B070472DE9F04F8C460C460546099E002B4FD1AD
:201090008A4217466BD9B2FA82FEBEF1000F0BD0CEF1200520FA05F501FA0EF345EA030CDC
:2010B00002FA0EF700FA0EF5390CBCFBF1F0BAB201FB10C300FB02F84FEA154C4CEA0344FE
:2010D000A04509D9E41900F1FF3380F02881A04540F2258102383C44C8EB0404B4FBF1F33B
:2010F00001FB134C03FB02F2ACB244EA0C418A4209D9C91903F1FF3480F00F818A4240F205
:201110000C81023B39448A1A43EA00400021002E63D022FA0EF2002386E80C00BDE8F08F08
:201130008B4207D9002E56D0002186E811000846BDE8F08FB3FA83F1002940F09380A3421A
:2011500002D3824200F2FE80851A64EB03039C460120002E41D086E82010BDE8F08F12B9B3
:201170000127B7FBF2F7B7FA87FEBEF1000F36D1E41B4FEA17481FFA87F90121B4FBF8F3B5
:2011900008FB134409FB03F24FEA154C4CEA0444A24207D9E41903F1FF3002D2A24200F246
:2011B000D3800346A41AB4FBF8F008FB104809FB00F9ACB244EA0842914507D9D21900F16E
:2011D000FF3402D2914500F2BA802046C9EB020240EA03409BE731463046BDE8F08F07FAD7
:2011F0000EF7CEF1200C24FA0CF34FEA1748B3FBF8FA1FFA87F908FB1A3520FA0CFC04FA8F
:201210000EF40AFB09FB4CEA040C4FEA1C4242EA05439B4500FA0EF50AD9DB190AF1FF3282
:2012300080F08B809B4540F28880AAF1020A3B44CBEB0303B3FBF8F008FB103300FB09F453
:201250001FFA8CFC4CEA03439C4207D9DB1900F1FF326ED29C426CD902383B441C1B40EA10
:201270000A418BE7C1F1200E8B4022FA0EFC4CEA030C24FA0EF74FEA1C49B7FBF9FA1FFA0C
:201290008CF309FB1A7720FA0EF88C400AFB03F548EA04044FEA144848EA0747BD4202FAF7
:2012B00001F200FA01FB09D917EB0C070AF1FF3041D2BD423FD9AAF1020A67447F1BB7FB4C
:2012D000F9F509FB157705FB03F3A4B244EA0747BB4208D917EB0C0705F1FF3027D2BB42AA
:2012F00025D9023D674445EA0A40A0FB0289FF1A4F4545464C4614D329D066B3BBEB0503E6
:2013100067EB040707FA0EFECB40CF404EEA030386E888000021BDE8F08F2346F3E6184620
:20133000DAE6B8EB020569EB0C040138E5E70546D9E7104692E78246C0E7924678E7023810
:201350003A4443E7084604E7023B3C442AE7C345E7D33C46D1E73146BDE8F08F704700BFC1
:20137000034613F8012B002AFBD1181A01387047034B41F21000C0F20000006885461847F0
:20139000B9130000044B1EF0040F0CBFEFF30880EFF30980184770475BB70000014B0022CB
:2013B0001A60FEE7780D002070B50AF0B5FB09F0D9FC144B144A0021934202D243F8041B9B
:2013D000FAE7124A124B9A4206D1124B124C0025E41AA4101E4608E01049043A8B42F4D2A8
:2013F00052F8040F43F8040BF8E7A54204D056F8253098470135F8E701F0A0FABDE8704025
:20141000FFF7C0BFC809002090220020FCCC0000200500208CBB00008CBB0000E4080020DD
:2014300010B5124B124C1B78236801215B6811489847236801221B6811460E48984706F02E
:201450005DFD0D4806F002F900B1FEE701F0A2FF01F0C6FF08F03AF905F012FD07F0B6FA28
:2014700008F05CF8BDE8104002F0DABC8C220020D801001000400340D8BB000007B502F018
:201490001FF800F03BFA02A8002320F8023D4FF0FF3202210AF0EFF918B941F23423ADF867
:2014B0000630BDF8060000F0F3FA0821054800F029FE01F003FF06200AF05BF903B05DF852
:2014D00004FB00BF2C1B00207FB508220DEB02000021009101910AF00CFB08210DEB010018
:1014F00000F010FE434D9DF80F309DF80E40EE6A4F
:2015000043EA04244AF6CD310220B04721460320B0473D4C08226B6B0DEB02010B20984710
:201520002368022B07DD394A39493A4802F07EF8394802F07BF82368022B07DD334A3449A4
:20154000344802F073F8354802F070F8AD6A69460120A8472368022B08DD2D492B4A2D4808
:2015600002F064F800992E4802F060F801A90220A84730B92368022B03DD0199294802F08B
:2015800055F82368022B02DD274802F04FF82368022B09DD1E491D4A1E4802F047F8234B4E
:2015A0002348198802F042F80AF09CF823680546022B08DD1649154A164802F037F86900D7
:2015C0001C4802F033F82368022B09DD10490F4A104802F02BF8184B1848196802F026F879
:2015E0002368022B09DD0A49084A0A4802F01EF8134B1448196802F019F807200AF0C1F836
:2016000004B070BDA0BC0000FC0600209CC90000AAC90000AFC90000BEC90000D3C90000F8
:20162000F5C9000004CA0000B2CA00002A1B002013CA000020CA00001021084036CA0000FD
:20164000040009404CCA000010B50D4B1B6843B10C4B4FF480721A600B4B00221A6001F0AA
:2016600005FD0A4B1B6823B1BDE81040084B1B681847084B14201B68BDE810401B6A1847AF
:20168000A000244304200940A002244380002443D8100020B001001010B58CB002F0B2FF79
:2016A0000446684602F0E8FC6B460022154903A802F012FE03A802F0BFFD134B1B6803B988
:2016C000FEE71B6D114A136003B9FEE71049142009F040F80F4BE0211B6814209B6898477C
:2016E0000D4B24211B6801201B6898470B4A2046136823F4E02343F44033136002F08AFF5F
:201700000CB010BDFBB7000008ED00E0D810002049160000B0010010840100100020094093
:20172000024B01221860024B1A6070471C200940A0022443014802F0F9BD00BFDC100020F9
:2017400010B5064C236823F00203236002F0F6FF236843F00203236010BD00BF10E000E0C3
:201760007FB503A802F088FC002203AB124913488DF80C20049202F0AFFD01A802F0E8FD29
:20178000029B0F4ADB09013B13600E490F2008F0E1FF0D4B1A6842F002021A601A6842F024
:2017A00002021A601A6842F005021A60074B01221A6007B05DF804FB2BB80000DC1000208D
:2017C00014E000E03DB8000010E000E00400244338B501F0D1FAB8B10AF012F8044601F0B4
:2017E000D3FA231A002B03DB01F04AFA00240DE0041B02F0B5FDC20111480023A4FB0001EE
:20180000FFF726FC044601E04FF0FF3400F032F8054602F0A5FDB5FBF0F0A042014628BF7A
:20182000214641B14B1C08D0064802F083FD054802F010FD01E0084638BD012038BD00BF0B
:2018400040420F00DC1000201FB508F097FD01A808F0DCFD0123002001A98DF808308DF8E1
:20186000090008F0B3FD024B186005B05DF804FB0011002007B50D4B186810F0010012D041
:20188000684602F065FD0A4B0A491868019A0023A0FB0101FFF7DCFB40F2DC5398428CBF70
:2018A000A0F2DC50012003B05DF804FB08000840040008400048E80110B5064C4FF47A7130
:2018C000206808F0AFFD01462068BDE8104008F0A5BD00BF0011002070B5094C236873B1A5
:2018E000084D26682878B04723689E4207D1064B2946BDE870400122186807F045BF70BD4B
:2019000004110020E42000200811002070B50F4E8AB03578BDB901A807F028FF4FF4E13338
:2019200007930B4B012401A9284604938DF804408DF805508DF819408DF8184007F0F6FE9A
:20194000044B347018600AB070BD00BFE5200020D918000008110020054B0A461B7823B120
:20196000044B0146186807F013BF4FF0FF307047E52000200811002008B50549054806F0B7
:2019800039F8054B05491860BDE8084005F0EABFCC050020101100200C11002077B80000D7
:2019A00070B5064605F0E4FF0446064D0146286806F074F804F4E02131432868BDE87040B6
:2019C00006F09EB80C110020F8B51C4D0C462F68064605F0CDFF0146384606F05FF804F06C
:2019E0000303012B06D0022B154B14BF4FF000421A4600E0134AE10648BF42F04042230696
:201A000015D504F00C04082C08D00C2C0BD0042C0DD142F0004242F4C02208E042F00042C3
:201A200042F4A02203E042F0004242F4E022324328680549BDE8F84005F0C2BF0C1100203C
:201A4000004000800020008000600740064B1B68C340DB074CBF054B054B1B6823FA00F08B
:201A600000F00100704700BFD020024080200240C020024010B5094A9468D16892E80900F9
:201A8000A0EB731083EAF4330C4401441844D06013605460916080B210BD00BF1C11002060
:201AA000064B074A10B51A60D860986058601424FFF7E0FF013CFBD110BD00BF1C1100206E
:201AC000ED5EEAF17FB503A804F076FE00238DF8103003930D494FF0FF33059301234B80CD
:201AE0004FF440020023CDE900230948094B03AA04F066FE084B1880033080B201288CBFF7
:201B00000020012007B05DF804FB00BF18060020C80900201D1B0000281B002038B50E4BAA
:201B200014461B681B79ABB902F400020023134302D00A4801F08EFA04F48004002554EAE3
:201B4000050307D0064B01221A700448BDE8384001F080BA38BD00BF64110020D0050020D6
:201B6000E720002038B50B4A5388013B9BB2012B94BF012500250BD840F20443064C53804D
:201B8000B4F900100122054804F0C2FF00232380284638BD18060020281B0020C8090020A8
:201BA00030B5144D87B001224FF0FF31284604F0BDFF03A804F000FE0F494FF0FF330593FA
:201BC000012300244B8000220023CDE900232846234603AA8DF81040039404F0F1FD284694
:201BE00004F04EFF054801F0D9F82046044B1C7007B030BDC80900203C1100202C110020F5
:201C0000E62000202DE9F04387B003A804F0D4FD164D174900244FF0010800260027A1F899
:201C20000280234603AA4FF0FF39CDE9006728468DF810400394CDF8149004F0C1FD03A8D8
:201C400004F0BAFD0B4923460C61A1F8028003AACDE9006728468DF810400394CDF8149087
:201C600004F0AEFD204607B0BDE8F083C80900203C1100205011002040F609020A4B0121F9
:201C80001A805A7B61F303025A7340F60A02074B1A805A7B61F303025A7305490346054AA0
:201CA000054803F057BE00BF3C1100205011002008060020E0050020C80900202DE9F043B5
:201CC00087B0FFF74FFF2B4B80461B682A4C1B790BB303A804F070FD4FF0FF3205920020CF
:201CE0000122002162800023CDE9000103AA214622488DF81030039304F062FD0446B8F1C5
:201D0000000F01D0FFF7DEFEE01C80B201288CBF002001202BE0A1460425002600270123A2
:201D2000638000231A46CDE900671349134804F08FFE002100F00F0050EA010306D040F67E
:201D40000902B9F802309BB293420BD0B8F1000F01D0FFF7B7FE608880B2B0F5806018BFEE
:201D6000012004E0013D15F0FF05D8D1EEE707B0BDE8F08364110020A4060020C80900207A
:201D80002DE9F04786B0044603A804F015FD2E4D4FF0FF3205924FF0000801224FF0000991
:201DA00000236A80CDE9008903AA294627488DF81030039304F004FDC31C9BB2012B8246DC
:201DC00001D801203CE0FFF7CDFE214E074633681B79D3B10C3409F011FDA4B24FF4A0033A
:201DE0005C431C4B23441C4C93FBF4F300EB43046B8803F4406313B14FF000080CE009F0EA
:201E0000FDFC001B0028F3DBF6E742464B4651460E4804F015FE80460FB1FFF753FE336866
:201E2000187930B16B889BB2B3F5505FC9D1002006E008F00F084FF0000958EA0903C0D0C4
:201E400006B0BDE8F08700BFBC060020C80900206411002020A15F0240420F002DE970430D
:201E6000274A86B053880546013B9BB2012B164641D9B8B103A804F09FFC4FF0FF322149ED
:201E8000002305924FF0000801224FF000094A800B6103AACDE900891B488DF810300393F6
:201EA00004F08EFC03A804F087FC00238DF8103003934FF0FF33059301244FF4400200232E
:201EC00074800F49CDE900230F48104B03AA04F077FC0F4B1880033080B2A04209D955B1F6
:201EE0000C4B1C700C4B1B681C7924B90B4801F0B1F8204600E0002006B0BDE8708300BF53
:201F00001806002050110020C80900201D1B0000281B0020E620002064110020D0050020C6
:201F200010B50C4A5388013B9BB2012B0FD840F20443094C5380B4F900100122074804F04B
:201F4000E7FD00238338238018BF012010BD002010BD00BF18060020281B0020C809002019
:201F60002DE9F843038805460C46002B45D0B3F5537F04D0002303800320BDE8F8838229C6
:201F800001D0882C3CD12C4B1A787AB100221A70FFF770FD4FF4A063B0FBF3F101FB130088
:201FA00081B201F5AF41254809F0C8FC822C2AD1234C244EA146FFF77FFC01F0E7FA27699A
:201FC00001F0C2FA8021B8473378074643B14FF0000886F80080FFF7A3FF4046FFF73EFF32
:201FE000002F05DDB8B201F097FA174BDB689847D9F81C3098470028DDD14FF453732B80DA
:202000000120BDE8F883882CF7D10C4809F0A8FC0028F2D0FFF72EFD0446FFF74FFE4FF437
:20202000A062B4FBF2F302FB134189B201F5AF41024809F083FCE0E7E62000202C1100208C
:20204000A0BC0000E720002070C700000022F0B51646144B9427C3F85C02191D4FF0860E67
:2020600007FB02350E706C79032A04F0FC0460F383046C7102F101020CBF0A4C01F190044F
:20208000042AA1F802E041F8044C01F19401E7D10022C3F85032C3F85422C3F858320248B0
:2020A000F0BD00BF68110020B8130020F8B5002427460A4E04F10800D6F85C2200213044BC
:2020C00009F01FFD33199434B4F5147F034D1F71F0D1C5F85052C5F85852F8BD68110020E6
:2020E000014BD3F8580270476811002038B5084C0021D4F85852D4F85C2205F1080009F006
:2021000000FD00232B712B68C4F8583238BD00BF68110020082917D800238B4205DA0C4A98
:20212000D25CFF2A03D10133F7E70A4B00E0084B19440138013B0139994203D00A7800F8A6
:20214000012FF8E7002070474FF0FF30704700BFC83F0050F01200502DE9F041174C2368D7
:202160001B6B984780F0010010F0FF0505D0236840F60101186804F0F5FC03F015FD104B28
:2021800007461A780F4E12B100221A700CE03368984209D2D4F8008009F030FB2268C8F89E
:2021A0002800D36A0133D36237602DB12368BDE8F041186804F064BCBDE8F081641100203C
:2021C00090080020C813002010B5FFF7C5FFBDE81040044B044A186804490023083000F023
:2021E000F3BC00BF64110020C92100006F0C010010B5FFF7B1FFBDE81040044B044A1868F9
:202200004BF2F4210023083000F0DEBC64110020C92100002DE9F0410446DFF858800D4675
:20222000FFF79AFFD8F80030B4F1404FDE6A0AD909F0E4FAD8F800309A6A0D4B9B1AC342C3
:2022400001D516F1FF362A194FF000004FEAE57343F10003841846EB0305290243F609528E
:202260000023200241EA1461FEF7F2FEBDE8F0818690F3FE64110020034B588880B2831EE1
:2022800058425841704700BF1806002059B10C2807D1042A07D1054B0020D3F804310B6060
:2022A0007047012070470220704700BFCC13002070B5114C054694F8FC300BB1FFF7A2FC23
:2022C000C8236B4303F5522202F695324FF47A71B2FBF1F3094E98B206FB03231B04B3FBE6
:2022E000F1F3074A9BB2D0811382FFF7E7FC08B9A4F8FA5070BD00BFCC13002018FCFFFFF9
:20230000A406002070B51A4B5A881E4692B2022A1FD05B889BB2012B05D00020FFF79EFDE2
:2023200018B1C0B222E0002500E0012509F066FA6FF03F04241A73889BB2022B04D17388B7
:202340009BB2022B0FD105E009F058FAC442F2D4F5E70025074B186804F008FC044625B13C
:20236000FFF7DEFD01E0012000E0204640B270BD18060020CC13002013B50C460191002913
:2023800073D0182873D8DFE800F00D1472722B583745495054727272585B5D627272727237
:2023A00072726C00334B93F8FC30003318BF012358E03149CA89098A93B289B24FF47A7223
:2023C00051435A4301F57F41A2F55223FF31A3F6953303EB2143C822B3FBF2F3DBB241E0FC
:2023E0000020244B08601B79002B3CD0019A136843F0040313603BE0204B01AA19681D4B3E
:20240000186809F076FA18B9019B1B687F2B2AD103202DE0174B93F9F83023E0FFF772FF8E
:202420002060019B1B688033F1E7124B93F9003118E0104B93F8013114E00020086017E0D5
:2024400021230FE00D4B1B6893F900300AE00C4B0A4A1B68126803EB8303134413F9053C08
:2024600000E07D232360002002E0022000E0012002B010BDCC130020A40600206CC70000B9
:2024800068C7000010B5054C94F8FC3023B1FFF787FB002384F8FC30002010BDCC1300203C
:2024A00010B5FFF71DFE034600241A791B68023A012A98BF01349842F7D12CB1034B1B796F
:2024C00013B9034800F0C6FD204610BDCC130020D00500207D2908B50A4605D801460348E9
:2024E00009F004FB002008BD012008BD021400202DE9F34188460746FFF7F2FD054609F055
:202500007DF92B4C241A2B79022B04D02E79F6B2032E49D104E009F071F9C442F3D4F5E761
:202520002C89052C02D8FFF7E1FD3DE0063CA4B24445F8D80A3522462946384609F0D6FA9C
:202540001C4F2B5D6FF0630287F800315BB20A2BA8BF0A239342B8BF134664336E22C3EBC4
:20256000032393FBF2F3611C042229440DEB020087F8013109F0BAFA40F6C8210198FFF7AC
:2025800049FE3B79C7F8040153B997F90011042089B201F021F897F80111304601F01CF84A
:2025A000FFF7A4FD204600E0002002B0BDE8F081FAFEFFFFCC13002008B50C4B5B889BB21D
:2025C000022B11D0FFF79EFE10F1800F07D0084B93F9F8308342CCBF0020012000E002205A
:2025E000B0FA80F0400908BD002008BDBC060020CC13002010B5094C94F8FC304BB9FFF721
:2026000055FD0120FFF72AFC012320B984F8FC3010BD002010BD184610BD00BFCC130020E3
:2026200038B50C46072854D8DFE800F00411535332451D4E012905D1FFF7DCFF002846D09D
:20264000032038BD002946D1FFF71CFF3FE0234B88B22228B3F8FA3028BF1920834236D040
:20266000FFF726FEEAE71E4B62B2196891F90030934230DC1B4B1B6803EB83030B4413F91E
:20268000053C934227DB154B186809F024F9D5E731F004051FD1114BC1F380041A791C71A2
:2026A000A24214D093F8FC308BB1FFF739FC2846FFF7D4FBC2E731F001000CD1074B01F016
:2026C000010283F8FD2038BD044B83F8F810002038BD012038BD022038BD00BFCC13002098
:2026E0006CC7000068C700007D2870B5064620D8114C63889BB2022B1BD0104D95F8FD30A6
:202700008BB9331D85F83430002385F83530B31C9BB223820A4B3046E361FFF731FB00301D
:2027200018BF012070BDFFF747FF0028E9D1022070BD012070BD00BFBC060020CC13002019
:202740000014002030B52D4B2D4C89B0236322682C4B1C60002A4CD12B49A62384F8F8300B
:202760000B7E2A4D62F30203DBB243F008030B7640F262330B84052381F824302448254B8C
:20278000102183612B6140F203732B83AB7EC17361F30503AB760220FC2384F8FC206A61C4
:2027A000AB77FFF753FC04F1EC03A86201A8EB6204F0CAF94FF4FA6301A80193FFF75CFAEE
:2027C0002060C0B11920FFF773FD134B7E21186804F046FA114BC0F315029A42014602D09D
:2027E000206804F0D5F9FFF703FD00210C4800F019FC002000E0012009B030BD79220000BD
:20280000CC13002064110020E005002018060020BC0600204E9055006CC70000FFFF3F005C
:20282000D005002010B5094C94F8FC300BB9002010BDFFF767FD10F1800FF8D094F9F830B9
:202840008342CCBF0020012010BD00BFCC1300202DE9F0411A4A1B4BDFF884E052F81C8C1E
:2028600052F818CC52F8147C52F8106C52F80C5C52F8084C52F8040C52F8201C203343F8CC
:20288000201C43F81C8C43F818CC43F8147C43F8106C43F80C5C43F8084C43F8040C734543
:2028A00002F12002DAD1084B084A1A62084A5A62084A9A62084ADA62084A1A63BDE8F08168
:2028C000D4C0000000C0002180C60021603953632010101A136F236E11161216546B0070E2
:2028E000A0C6002108B54FF477721449144809F0FDF8144B00221A70012203F8172C022231
:2029000003F81B2C032203F8192C04229A770522DA76062203F80F2C072203F8432C082247
:2029200003F8252C092203F8232C0A2203F8202C0B2203F8582C044A1A6308BDD8BC000093
:202940001C040021900300217906002110B54F4CFEF76EFDFEF704FF09F00DF800F0E0FA62
:2029600000214B4800F05EFB00F0F8F8FEF76CFF08F0E3FF00F08EFBFEF788FD00F048FE17
:2029800000F0B8FD00F042FA2368022B07DD414A4149424800F04AFE414800F047FE2368AA
:2029A000022B09DD3C493B4A3C4800F03FFE3D4B3D48196800F03AFE2368022B09DD364976
:2029C000344A364800F032FE384B3948196800F02DFE2368022B09DD2F492E4A2F4800F046
:2029E00025FE344B3448196800F020FE2368022B09DD2949274A294800F018FE4AF6CD31F4
:202A00002E4800F013FE2368022B08DD2249214A224800F00BFE1921294800F007FE23683E
:202A2000022B09DD1C491B4A1C4800F0FFFD254B2548198800F0FAFD2368022B07DD154A09
:202A40001549164800F0F2FD204800F0EFFD2368022B02DD1E4800F0BBF92368022B02DD5F
:202A60001C4800F0E3FDFEF737FD1B4808F05BFF08F0EDFE00F06CFA0446FEF71DFF14F0AC
:202A8000FF0FF7D108F0AAFEF4E700BFFC060020EC06002092CA0000AAC90000AFC90000AB
:202AA00097CA00009CC70000B4CA00008CC70000C3CA000070C70000CECA0000D9CA000082
:202AC000F3CA00002A1B002013CB000020CB00002C1B0020B2CA0000F0C70000F8B5038839
:202AE000064615462BB14A2B15D0002303800320F8BD174808F063FF04462CB1A168201D55
:202B000008F01CFF2468F8E7124B01221A704A2333800120F8BD8829FBD10D4808F04FFF1F
:202B20000446002CF3D0231D9D420ED12146084808F04FFF084B62691F681A60A2691D46D4
:202B40000AB1E06990472F60E1E72468E9E700BFD4140020E8200020E014002010B5064BCE
:202B6000002406481C7008F027FF2146BDE81040034800F057BA00BFE8200020D4140020A2
:202B8000DC06002070B50446E3610B4B049D1B786561A26143B1094D094B2E68201D2B6031
:202BA00008F0CCFE2E6000E0A1602146BDE87040044808F021BF00BFE8200020E014002009
:202BC000DC060020D414002013B5034C24680094FFF7D8FF02B010BDE014002010B5084B3C
:202BE00004461B781BB1043000F0D8F801E0C36003612146BDE81040024808F0EABE00BFCB
:202C0000E8200020D414002010B50A4B04461B7823B1BDE81040043008F0A2BE064808F0F2
:202C2000CEFE18B1A04203D00068FAE7012010BD002010BDE8200020D414002010B50E4CD7
:202C4000236813B90D4A136010BD08F0D9FD216891E80C001A44131A8A6842B192E81200AE
:202C60002144091A8B4228BF0B469268F5E71844024B186010BD00BFD8140020DC14002028
:202C8000014800F0E7B900BFEC0600202DE9F8430388054633B1592B0BD000230380032057
:202CA000BDE8F883234A136059232B800120BDE8F883872924D08229F6D11E4F4FF00008E2
:202CC000B9463C680026002CEED0204608F05CFE98B122468821E06800F07CF958B9E06031
:202CE000A3680EB1B36001E0C9F80030C4F80880FFF7A4FFE5E7FFF7C3FF2646A468E2E783
:202D00000C4900200B681BB90028CDD00B60CBE7DC68A24202D19B680120F4E700B10B60FF
:202D200099680029C0D0C86882420ABF89680B469960F5E7D814002010B50446FFF7A0FF55
:202D4000E3680B4A4BB113683BB1A34203D1094A1268DA6007E09B68F6E7064B1B68E360D2
:202D600013681460A360BDE81040FFF767BF00BFD8140020E0140020024B1868003018BF9D
:202D800001207047D8140020024B186808B1024B18687047D8140020DC14002010B50B4A0F
:202DA00004461368834206D18368136008E09A68944203D01346002BF9D103E0A2689A608C
:202DC000FFF73CFF0023A360E36010BDD814002038B5054608B1002409E00948BDE8384014
:202DE00000F024BCE30702D4064800F01FFC295D0548013400F01AFC082CF3D138BD00BF30
:202E000050CB00005FCB000061CB0000034A9179D379034A03EB0123138070472C1B00208E
:202E20002A1B002038B5836804460D469BB10A4804600220A07304F10C009847023801283E
:202E400001D9832D05D121462046BDE8384000F005B80123A37338BDE01400202DE9F843E7
:202E60001C4A0446156889462B4690461A4E3768A34204D00BB11B68FAE7BDE8F88334B328
:202E8000A37BABB10023A37345B1A54204D022468721284608F069FD2D68F5E7A3683BB18A
:202EA0004C4505D034602A46832104F10C009847D8F800309C4203D12268064B05E0134659
:202EC00023B11A689442FAD122681A603760BDE8F88300BFE4140020E0140020002370B50D
:202EE0001D46094A01261370084A146854B1E37B33B1A673E573002282212046FFF792FF3A
:202F00002468F3E770BD00BFEB200020E4140020024B1878421C1A70704700BFEC200020B5
:202F2000064B8A221A70064A00231370054A1370054A1360054A1360704700BFEC2000201C
:202F4000E9200020EA200020E4140020E01400202DE9F0411A4D2B780BB1FFF7BFFF194CCC
:202F600022783AB3184E0C213378184F5943781817F8018001334768806803F01F03013A4E
:202F80003370227068B9124B1E689EB12B780BB1FFF7A4FF30463A46414608F0E6FC3668BC
:202FA000F3E7B8F1810F04BF012383733A46414608F0DBFC2B7820781844BDE8F08100BFDF
:202FC000EB200020EA200020E9200020E8140020E4140020F0B50B4E3378202B0FD00A4C16
:202FE0000C252478094F1C4404F01F046C4301333D19A86039556A6033700020F0BD01200B
:20300000F0BD00BFEA200020E9200020E814002038B5034C256808F0A8FC256038BD00BF37
:20302000E014002030B40A4C0A4625682B4683420CD00BB11B68FAE740B1012105608173C7
:2030400020608381812130BCFFF7E2BF30BC7047E414002038B1837B013B012B9FBF024A13
:203060000123C37313707047EB20002010B5084C206858B100232360816843689847236843
:2030800023B1BDE810401868FEF74ABB10BD00BF6816002082B0074B02AA42F8043DCD212A
:2030A000934202D203F8011BFAE70348002102B0FFF7B8BF902300200007002038B5FEF708
:2030C000FBFB0C4C0C4B22780B4DCD2A06D09C4207D20134F7E7AC4203D201342378CD2B37
:2030E000F9D0FEF7E9FBAC423ABF0348001B4FF0FF3038BD902300200050002070B503888B
:2031000005462BB1912B0BD000230380032070BD4FF4A0611B4808F011FC91232B8003E00D
:20312000184808F01DFC08B9012070BDFFF7C6FF154C164B061EA3EB040401DB002C0CDAEA
:20314000134B1B68002B18DD124A1349134800F06DFA2246314612480DE0A6420DDD0C4BB5
:203160001B68002B09DD0B4A0B490C4800F05EFA224631460B4800F059FA024808F0E7FBDD
:20318000CBE700BF6C1600209023002000500020FC060020DECB0000E4CB0000AFC90000E7
:2031A000E8CB000012CC000010B5044690F84C30084A013380F84C30802103462030FFF7C1
:2031C00003FD054B2246BDE8104019780020FFF701BF00BFA9310000ED20002070B5038865
:2031E0000446C3B1B3F5867F03D000230380032070BD822912D108F042FBBFF35F8F114BDC
:2032000000221E681A60BFF35F8F08F03AFB0E4D55F8040F20B94FF486732380012070BDFE
:2032200090F8453026FA03F3DB07F1D5FFF7ECFC0028EDD02B68054A02211846FFF7C4FCF7
:20324000E6E700BF7C160020BC05002069320000034A1368184310600248FFF7FBBE00BF69
:203260007C1600201007002070B50446FFF7CCFC20B304F120063046FFF7C6FC054620466B
:2032800008F0EEFB01280CD1C5B1002523460C4A84F84C507E213046FFF796FC2246094B7C
:2032A00006E058B955B93046FFF798FC2246064B2846BDE870401978FFF78CBE70BD00BFD0
:2032C000A9310000EF200020EE2000202DE9F843FFF71EFE1F4B204C1870FFF719FE1F4B7F
:2032E0001F4D1870FFF714FE1E4B1F4E18700023A3601E4B01276360296819B38B6C91F81D
:20330000459043F08C0801F07DF9326807FA09F322EA0303336001F07DF92B68414693F862
:203320004500FEF751FB2B6893F84500FEF738FB55F8043B93F8453007FA03F2A368134399
:20334000A360D9E70A48FFF76DFEBDE8F843024800F010B8EF20002080160020EE20002002
:20336000C0050020ED200020D020024051320000100700200146014808F03EBB8C1600200C
:2033800038B50546064808F01AFB04463CB1A068284002D0636803B198472468F6E738BD65
:2033A0008C16002008B5034808F006FBBDE80840FEF7E2BA8C1600200C4930B50022012588
:2033C00040FA02F3DB070CD501EB42035C7811F8123003F1804303F508330CB11D7000E097
:2033E0001C700132022AEBD130BD00BF79CA00002DE9F041DFF834800B4E0025012718F8AF
:20340000154001F0FFF8326807FA04F322EA030213433360013501F0FDF8022DEFD1BDE833
:20342000F0410320FFF7C8BFD020024079CA000070B505880446672D09D0792D32D0002D08
:2034400036D1FFF765FD1D4B18701D4B1D601C4D2E461C4808F0F4FA431C01D167231FE057
:203460000A28174A09D00D2807D02B687E2BF0DC5A1C3260144AD054EBE713680025591C5B
:203480001160114A2846D5540C4B1978FFF7A2FD0E4B2A4685211868FFF79CFD20B9792359
:2034A000238009E0852907D1054B00221A60CEE700230380032070BD012070BD7021002064
:2034C000981600209016002071210020E014002008B505490548802208F0ABFABDE808400E
:2034E00000210348FFF79EBDF02000209016002020070020054B10B51B689847044B5B6849
:203500009847BDE81040034B5B681847A0BC000070C700008CC70000014B1880704700BF27
:20352000341B0020014B1888704700BF341B0020034A044B10781B781844C0B2704700BF50
:20354000F1210020601B002008B5FFF7F1FF014B184408BD9C16002038B5094D094C1A22E8
:203560000021094808F0CDFA2946204608F08AFA294604F10800BDE8384008F083BA00BF4C
:2035800094C90000501B0020361B0020044A00231380044A1380044A1370FFF7DDBF00BFCB
:2035A000601B0020341B0020F121002038B50C460546FFF7EBFF802C28BF80242246294657
:2035C000034808F093FA034B20461C8038BD00BF9C160020341B0020024B23F8101001202D
:2035E000704700BF361B002008B5044B0D3803EBC00008F047FA012008BD00BF501B00207C
:20360000024B0D3803EBC000704700BF501B002008B5044808F0FDF9BDE80840024808F043
:20362000F8B900BF3C070020300700200FB407B504AA52F8041B0448019200F021F803B02F
:203640005DF804EB04B070474807002070B505460C46102C07D92B681022084968689847A9
:2036600050B9103CF5E734B12B68224668680349BDE870401847204670BD00BF5ACC0000F1
:203680002DE9F04F064615468FB006914FF0000B069B1B78CBB1069C274617F8013B1BB138
:2036A000252B14D03C46F7E7069BA3420DD0069B0699C3EB04084246336870689847002817
:2036C00040F025832378C34423B958463AE3069BA342ECD16378002BF7D0394600240846D8
:2036E00010F8013B0A462B2B11D006D8202B11D0232B12D144F0080416E02D2B04D0302B07
:203700000BD144F010040FE044F001040CE044F0060409E044F0020406E0A3F13107082F27
:2037200011D84FF0000801E00146D8E70A4611F8013BA3F13000092813D80A2202FB083894
:20374000A8F13008F2E72A2B09D12B680246002B05F10405B8BF44F00104984601E04FF0DD
:20376000000813782E2B1AD15178531CA1F1300009280ED8194600270A780B46A2F1300045
:20378000092801F101010DD80A2303FB0727303FF2E72A2904D12F68931C043502E013469C
:2037A0004FF0FF371A786C2A09D15A786C2A02D144F080040AE0013344F0600411E0682A66
:2037C0000AD15A78682A03D144F02004023308E0013344F0400404E07A2A04BF44F06004D2
:2037E00001331A78642A3CD01FD8462A48D00DD8252A5AD003D8002A3FF467AF57E0412A9C
:203800004AD0452A53D144F4424450E0582A31D004D8472A4BD144F4A13448E0612A38D059
:20382000632A44D144F4A06441E06E2A3AD007D8662A22D027D3672A28D0692A11D036E079
:20384000732A2CD006D86F2A11D0702A2FD144F440742CE0752A07D0782A28D144F4C85480
:2038600025E044F4245422E044F410641FE044F488541CE044F4B24419E044F4007416E00D
:2038800044F4844413E044F4024410E044F481340DE044F4C1340AE044F4E13407E044F46A
:2038A000806404E044F4E06401E044F4C0640133069304F4E063B3F5806F00F08F8113D8FD
:2038C000B3F5807F27D0B3F5407F7FF4E1AEAE4B14F4804FAD4A18BF1A460DF1330328681F
:2038E000002104351F46B5E1B3F5C06F08D0B3F5E06F00F02282B3F5A06F7FF4C9AEF2E1C5
:2039000033680122A24970689847002840F0FF810BF1010BBCE6002FACBF24F010040127DB
:2039200014F40053079304F0E0032ED0402B12D005D8ABB1202B21D195F900200DE0602BD4
:203940000ED0802B1AD1073525F0070303F10805D3E9002307E0B5F90020D317043502E0FE
:203960002A680435D317002A73F1000108DA524263EB4303CDE90023012304E000220023D3
:20398000CDE900230023059329E0402B13D004D8BBB1202B1DD12A780EE0602B11D0802B14
:2039A00017D1073525F0070303F10805D3E90023CDE900230BE02A880023CDE90023043539
:2039C00005E02B6800221946CDE900120435079BD9E70023059300220023CDE9002304F4BA
:2039E000C053B3F5805F0CD0B3F5C05F33D0B3F5006F4FD1DDE900230DF13609CDE902234F
:203A000004E0DDE900230DF1360915E0DDE9022313433AD0DDE902010A220023FDF718FB3D
:203A2000DDE90201303209F8012D00230A22FDF70FFBCDE90201E9E752EA030125D002F02F
:203A40000701303109F8011DD10841EA4371D8080A460346F0E74C4B14F4804F0DF136092B
:203A60004A4918BF1946DDE9002352EA03000CD002F00F00085C4FEA131E09F8010D100982
:203A800040EA037002467346EFE70DF13603C9EB030302E00DF1360900230293029B41F616
:203AA0000802BB4238BFFF1A41F2080302EA040228BF00279A4202D1002F08BF012741F6AD
:203AC0000801029B8A4203EB07000DD1DDE90023134309D02F4A304914F4804F4FF0020A75
:203AE0000CBF0B46134602E04FF0000A5346079A9AB1059A52B904F00602022A0AD0062AC5
:203B0000264A04BF4FF0010A134606E04FF0010A234B02E0234B4FF0010A0AEB00029045CB
:203B20008CBFC2EB08084FF0000814F0010200920DD1E10602D54744904608E041463046BB
:203B40000593FFF783FD059B002840F0E080BAF1000F07D03468524619467068A0470028F4
:203B600040F0D580029B03EB0B04BB46BBF1100F33681BD910220C4970689847002840F035
:203B8000C680ABF1100BF1E77ACC00008BCC0000ADCC00009FCC00009CCC0000A4CC0000F7
:203BA000A2CC000033CB00006ACC0000BBF1000F06D05A46654970689847002840F0A7804E
:203BC0003368029A4946706854449847002840F09E80009B3C44002B39D032E0D5F800909C
:203BE0000435B9F1000F0AD0CA469AF800300AF101020BB19246F8E7C9EB0A0A03E0DFF834
:203C000050914FF0060A002F02DBBA4528BFBA46D0458CBFCAEB08084FF0000814F001070A
:203C200005D141463046FFF711FD00286FD133685246494670689847002868D10AEB0B0467
:203C40002FB141463046FFF701FD00285FD108EB040B1DE550EA010E0ED000F00F0E12F8F9
:203C60000EE04FEA111C03F801ED4FEA101E4EEA017E70466146EDE7FF1A02BF3022012764
:203C800003F8012C07F1030708BF03F1FF337822B84503F8012C4FF0300203F8022C88BF6D
:203CA000C7EB08084FF0230298BF4FF0000814F00104A3F1030903F8032C04D1414630469B
:203CC000FFF7C4FC18BB33683A46494670689847E8B95F4424B141463046FFF7B7FCB0B9D2
:203CE00008EB070BD4E4B8F1010F2B688CBF08F1FF384FF0000814F0010405F104058DF86C
:203D0000203008D141463046FFF7A0FC10B14FF0FF3017E0C3443368012208A97068984798
:203D20000028F4D108F101072CB141463046FFF78DFC0028EBD1BB44AAE42B680435C3F844
:203D400000B0A5E40FB0BDE8F08F00BF6ACC0000A6CC0000014B00221A60704740170020CA
:203D600010B50446FFF712FC0B4B19880B4B1868FFF71CFC0CB1214600E009490E20FFF7DB
:203D800033FC08490D20FFF72FFC074B002108469B689847012010BDC22000203C1700204F
:203DA00094C900002C1B002070C700002DE9F0410C4B1C68A4B1FFF7C7FB0546FFF7B2FBEB
:203DC00006460D20FFF71CFC07460E20FFF718FC3A46034631462846A446BDE8F0416047C2
:203DE000BDE8F0814017002010B5038804462BB1222B0FD000230380032010BD4FF420712A
:203E0000094807F09BFD0948FFF710FC22232380012010BD044807F0A3FD0028F8D002487C
:203E200007F095FDEFE700BF44170020C3CC000000F0E6BB704700BFF8B5144E044633784F
:203E40000F4615469BB154B1B5B12A786B68227063602B782BB10123A360A7B9E76020467E
:203E6000F8BD4FF6FF73E760A3602046F8BD00F00BF901233370E6E7054B254693E80300B0
:203E800084E80300E5E7E3602046F8BD022200206007002070B582B005460E466A460124F3
:203EA000064B93E8030082E80300314628468DF80040FFF7C1FF02B070BD00BF6007002041
:203EC000704700BF2DE9F0430E468BB00A4600230446264901A800F0A1F9731E03333DD958
:203EE00000F090FB0122DFF88C90E368054689F8002003BB98461E4F04E000F083FBE36854
:203F00000546C3B9731C03D001A800F01FFA90B1284600F07FFB636803B198473B78002B71
:203F2000EBD003F0F3FE87F8008000F06BFBE3680546002BE6D00020E36889F800008BB1EE
:203F40000646E368013BE360284600F063FB01A800F072F930460BB0BDE8F08301A800F0A9
:203F600079F9BDE74FF0FF36EEE700BF353E0000032200200422002038B5044600F042FBC1
:203F8000E268A36805469A4202D2E3680133E36000F0C2FB28B1094B1B7813B1084C2378EF
:203FA00023B12846BDE8384000F034BB03F0A4FE20702846BDE8384000F02CBB04220020F6
:203FC00003220020014B186C00F098BD700A002070B5214C88B0204600F03EFC012500234A
:203FE00004A8A360C4F8943084F8983084F8993084F89A30C4F88C50C4F8905000F0E0FCC3
:204000004FF0FF3304AA154904F10C00069300F0DFFC206401A800F0B5F9114B01AA1B6869
:20402000104904F14800039300F0B8FAC4F8880000F0B0F90C4EC4F894003146D4F8880060
:2040400000F0B4FA7268094B0949B3FBF2F3094A0B60157008B070BD700A00205D4100004F
:2040600068070020C53F00006017002040420F0068170020052200200346024A07CA83E8CE
:204080000700704754170020024B1B7803B17047FFF79EBF0522002038B500F0B3FA064B17
:2040A00005460021D3F8880000F086FA0446284600F0B0FA204638BD700A002070B500F075
:2040C000A1FA094D06460021D5F8880000F074FAD5E92443241AA34238BF0024304600F006
:2040E00099FA204670BD00BF700A00202DE9F843194E81463046884600F0C6FBB04226D0E5
:2041000004464FF0FF37204600F0C0FB237D05466BB1B9F1000F02D0E36843450DD0237DED
:204120002BB1E368A3EB08039F4228BF1F46B5422C46E8D13846BDE8F883236923B92375D2
:20414000D4E906309847EAE74344E360F8E74FF0FF373846BDE8F883700A00202DE9F84315
:2041600000F050FA2C4F01218046D7F8880000F023FA00240121BA68D7F89050BB68AA1A40
:20418000C31A9A4287F8981087F8994032D806464046761B00F03EFA254429460120FFF763
:2041A000A5FF361B86420446F6D200F02BFA97F8993081462BBB631CD7F8948003D0A41B22
:2041C000A04528BFA046D7F88800414600F00EF90023012208EB0504C7F88C804846C7F8FE
:2041E0009040BD6087F89A2087F89830BDE8F84300F010BA404687F89840BDE8F84300F00B
:2042000009BA29460020FFF771FF0446631CD7F89480D4D1D7E700BF700A002010B4002496
:204220008161046104758260C361014610BC014800F02EBB700A002038B5054600F0E2F9E6
:204240000446284600F034FB2046BDE8384000F0E1B900BF2DE9F041054600F0D3F91D4C04
:20426000064694F89A3013B194F8983083B1FFF713FF0122AB682A75184494F89830E8607B
:204280000BB184F899203046BDE8F04100F0C2B90121D4F8880000F08FF9A268D4F8901012
:2042A000A368821ACB1A9A42E1D80123D5F80880091A08EB00078845EF602B75E3D241464F
:2042C000D4F8880000F092F8C4F88C80C4F89070D9E700BF700A0020F8B50446D0B11D4698
:2042E0000F4B0E461B781746B3B100230D4A0E489D4208BF15466968AA68A76021612375E7
:20430000C4E90662214600F0C3FA2B7813B12046FFF7A0FF2046F8BDFFF75AFEE5E700BF1E
:204320000522002054170020700A002000230375704700BF81607047037D0BB98068704785
:2043400010B5C468FFF7A8FE201A10BD007D70470022024BC0E90023704700BF006CDC029A
:20436000014B1868704700BF680700200121034B034A1B681160D3E9020210476C17002001
:20438000042009400346024A07CA83E8070070476C07002008B5D0E9062347F690610020A1
:2043A000FCF756FE00234FF0FF328B4208BF824238BF104608BD00BF10B50C4606F05EF996
:2043C000231AB3F1004F0AD8C4F10403C34203D40430844238BF0446034B1C6010BD024B14
:2043E000041D1C6010BD00BF182009402DE9F041D0E90647D0E908230646A4FB014501FBB5
:204400000755A71845EB0308390C41EA08410022FFF7D2FFC6E90A78BDE8F08138B5054625
:2044200000F0F0F80123154A044615491548126803600B60136A142098476B68124AB3F56D
:20444000802F38BF04231149126828BF1B0C0B60136823210020984701220D4B0D491A6039
:204460000B680D4D23F4E02343F480330B6020462A60BDE8384000F0CDB800BFB0010010FE
:20448000042009401C00244384010010182009408002244300200940000024432DE9F04F08
:2044A00087B004468946154600F0ACF8304F824697F80080B8F1000F33D02E4E504600F0AA
:2044C000A9F82D4A4FF48033002D08BF1546002029786A682170A260A968284AC4F80C907E
:2044E000C4E904030023FCF7B3FD4FF00008024600234FF0000935686060C4E90623C4E968
:204500000A23C4E90C23C4E908890DB12B7813B107B0BDE8F08F2846FFF780FF07B0BDE815
:20452000F08F03A800F0D8F880204FF0010B03AB134A14210490134800F08AF80D4E12494F
:20454000124A134B134812683460C1F800801249C0F800B0C3F800B018680193C1F800B054
:20456000126A14209047019B1B6887F800B0A5E7062200206C1700206C07002040420F00CB
:204580006D4300007017002000002443B00100102C2009401C0024430420094010B5044608
:2045A00008B1FFF77BFF204610BD00BF00234FF48032C1E900327047F8B506460F4606F0F1
:2045C0006DF8D6E9064522462B46FCF741FD47B104FB01F1A4FB002305FB00152B44C6E984
:2045E0000823F8BD4FF0E022044B92F8042D53F8223013B1D3E90120104770478C17002081
:2046000007F096BA08B507F08FFA003018BF012008BD00BF00B1704707F08ABA10B50446B8
:20462000044B00681B685B6998472068BDE8104006F0A6B8B0010010014B1B685B69184719
:20464000B0010010014B1B681B691847B0010010F0B5044685B018B30E461D461BB35B68EF
:20466000D9B2FF292BD0184909688E4201D0E02B27D02968154B164FC4E90121304615491E
:20468000266043F8264006F065F83B6829799B68304698472B7A1BB13B6830461B69984716
:2046A000204605B0F0BD4FF0FF3001230195294602908DF80C3001ADC0236B60DAE729689A
:2046C000FAE70024ECE700BF780700208C170020B0010010E545000030B100214FF0FF3284
:2046E0000123C0E900120372704700BF06F032B870B504460E46154607F016FAC4E90165D8
:2047000000B170BDBDE8704007F012BA014B1B689B691847B00100104FF0E023D3F8040D92
:20472000C0F30800003018BF01207047024BC9B21B689B68184700BFB00100102DE9F0416B
:20474000FFF760FF344B93F8E630002B2FD0054606F08CFF03F0E2FA00F00C030C2B04469F
:2047600029D046072AD5200725D42C4E304607F002FA0428FAD02A4AE106136801D4002828
:2047800046D143F001031360264A274C1368216843F0030313608B69202098472368234CB8
:2047A0009B6B226898470123284623602368BDE8F041FFF72FBF30BF2846F8E7FFF77EFC84
:2047C00001210746DFF870800846D8F8003003FB07F603F0B1FAB042C5D2F021D8F8002032
:2047E000134BB1FBF2F19A7C791A1AB1DB68994228BF19460F48FFF79DFD0E48FFF72AFD9A
:20480000012003F07DFC0B48FFF790FD2846CEE723F001031360B7E77C07002000400340C4
:204820008C21084024220840B80100102C20094080BC0000880700206807002008B500F070
:20484000E7F8014B186008BD54180020014B186800F09CB95418002040600060704700BF51
:204860000368C01AB0FA80F04009704738B50546FFF7C8FE2C6823682B6023685D60FFF7FD
:20488000C9FE204638BD00BF006870470068704738B504460D46FFF7B5FE2C6063686B60A4
:2048A00063681D606560BDE83840FFF7B3BE00BF436802681A60036842685A60704700BFD4
:2048C0002DE9F04784B004460F461546FFF79AFE2E4E814633785BBB4FF0010A2C4803F01A
:2048E000FF08FFF7B9FF2B48FFF7B6FF2A48FFF7B3FF2A48FFF7B0FF294B2A49C3F8008092
:20490000294A2A4B01A8C1F80080C2F800A083F80080FFF7E1FE4FF0E00C254A01AB1168E4
:204920002448254ACDF808C0FFF792FE86F800A04846FFF76FFEF5B1AE68731C22D0032E0C
:204940001ED84FEAC6082046FFF786FF95E80F004FF0000C04F10C0585E80F002046A269AF
:204960000B4BC4E9077243446661A360C4F824C004B0BDE8F0874FF01808104D0326E2E74C
:204980000020F5E74FF018080326DCE7072200207C180020841800208C1800209418002087
:2049A0009C180020581800207818002008220020780700205C180020D94A0000F8C7000084
:2049C00000234FF0FF32C0E900338260C360704708B1FFF775BF704738B50446FFF712FED5
:2049E00005462046FFF764FFA068FFF739FF38B10122064960690B68824023EA02030B60A1
:204A00002846BDE83840FFF705BE00BF9C18002010B5FFF7F7FD0022034B1C681A60FFF7AC
:204A2000F9FD204610BD00BF781800202DE9F84F244E83463368244FDFF89490DFF8948052
:204A4000002B36D03B68012B33D103200823326812EA030A4FEA630330D110F1FF30F7D2C8
:204A60004C462046FFF702FF05462046FFF7F8FE30B10122336802FA0AFA23EA0A0333605E
:204A80000221AB692A6A5846C5E90831C8F80020FFF7C0FDD5E90301EB699847FFF7B2FD99
:204AA0006B6A8346022B04BF00236B623368002BC8D10022054B1A70BDE8F88F824609EB35
:204AC000C004CEE79C18002078180020082200207C1800205818002010B5FFF793FD0446B6
:204AE000FFF7A4FF2046BDE81040FFF793BD00BF014B1868704700BF5818002070B504467C
:204B0000FFF780FD636A0646012B0ED00125124B6069656203EBC0002146FFF7B9FE0F4BD0
:204B200061691A688D4015431D600D4C23781BB90C4B1D68012D04D03046BDE87040FFF720
:204B400069BD094B1868FFF7E1FD25703046BDE87040FFF75FBD00BF7C1800209C180020CE
:204B600008220020781800207807002038B504460D46FFF747FD236A2B432362FFF74AFD1B
:204B80002046BDE83840FFF7B9BF00BF70B50446FFF738FD0B4A0C4B14601B6805460BB121
:204BA000012C04D02846BDE87040FFF733BD074E3378002BF6D1064B1868FFF7A7FD34704A
:204BC000F0E700BF781800209C1800200822002078070020F0B4B1FA81F3B2FA82F45B0989
:204BE0006409F0B10AB1456BFDB199B14D6BC5B10F690169066BB94218BFC9684FEA9505ED
:204C0000C5EB960518BF6D1A05F18055B5F1805F07D9012332B1D168097B01F00F010229CB
:204C200007D023401846F0BC70472B46F0BC18467047416B05691069166B85424FEA9102A0
:204C400018BFC168C2EB960218BF521A02F18052B2F1805FE6D8E4E71E4A30B414691368B8
:204C600054B32469A04219D0ABB10125002401E01B686BB11A699042FAD191F83E5093F8ED
:204C80003E20954215D9DCB11B680025002BF1D1002D08BF214630BC08467047156991F87C
:204CA0003E4095F83E50A5420CD2146983B10025E0E700252C46DBE7002BECD00125D9E7D3
:204CC0001C46E1E713B100252C46D3E71946E2E72146E0E7181900200021836810B41A887C
:204CE000447DB2F5C15F598017D012D9A2F56052063A012A09D85A7E61F382025A7604B9AF
:204D00002D211A8B61F309121A83002310BC4375704740F602018A42F7D15A7C6FF38202AD
:204D20005A743CB11A8A6FF309121A82002310BC437570472D211A8A61F309121A8200237D
:204D400010BC4375704700BF704700BF2DE9D04F044692469B46FFF755FC7CB1D4E90A89E7
:204D6000D4E9086748EA0A0249EA0B0346EA0A0847EA0B09C4E90A23C4E90889BDE8D04F25
:204D8000FFF748BC38B50C460546FFF73BFC23685BB100241A69954208BF1C461B68002B76
:204DA000F8D1FFF737FC204638BD1C46FFF732FC204638BD70B50546FFF724FC1B4C06468C
:204DC00094F82C30206823EA050384F82C3038B38030FFF7BBFA626805462AB102F18000CD
:204DE000FFF7B4FA0543EDB294F82C3003B935B13046BDE87040FFF70DBC002BF8D1236A93
:204E0000002BF5D05A6A9207F2D530461D6AFFF701FC00220221206AA8470023236270BDFB
:204E20006268002AE9D00546D8E700BFA01800200720FFF7BFBF00BF2DE9F84F076F0446AD
:204E40000D469046994607B1B847D4E91A6706EA080A07EA090B5AEA0B032DD0DFF85CC00C
:204E60000021634604E00131082903F1400319D0B3F93C00A842F6D11A699442F3D10CEB54
:204E8000811090F83F201206EDD5216FD0E9082322EA0A0523EA0B06C4E91EABC0E9085696
:204EA000816001E0C4E91EAB002304F148002367BDE8F84FFFF760B8BDE8F88F100B00206F
:204EC000174B70B51B685B68D3E90164DD68D0B10CB30021134A144B1160144A1A6016B172
:204EE00005F054FDB0479CB10E4A1368002BFCD00023136004B1A04705B1A847BDE8704032
:204F00000B4805F009BD002EEDD0B047002CEBD1002DE9D170BD002DDBD1002EE0D170BDC0
:204F2000481900201C100440001004405100070601000706F8B5154E1548376905F056FD6B
:204F4000144A04461368156803F02003034005F460250AD04FB138460022B761FFF7F6FE5E
:204F60004FF480410C48FFF701FE2C4000D1F8BD0A4A002192F86130094843EA544482F8D2
:204F80006140BDE8F840FFF7F1BD00BF1819002020000E000C100440A4190020100D002037
:204FA000D8190020064B074A70B515685C68FFF79FFD234601462846BDE87040184700BFB5
:204FC00038190020481900202DE9F04F264C83B024683CB1A14202D10AE0A14207D0246886
:204FE000002CFAD1A046404603B0BDE8F08F0C46064699462369DFF870A0B34217460191A3
:205000004FF000080AF1080B256808D0002FEAD02C46002DE7D023692568B342F6D10022A0
:205020004FF080532046FFF791FEB9F1000F0AD12146504601F0B6FE2146584601F086FEC3
:2050400008F10108E2E700224FF080732046FFF77DFE064B019A116993F82C20196242F070
:20506000010283F82C20E3E718190020A01800202DE9F04F83B004468B469A469DF830909B
:2050800015460026002A40D1FFF7BCFABBF1FF3F4FF00057804640D052480021034604E06A
:2050A0000131082903F1400327D0B3F93C205A45F6D11A699442F3D100EB811B9BF83F304B
:2050C0001B063ED548490B695B4545D04B695B4542D04B46524659462046FFF775FF80B3B1
:2050E000424B1A78012A51D01B78042B4ED040494048FFF73BFD832400E003244046FFF7FC
:2051000089FA204603B0BDE8F08FFFF77BFABBF1FF3F4FF080478046BED133490B6913B16B
:205120001B699C423AD04B699BB11B699C4210D1D1F814B0BBF1000FDFD09BF83F301B06A6
:20514000C0D404244046FFF765FA204603B0BDE8F08FD1F800B0EDE7086932463B46019132
:20516000FFF7F4FD0199324648693B46FFF7EEFD214B2248002D08BF184605F0CDFB0199A4
:20518000B9F1000F0DD1BAF1000F23D183244046FFF740FA204603B0BDE8F08FD1F810B0A7
:2051A000C8E7086900224FF08073FFF7CFFD0199002248694FF08073FFF7C8FD104BDBF831
:2051C000100093F82C20186242F0010283F82C200199D8E74B46096820460122FFF7F4FEA6
:2051E000D4E700BF100B0020181900203819002002000040A419002001000104010002040C
:20520000A018002038B5114B194200D138BD012005F0EEFA01280FD032210D4B0D481B68C3
:20522000B1FBF3F1012938BF0121FFF783F8BDE838400848FFF70EB80025074C07490848E9
:20524000084A094B256048601A6038BD0400002068070020F41800201C100440381900204C
:2052600081610000881900200010044008B54FF0FF3005F045FB830700D408BD4FF4006110
:20528000BDE808400148FFF771BC00BFA41900208A0000D470472DE9F041002440F60A0554
:2052A00084B080462046FFF70BFE4849484B494A0C6001201A6005F0E5FC0122464F4046BD
:2052C0003D807C803B7B64F303033B737C607B7B62F303037B73FFF7FFFCD8F80860344696
:2052E00007E01A88AA42A2F6030105D0012903D91C466368002BF4D1384A637B12686FF369
:205300000303676063732AB1D3681B88A3F60303012B49D9B8F83030002B2BD169463046E8
:2053200005F06CFB684605F011FC284A1368002BFCD000232A4D13602A496B7B6960002B23
:2053400036D003F049F80028FBD003F069F80020254B1E491E4A5C68086016603CB19B68DB
:20536000DB0704D5214B324618680121A04704B0BDE8F08108F130037B60002301207A7BFB
:2053800098F83C1063F303027A7398F83D2063F3030160F30302A8F83230C8F8343088F8A4
:2053A0003C1088F83D20B9E70022114B1A60B5E7012005F01DFA0128C9D00121637B0D4A4A
:2053C00061F3030363736A60C1E700BF1C1004400010044001010E04881900201819002082
:2053E0003819002081610000CCBB000048190020A019002005520000042801D0002070474E
:2054000010B504460E48FEF7A1FF08B9002010BD0B48FEF791FF0B4B1B6803FB00F0B0F5A0
:20542000967FF3D20648FEF781FF052002F056FD0122054B214605485A73FFF797FBE5E71D
:20544000F41800206807002038190020A41900202DE9F84F0D4616461F468046FFF7D8FA44
:205460002C4900220B4604E00132082A03F1400337D0B3F93C40AC42F6D11C694445F3D10E
:2054800001EB821999F83FE01EF0800FECD099F83F301B0625D5D9E9082346F00A0A47F0F3
:2054A000E04B02EA0A0503EA0B0655EA06031ED1D9F80820184B9A4205D0D9F80820C8F8CB
:2054C0007020C9F80830C4E91AABFFF75FFB4FF0FF3104F14800FEF7F5FCD4E91E01BDE86E
:2054E000F88FFFF753FB02200021BDE8F88FFFF74DFBD9E908450AEA04000BEA050124EA24
:20550000000225EA0103C8E91E01C9E90823BDE8F88F00BF100B0020394E0000F8B5054624
:205520000F461646FFF76EF8114B04461B68AB4205D003252046FFF76DF82846F8BD0D4B0F
:205540001B78022B05D001252046FFF763F82846F8BD384605F0E0F906B13060C0B2012888
:205560000CBF812502252046FFF754F82846F8BD481900203819002010B50446FFF742F897
:20558000034A137823431370BDE81040FFF742B80A2200202DE9F8430024244EDFF89C902F
:2055A000234FDFF89C803519A87A012804D02034602CF8D1BDE8F88395F90930113300FA4B
:2055C00003F3DA43C9F800203A6813433B6095F909309840C0B2FFF7CFFF98F80030022B82
:2055E0000ED0112395F9091096F861208B401343DBB200210F4886F86130FFF7B7FAD6E74A
:205600000D48204405F088F9C0B20128E9D1A86940B198F80030022BE3D105F07DF9C0B286
:205620000128DED10223AB72C1E700BF100D00200C100440D8190020200D00200810044092
:205640003819002038B50546FEF7DCFF084B0446187820EA050018701B781B0703D4082158
:205660000448FFF783FA2046BDE83840FEF7D2BF0A220020A4190020054B9A8BDB8B12B29A
:205680001BB29A4200D070470820FFF7DBBF00BF18190020F8B54E4DAC68002C3FD0E26831
:2056A0008AB11388A3F60303012B5FD9082304E01188A1F60301012958D95268013B12B1BA
:2056C00013F0FF03F4D1D4E90A0100260027A368C4E90A6763B1002201F0E24352EA030631
:2056E00004BF02460B46A668B4F93C102069B047FEF788FF00260746EB8B36480133C3F3FA
:205700000B03EB8384F83F6001F0F4FA3846FEF781FFEA8BAB8B12B21BB29A4200D0F8BD83
:205720002D4A2E4B12681F6892F8A4205C68B24214BF07200520FFF73DFB002F45D097F852
:20574000A4301BB387F8A4602CB194F8A43013B3002384F8A430AA8BEB8B12B21BB29A4296
:20576000DDD1BDE8F8400820FFF76CBF106851682669D2F808C0D76830637163C6F838C0A7
:20578000F76310695169306471649CE73B684CB194F8A4201AB92268934238BF13460022FC
:2057A00084F8A420002BD6D05A1CB8D00C4A0D481168B3FBF1F1012938BF0121FEF7BAFD37
:2057C000BDE8F8400748FEF745BD002CBDD1C2E7181900202019002048190020A018002040
:2057E00068070020D01800202DE9F8430446FEF709FFA37A05461BB301221D4994F90930F5
:20580000096802FA03F6CF07F0B21ED400234FF000084FF00009C4E90033C4E90489154A8D
:20582000A3722372A36192F8603092F86210334382F8603011B1013982F86210FFF702FF45
:205840002846BDE8F843FEF7E5BE0B4909680906DCD5113302FA03F3DB43084E084F316843
:20586000194031603B6094F9093002FA03F6CDE740210840100D0020000004400C100440AA
:20588000081004402DE9F04B2F4D82B095F8613043B1002495F861302341DB070FD40134FB
:2058A000032CF7D195F8613013B902B0BDE8F08B0021264802B0BDE8F04BFFF757B995F881
:2058C0006160FEF79FFE112295F86130A24023EA020385F86130FEF79DFE6201A818837A72
:2058E000F6B2002BDED0102190F90970184BA1403B449B003142AC58D3F80090D0F8048078
:205900000DD1037A022B15D0FFF76EFFCDF800903946204600224FF00063C047C2E7FFF713
:2059200063FF002339460093204600224FF00073C047B7E74FF0000CD0E9042302F0805BF9
:205940005BEA0C03E0D0E1E7100D0020D8190020250C01102DE9F043754E904689B0326836
:205960000F46002900F0DE80B8F1000F00F0DE8001260446087806FA00F0104050D00021E3
:2059800040461D4606F0F5F8C4E90178FEF73AFEDFF81092804699F80070B74200F2C0807D
:2059A000002F40D0634A731C404642F8264089F80030FEF72FFE002D00F09280D5E9006323
:2059C0004FF4FA770122A869298AE76026606062E1826275002B00F09980002223612275F2
:2059E000554BEA68C4E90733A36102B1E2616B6903B12362AB6803B1A3617822002104F14C
:205A0000300006F07EF8002104F14800FEF742FA00234A491A4604F18000FEF75DFC20461C
:205A200009B0BDE8F08302F071FA454A454E136801A843F002031360FEF7C2FF737801AAFB
:205A4000414942480393FEF7C3FF01AA40494148FEF7BEFF01A8FEF73FFE96F800C001ABA1
:205A60003D4A19213D48CDF808C0FEF7F1FD01AB3B4A1A213B48FEF7EBFD3B463A463A4920
:205A80003A48FEF729FC3B463A4639493948FEF723FC3B46384A0421384802F069F9B3782B
:205AA000002B39D1364801F019F9364801F016F9002307260521344A344813600360344AEE
:205AC000344813701373037093605373324B33485360334B80F86060196099F8006061E702
:205AE0004FF0FF324FF49D734FF4FA700121CDE9055502956562CDE90355079501922260E7
:205B0000ADF81430E382E060617501AD40F6C41201232261237563E70E2002F099FAC1E783
:205B2000FEF778FD002009B0BDE8F083404677E7D4210840A0180020494D0000314E0000FC
:205B400000200940CCBB0000A54F0000A419002085580000D8190020915E0000501900201E
:205B6000354F00006C190020C1660000F418002079560000D0180020F95300000C1A002040
:205B80002019002018190020A01900209C190020381900200A22002065600000100D0020EE
:205BA0004C190020092200202DE9F048FEF72AFD1A4B1B78022B2AD0FEF72CFD04F06EFD0F
:205BC00010F5003441F100056B016001001B43EAD46161EB05018B018201121A43EA90635E
:205BE00063EB0103D90041EA5271D0000022061941EB05070A4D3C022969350244EA16643D
:205C0000A81844EB01010C462046BDE8F088054B1C68FEF7FFFC2046BDE8F0883819002006
:205C200088190020043004401D4B1B6853B1D9680A7B02F00F02022A08D0002301220360C6
:205C4000104670471A4603601046704770B5044614481A6990F86230D08A03EB83031669B2
:205C600003EB830303448D681E44FFF79DFF281A800806F57A73984207D9B0F1405F04D2FE
:205C8000831B012B38BF012300E00023064A236011680122B3FBF1F31046236070BD00BF56
:205CA00018190020100D002068070020F0B5424C83B0256815B363690BB103B0F0BD236998
:205CC0002A698BB123691B699342F6D195F83F30D906F2D52369DB685B88002BFAD0236974
:205CE000DB685B88012BF5D0344E336893420BD04FF480613248FEF739FFDEE70221304895
:205D0000FEF734FF03B0F0BD01A8FFF78DFF20B1019B13B12369002B46D00820FFF72CFC8C
:205D200095F83F302448DA0629D500F0E3FF6061D5E90614C843234B18601A681142FBD120
:205D4000E043214B214A1F68ED6839431960106053F8082C2846144343F8084C04F0DCFD68
:205D60002B88B3F5C15F13D00DD840F6020293420ED04FF080411248FEF7F8FE9DE700F03A
:205D8000B9FF2061D4E7A3F56053063B012BF0D80F4B5C68002CECD09B68DB07E9D52A4676
:205DA00030680121A047E4E76369002BB5D10820FFF748FC81E700BF18190020481900209F
:205DC000A4190020101004401410044008100440CCBB00002DE9F04F0025284B2F461C4673
:205DE00083B01A1DCDE90032DFF89C90DFF89C80A3F1100A23687BB123684FF0000B986920
:205E000004F07EFD06465B4620683246FEF79EFF16F00A0F16D17EB915B9019C0125E9E7F6
:205E20001FB139461648FEF7A1FEFFF7B3FB03B0BDE8F04FFFF73ABF236847F48047CAF8A8
:205E40001830E9E72268D9F8003092690D4822F0020223EA0203C9F800302268D8F80030AC
:205E6000D26947F0020723EA0203C8F80030216800F06CFFC4F800B0CEE700BF2819002080
:205E8000A419002020190020141004400C10044038B54FF0FF3004F033FD184C184B6268F4
:205EA00005469A420AD0174B1D4200D138BD4FF00051BDE838401448FEF758BE00221349C8
:205EC0001348FEF715FC0222124B22701868826800F1300102E08B4203D01A465368002BFA
:205EE000F9D1537B1B0704D140F60903428E9A42D9D0FFF74FFBFFF7D9FED4E73819002043
:205F00008161000002000040A4190020D55D000050190020481900202DE9F04F002485B096
:205F20000460804603A8FFF77FFE2E4D01904FF0FF3620462C46DFF8B0B0DFF8B0A005F16D
:205F40006007A37A43B3237A022B45D0DBF8001095F86220CB8A086902EB8202034402EB8B
:205F6000820203EB020962690092FFF71DFE009A101A800809F57A72904204D9B0F1405F11
:205F8000A0EB09031DD30023DAF800200120B3FBF2F39E4228BF1E462034A742D1D1019B0B
:205FA0003BB1039B88B90198C8F8003005B0BDE8F08F0028FAD00120C8F8006005B0BDE827
:205FC000F08F012B38BF0123DEE79E4228BF1E460120C8F80060F1E7019E002EEBD0002644
:205FE000E9E700BF100D0020481900206807002010B5194B82B01A78022A24D01A78012AFB
:2060000015D01B78042B12D0FEF7FCFA044601A8FFF782FFE0B1019959B91048FEF786F999
:2060200004210F48FEF7A2FD2046FEF7F3FA02B010BD012938BF01210848FEF77BF907483E
:20604000FEF708F9F0E71920FEF760FB02B010BD0248FEF76BF9E7E738190020F41800205D
:20606000A419002070B511F002050C4651D14A0700D470BD04F012FB334B344A1B68106060
:20608000334E002B51D01C6933685BB19C4209D0636A5B0704D52A46236A042120469847E1
:2060A00001236375346062682A4B127802201A6001F014FF112001F0CBFF0122264B274CF4
:2060C0009B782270002B36D033685B689A68002A35D000202249234B234A08601A600720EC
:2060E0000021224B224A1860224B10681160186819601368204943F0804343F0020313605A
:206100001A206160FEF79EFABDE870401920FEF799BAFFF7BFFA0C4B9B6843B144F00201ED
:206120001648BDE87040FEF721BD3468BBE7BDE87040FFF75DBF0E2001F08AFFC4E7DB689E
:20614000002BC6D1CBE700BF18190020A019002048190020D0210840CCBB00003819002030
:206160001C100440001004405100070600000460141004401810044091520000A419002005
:206180002DE9F0474B0484B00C467CD48F0039D4880700F1CC80610500F1D280260540F120
:2061A000A280904E3068826800F1300102E08B4203D01A465368002BF9D1537B1D070BD1DB
:2061C00040F60903428E9A4206D1C56900224FF000736FF48071A847834D2B68002B40F0F7
:2061E0006E81002281498248FEF782FA0222814B24F400641A70FFF7FBFE002C3CD104B0B7
:20620000BDE8F0870546FEF7FDF90646042004F0EFFA00284BD13046FEF7FCF9714B1868FF
:20622000826800F1300102E08B4203D01A465368002BF9D1537B1E0713D140F60903428ED7
:206240009A420ED14FF00073EE6900226FF480712846B047684B1B68002B00F08180FFF757
:20626000C7FE24F00054AE69284600224FF080630021B047002CC2D021466048FEF776FCDC
:2062800004B0BDE8F087FEF7BDF95B4B01469D693DB1D5E90A6706F00A0207F0E043134301
:2062A0002BD00846FEF7B6F924F48044A5E72B7D002BB0D0524B1F68002FACD0D5F810800A
:2062C00004F0ECF940F69802C31B1B0B43453CBF43445B082B61A3F59673934284BF40F629
:2062E000C4132B6197E7210700F1F380630084D5FFF77EFE24F080447FE7D5E90A89D5E9B6
:206300000A2323EA090722EA0806C5E90A67FEF781F9AB68002BC7D058EA0903C4D0AE68BE
:206320002869A98F42464B4609B2B047BCE7FFF7B1F9314B9B68002B9ED124F002045CE710
:20634000FEF760F92B4B05461A78022A02D12A4A116941B12846FEF75DF924F480644CE7D5
:2063600044F002047DE7D2F81490B9F1000FF1D11768002FEED04FF0040A4A4621491C487F
:2063800083F800A0FEF7B4F92846FEF743F91E48FDF7CCFF04F082F93B69DFF84C805A6A02
:2063A000104E5207C8F80000336004D54A4651461D6A1846A8470120FEF782FD0025012321
:2063C000D6F800A0114A124812490560116050468AF81530FEF780FCDAF8089040F60A02EF
:2063E000484621E0481900209C190020D55D0000501900203819002018190020A41900205E
:20640000A01900206D520000D0180020001004401C10044001010E0419889142A1F60305F1
:2064200005D0012D03D918464368002BF4D14FF0010C0023FA68417B12886CF30301A2F662
:20644000030262454173436040F20B81BAF83020B2B1427B9AF83C509AF83D10AAF8323058
:20646000CAF8343063F3030563F303026CF303010AF130038AF83C508AF83D104360427377
:206480006946484604F0BAFA684604F05FFB774A1368002BFCD000207549764D4B68106024
:2064A0001060C5F80090002B3FF457AF8A68D7077FF553AF4A463068012198474DE704F024
:2064C000EDF800222B683168C31A1B0BCB602A6087E6FEF797F8684D80462B78022B07D0BE
:2064E0004046FEF797F8FFF783FD24F0080484E6624F3B69002BF3D17B69002BF0D1604BD3
:206500001A781207ECD41B781B06E9D46846FFF703FD002800F0A880009B002BE0D000261F
:206520004FF00109DFF894A10AEB06039A7A203642B193F9090083F80A9009FA00F0C0B29C
:20654000FFF780F8602EEFD1032300264D482B70FDF7ECFE4046FEF75DF84B4A4B4B1168B1
:2065600016601A684A4932461E604A48FEF7C0F8304604F087FB04F091F8474BAA681B68CB
:20658000C31A1B0BD9438A428CBF4FF0FF339B182A7BAB6022B1414A1268B3EBC22F07D9AA
:2065A0003F4B1B68DE073ED4012200232A73AB6004F0C6F900222E4E3A4973680A6033B1EC
:2065C000B168890703D53849086802219847022001F0E0FB112001F02DFC344B1B7893B1B8
:2065E000B378E3B16B7BA3B900232B70F88BBB8B2F4A1BB200B298420CBF072002206A6063
:20660000FEF7D8FB6FE7284B18684830FDF7B4FCE6E7002305206B7301F0BCFBE4E70E20B9
:2066200001F008FCDEE7234B1B681806BCD5002340F609010120204A0C4E11805380517B88
:2066400060F303015173117B0A4863F303011173536033600260538803F44063002BFAD051
:20666000A2E7C8F800300BE7064659E71C100440CCBB000000100440381900201819002016
:206680000A220020D0180020141004400C100440915E000050190020A01900204C19002008
:2066A00040210840000004604819002009220020656000000000044088190020100D0020FA
:2066C000054A064B52689A4203D004210448FEF74DBAFFF78DBC00BF3819002081610000F3
:2066E000A41900202DE9F04F83B09246074601919946FDF787FF002280462B4E95017419A1
:2067000094F83F3001321B060AD5082AF6D16FF001044046FDF77EFF204603B0BDE8F08FBA
:206720002248FDF703FEDDE90C2320210B4019461F484FF0800E024042F00200C4E90601BC
:206740004FF0000C002000211A4A84F83EA0B2F81CA0019B0AF1010ACAF30B0AA2F81CA0BF
:20676000C4F80890B2F81C90C4E90801E3602761A4F83C9084F83FE0104687F8A4C021464B
:20678000019200F0E3FA019A1368A34209D03544B5F93C404046FDF73DFF204603B0BDE8AE
:2067A000F08FFFF725FCF2E7100B0020D0180020FFEFFF9F18190020002303710360704799
:2067C0002DE9F04F804689B08B46CDE90523FDF719FFDFF868A20490DAF80090C14508BF06
:2067E000DAF80490B9F1000F06D009F18000FDF7ADFD002840F00F8100228C4E9501741985
:2068000094F83F100132090604F13F030AD5082AF4D16FF001050498FDF7FCFE284609B038
:20682000BDE8F08F82480793FDF780FDDDE9122320214FF0000E7F4F7F480B400240B88B71
:20684000CDE902230130059BC0F30B00069993F804C0B8831868DDE90223C4E90623079BC2
:20686000A16084F83EC00022B7F81CC083F800E00023C4F80CB0C4F81080A4F83CC0C4E969
:206880000CEEC4E90823002840F083809BF80C3003F00F03022B03D1DBF8083072191363EA
:2068A000DBF80420002A00F0B480082300E00A465168013B11B113F0FF03F8D1138803F421
:2068C0007C43B3F5305F6FD0DDE90223711942F00202C1E90623DAF8203043455BD0B9F186
:2068E000000F3FD053494046D7F800B0FEF74AFA014680B93A68002A00F086803969204656
:20690000FEF768F900287FD021464A4800F034FA2CE0594681B1D1F800B020465A46FEF742
:2069200059F90028F5D0BBF1000F1BD05A462146404800F0F3F919E048462146FEF78CF99F
:2069400000283FD084420DD00123721992F83E20B0F93C10D21AB2FA82F20069520900936E
:20696000FEF786FB2146334800F0F0F90021354495F83F303A6843F08003A24285F83F3028
:20698000B5F93C5088F8A4107FF445AFFFF730FB41E760637AE79AF82C30DA0744BF23F0D0
:2069A00001038AF82C309AE7731993F83F20DDE9020142F0100240F00800C3E9060183F88B
:2069C0003F2088E77319DB681B7B03F08F03022BC8D17A6842B93B69002BC3D039692046F2
:2069E000FEF7F8F80028BDD1BB8B9AF82C20013BC3F30B0342F00402CAF82080BB838AF87E
:206A00002C206FF0020506E7BBF1000F94D0594681E75A4652E79AF82C30CAF8208043F055
:206A200004038AF82C306FF00205F4E6100B0020D018002018190020FFEFFF9FA018002039
:206A4000002901DBFEF704BD00200021704700BF30B583B0DDE90645CDE900450446FFF760
:206A600041FE011E08DB20460A224FF0E04303B0BDE83040FEF7ECBC0020002103B030BD9B
:206A8000F8B50546FDF7BEFD4FF0FF331C4C1D4F064605F18000BB60FDF748FCE28BA38B5A
:206AA00012B21BB29A420DD0E28BA38B12B21BB29A4219D00123304685F8A430BDE8F840D3
:206AC000FDF7A8BD3B78022BEED00F4B93F82C30002BE9D03046FDF79DFD0720FEF76AF917
:206AE000FDF790FD0646DFE70848FDF71FFC0820FEF7A8FD3046BDE8F840FDF78BBD00BF94
:206B00001819002038190020A0180020D018002000B5C2F3800383B00093C2F3400302F036
:206B20000102FEF7A5FA03B05DF804FB00B5C2F3800383B0009302F001020123FEF798FA64
:206B400003B05DF804FB00BF00234FF0FF314FF49D7203610160C0E90133C360C0E90533E5
:206B6000028270470022FEF7D9BC00BF00B583B001AA0649FEF7D2FC812814BF6FF07F0070
:206B80009DF9060003B05DF804FB00BF0100030400298268C1F3150319DB10B540F60204B7
:206BA000118882B0A1429BB20FD0B1F5C15F0CD053831024002201A9ADF80630ADF80440BF
:206BC000FEF7ACFC832002B010BD5382F1E70320704700BF40F60201836800201A888A42FE
:206BE00006D0B2F5C15F03D05B8B63F3150070475B8A63F315007047F0B490F900507F2DED
:206C000028D042788478C37842EA042203F03F03124E42EA0342B2421CD0CF0F0346C1F378
:206C200015010EE094F905507F2D13D05A789878DC7842EA002204F03F0442EA0442B242BE
:206C400008D018791C46B7EBD01F03F10503E9D19142E7D12846F0BC704700BFFFFF3F00CA
:206C600011F1800F35D0F0B590F9006000247F2E2AD083784278C57842EA032205F03F05A9
:206C8000154B42EA05429A421ED0B1421CDB9C46431D0EE05A789F78DD7842EA072205F0B5
:206CA0003F0542EA0542624503F1050308D08E4206DC93F9006001347F2E04EB840EE9D1E7
:206CC000704450F8040CF0BD6FEA94506FEA8050F0BDD0F801007047FFFF3F0010B504461C
:206CE000FDF790FC0023C4E90033BDE81040FDF791BC00BF38B50546FDF784FC2C6824B107
:206D000023682B602BB100225A60FDF783FC204638BD6B60FDF77EFC204638BD70B51446C4
:206D20000D460646FDF76EFC6368C5E9004363682BB11D606560BDE87040FDF76BBC3560AC
:206D40006560BDE87040FDF765BC00BF38B505460C46FDF757FC00226B68C4E900232BB1D3
:206D60001C606C60BDE83840FDF754BC2C606C60BDE83840FDF74EBC38B505460C46FDF7B9
:206D800041FC00222B68C4E900322BB15C602C60BDE83840FDF73EBC6C602C60BDE838407E
:206DA000FDF738BC38B50C460546FDF72BFCD4E900323BB15A6062683AB11360BDE838406C
:206DC000FDF728BC6A60002AF7D12B60BDE83840FDF720BC02234160028103700020704714
:206DE000012243681B68DA64704700BFF0B5144D85B0D5E90064207901F02AF9FDF702FC92
:206E000033780746B3B901A8FDF766FCA27901AB029261790B4A301D0195FDF719FC012375
:206E20004FF0FF3122683370D162226806499160226853603846FDF7EDFB014805B0F0BD77
:206E40002CBC0000E16D000000040020F8B5D0E90046FDF7D7FB2378054623B92846BDE891
:206E6000F840FDF7D7BB307900F05EFF012807D0307900F0DFFF2846BDE8F840FDF7CABB23
:206E800000273368201D5F60FDF7C8FB2770EFE770B5FDF7B7FB0F4B05461A78A2B9012191
:206EA0000D4A197013787BB1013B0C4CDBB203EB430304F10C0606EB830623682046DB6831
:206EC0000C349847B442F8D12846BDE87040FDF7A1BB00BF0B22002064CA000068BC000063
:206EE0006FF00100704700BF0022436883F8DC20704700BF002370B514494468144A154EF0
:206F000085683360D4F8A4000B60136000F0DCFC686800F08FFF04F11000FDF77FFB04F125
:206F20002C00FDF759FD04F16000FCF7C9FF23781BB904F17C00FCF7C3FF04F1C80001F088
:206F400007FA002384F8DC3070BD00BF04280040100405421028004040687C30FDF70CB84E
:206F60000346574A8168126810B5526808685C6890470122534B1A6088B1237AFF2B0ED021
:206F800010F0140F17D1237AABB1FF2104224E4B21720220BDE810401A6004F0CDBD207AD2
:206FA000C0B2012834D017D302281BD0FF2813D0FF23237210BD430707D4FF2304F12C003D
:206FC0002372BDE81040FDF799BD04223E4B02201A6004F0B1FDF0E704F12C00BDE8104003
:206FE000FDF78CBD394AD4F8B43012681A70D4E92D230132013BC4E92D23002B49D0012B34
:207000004FD0BDE8104009222F4B1A6004F094BDD4F8B030013BC4F8B030EBB1D4F8AC2040
:207020002A4912F8010B012B0860C4F8AC200BD1D4F8B83043B90521234A23720220BDE830
:207040001040116004F078BD0122BDE810401E4B02201A6004F070BDD4F8B8203AB3022055
:20706000D4F8A83020721B7C19495B0043F00103012A0B6006D9BDE810400B22124B1A60E1
:2070800004F05ABD0322BDE810400F4B1A6004F053BD04210C4A23721160BDE8104004F089
:2070A0004BBD094ABDE81040136004F045BD0421054B22720220BDE81040196004F03CBD91
:2070C000AC0100101C28004004280040082800400028004038B5D1E90235D1E90024C0E9C6
:2070E0002A12C0E92C43C0F8B8500B7C5B00ACB10124164D11192B600472C0F8AC1011788D
:20710000134A144B11601C6814F040041BD1032202201A6004F010FD204638BD02210B4CF3
:2071200043F001030B4A23600172146814F0400409D1012D94BF03230B230846136004F0A5
:20714000FBFC204638BD4FF0FF3038BD00280040082800400428004070B54468D4E92F3247
:2071600093426668D4F8A81010D0227A0546B2FA82F29B695209C4F8BC30B0476868D4F867
:20718000BC10FFF7A7FF01300DD070BD227A0023B2FA82F2C4E92F335209B047BDE87040B7
:2071A000022000F0F7BD032304F12C002372BDE87040FDF7A3BC00BF2DE9F8434B6813B9F6
:2071C000CB68002B3CD0D0E9015907460E46FDF719FA2C780346012C03D1D5F8BC20002AC9
:2071E0003FD11846C5E92F6605F16008FDF712FA40460021FCF766FE431C06D12B78012B7D
:207200001ED001464046FCF75DFE022000F066FED9F80800FDF710FA31467868FFF75AFF72
:207220000646D9F80800FDF70DFA2C7864B1013627D001244046FCF79FFE2046BDE8F88386
:2072400000242046BDE8F883013614D04FF0FF3105F17C00FCF736FE2C7AB4FA84F4640928
:20726000E8E7D5F8C0309E61C5F8C060FDF7D2F92046BDE8F883032302202B7200F08AFD05
:20728000D8E7032305F12C002B72FDF737FC0024D0E700BF30B505460C4683B06846FDF732
:2072A00057F8E9680B4A0C4B52F821201B680032206818BF012201991B6898470123074C4D
:2072C00007480849084A236003600B60136003B030BD00BF20C80000AC0100101C28004070
:2072E000100405420428004010280040F8B54468D4F8BC30002B32D000270546FDF782F930
:2073000004221749174B0F6006461A60022004F013FC3A466368D4F8A81004E00022996954
:207320006368C4F8BC1028469847022000F032FDD4E92F329342F1D10023C4E92F33094933
:20734000094AC4F8A830237268680B60A9681360FFF7A0FF3046BDE8F840FDF75BB9F8BD4D
:20736000102800400428004010040542042801D00020704708B5D2E90101FFF78BFF0020E0
:2073800008BD00BF2DE9F043446885B005460E468768FDF737F994F8DC30002B75D1012360
:2073A00084F8DC30FDF736F9337A317872687868E3602170626000F04BFED5E90101FFF78D
:2073C00069FFF368D5F80490002B59D01E7893F80180FF2E5DD0B8F1FF0F5AD0FE22354BB8
:2073E00009F1980046EA0301009148EA030369460193029200F0FEFAC9F8A400002848D09A
:2074000031460D2200F098FB41460E22D9F8A40000F092FB6846FDF75FF900953E7BB96831
:207420006B46254A04F110000196FDF711F96846FDF7C6FA3B696A46204904F12C000293BD
:207440000095FDF7C5FA012104F16000FCF722FD217871B1002304F1C8002372C4E92F331C
:20746000174A2B46042100F083FC284605B0BDE8F08304F17C00FCF70DFD124B6360E9E70D
:20748000AB681E7D93F81580A3E7FDF7C3F80020ECE700250C4A0D4B15601D60786800F05D
:2074A000C9FCFDF7AFF884F8DC50FDF7B3F82846DCE700BF00200084616F000059710000F7
:2074C0006D730000596F000004280040100405422DE9F041FDF70CFB0024074601260A4D0C
:2074E000DFF8288006FA04F33B4206D058F8240018B103680BB12146984701342B68E4B2BB
:207500009C42EFD9BDE8F081B41A002010220020034A044B116804481960FDF727BB00BF00
:20752000E0200240E0200260801A002000292DE9F041A8BF0F46CCB204F1805303F501334F
:207540004FEA8302B8BF81F02047414B1168B8BF87F4C047034021EA0005064600F4E0208D
:207560003B40B0F5E02F82B043EA050352D020B9794006F0807001420BD003F4E021B1F51F
:20758000A02F33D0B1F5C02F03D123F4E02343F4A02301252F48A5402F49056013600B6857
:2075A00006F4000213EA050825D1730206D504F1804303F50833C7F3805119708AB1FDF751
:2075C00021F8254A39021368844623EA050329D5214A2B4360461360FDF71CF8B8F1000FDE
:2075E0000AD11C4B1D6002B0BDE8F08123F4E02343F4C023CDE7EAB97002F2D5154B04F1EB
:20760000804404F50834C7F3805727701D6002B0BDE8F081D901BCD503F4E021B1F5A02F2C
:20762000B0D1E3E71360FCF7F5FF0A4B1D6002B0BDE8F0810191FCF7E5FF01993A020B6859
:20764000844623EA0503C3D40B60FCF7E3FFD3E7007F077FE0200260D02002402DE9F04FCC
:207660008BB0824600F052FC694B1B7803F03CF80E2800F2B480DFE800F0AEAEB2B2B2B224
:20768000B2B2B2B2B2B2AEB90800052304209C461F27604A1360604B1B68C3F38153012BDA
:2076A00004D15E4A1268120E93401F43DFF8A081FF2143465A4ADFF89C91156808F10102BC
:2076C00005F07F050544C9F800502A4403F8011B9342FBD19AF800300024FE2B17D0504625
:2076E00022460126FF2B06FA03F10AD09D42C0F084809C4500F2818039427ED108F80320AF
:207700000C4350F8043F0132DBB2FE2BEAD1092000F09EFC434B01214348C3F800A000257D
:20772000FCF7B8FBDFF830B1012207E004234BF82530D9F800300135AB4224D302FA05F313
:207740003B42EEB2F2D1234218BF18F8053046F4C04106F1805606F501361ABF5AF8231030
:2077600032483248B6000192FFF7E0FE3368019A23F03F03336000234BF82530D9F800301E
:207780000135AB42DAD20024294D03A8FCF7A4FF287803AB274A102104902748FCF758FF02
:2077A00006A8FDF70DF96B6806AA24492448CDE90834FDF70DF9012220462249224E0B6802
:2077C000224D23F47C5343F400530B6032602A600BB0BDE8F08F02F06DFF022811D00D4BA3
:2077E0000027D3F800C00CF1FF3054E70323094A9C461360022007274DE702200BB0BDE89C
:20780000F08F0123034A9C461F461360002042E78C220020601A0020B43F0050A83F005093
:2078200044130050201A0020641A0020007FC76798BC000011750000441A0020D17400005F
:20784000801A0020003009400C40094008000940241A0020B41A00201022002018B3012382
:2078600042688B4013421ED010B50C46002122EA0303114A4360135D104AFF2B42F82410A6
:2078800013D00F4A0F48126852F82310FFF74EFE04F1805404F50134A4002368002023F0C3
:2078A0003F03236010BD0220704744F020410548FFF73CFEECE700BF241A00201022002009
:2078C000201A0020007FC767416861B110B5044691FAA1F12046B1FA81F1FFF7BFFF6168BA
:2078E0000029F5D110BD70470E4B1B68994204D80D4B53F82130834201D00220704770B5FA
:2079000015460C46FCF77EFE0122084EA240336805FA04F123EA020529433160FCF77AFEE5
:20792000002070BDB41A002010220020D02002400A4B1B68994204D8094B53F82130834244
